S015000046696E6368325F5465746865722E737265632A
S1130000E82A0020396B0000356B0000356B0000D6
S113001000000000000000000000000000000000DC
S1130020000000000000000000000000356B00002C
S11300300000000000000000356B0000356B00007C
S1130040356B0000356B0000356B0000356B00002C
S113005059340000356B0000150100006563000091
S1130060356B00003942000049420000594200004B
S1130070694200007942000089420000B94B000047
S1130080C94B0000D94B00008D4C00009D4C000072
S1130090AD4C00000000000000000000356B0000C3
S11300A0356B0000356B0000356B0000356B0000CC
S11300B00000000010B5064C2378002B07D1054B37
S11300C0002B02D0044800E000BF0123237010BDC0
S11300D0900100200000000050C50000084B10B53E
S11300E0002B03D00749084800E000BF0748036815
S11300F0002B00D110BD064B002BFBD09847F9E72D
S1130100000000009401002050C5000050C500000C
S11301100000000010B5264B984726490B8C0F228F
S113012013409B002448185803781A403F23CA54AC
S11301300F33CA5CD2B203781B012049C91849881D
S11301401F4CE3185B88CB1A4361D3070FD50121F9
S11301504E23184AD1543E3B4374037CDB0703D53A
S11301604368002B00D09847164B984710BD93075F
S11301700DD502214E230F4AD15400234374037C2E
S11301809B07F1D58368002BEED09847ECE7530723
S1130190EAD504214E23074AD154483B4374037CD7
S11301A05B07E1D5C368002BDED09847DCE7C04687
S11301B0252E000000480041AC010020F00300207F
S11301C0C0010020652E0000002303704370032249
S11301D08270C37003717047F8B5CE46474680B548
S11301E005000E00454B9847454B1B78002B18D152
S11301F0444B5A6920210A435A61DA6910390A4387
S1130200DA61414B1A880E398A431A8001221A8016
S11302103E4A5A633E4A9A633E4A1A80384B012248
S11302201A70364B9847364B5B68DA070FD55B0874
S1130230012401221A420BD05B080134E4B2052CDC
S1130240F8D1354B9847344B9847142051E000249B
S11302502B4A51680123A3400B435360137A013B9B
S113026013722D4B9847FF2CEDD02C700F2398461A
S11302701C40254F30339946FC540133FA5C02216B
S11302808A43FA540124FC541C4B98472B78424669
S113029013404A46BB543B692A789440A3433B61CC
S11302A0327852016023134072781202FC218901D2
S11302B00A401343B2789205C02109040A4013434B
S11302C0F178002904D007220A4008210A43134385
S11302D03279002A01D0102213430B4A53640E4C86
S11302E0A0470023AB612B789B000C4A9D50A0478C
S11302F000200CBC90469946F8BDC046252E00004F
S1130300000000200004004000480041F0030020E9
S1130310C0010020020F0000652E0000AC01002087
S113032070B50400194B9847637C052B08D0A3696A
S11303305B889BB2002B07D1154B9847172070BDE3
S1130340134B98470520FAE74026124B1E6022788B
S11303500F231340104D3F22AB5423780F4AD25C35
S1130360072313404D22AB54052363742078000106
S11303700B4BC018A1693D3A0A4B9847AB5D02226A
S11303801343AB55024B98470020D8E7252E0000B5
S1130390652E000000E100E000480041100200204A
S11303A0F0030020DDBC0000F0B50A7803880126C4
S11303B032400124A343134303804B78048803276A
S11303C03B405B00062294431C4304808D780488E0
S11303D03D40ED0018239C432C430480CA780388D5
S11303E03A401202164C2340134303800B790488CD
S11303F033409B02134A14401C4304804D79048803
S11304003540ED02104B1C402C4304808A7903884C
S1130410324012030D4C234013430380CB7907224F
S11304201A4003885203DB04DB0C134303800B895B
S11304304380CB6843600B6983604B69C360F0BD44
S1130440FFFCFFFFFFFBFFFFFFF7FFFFFFEFFFFFD7
S1130450427C0523052A0BD08369002B0AD0DA6875
S1130460002A03D0DB68DA68002AFBD1D9600023B4
S11304701800704781610023FAE70000F0B5DE46FA
S113048057464E464546E0B591B005000C001600AF
S113049029600800BB4B9847020023680520DB074E
S11304A006D511B03CBC90469946A246AB46F0BD79
S11304B0236817309B07F4D4B349086A971C0123B7
S11304C0BB4003430B620FA92D27F35D0B7014325D
S11304D0D3B202931800AD4B98470298AC4B98479F
S11304E0F05D0021AB4B9847F37A6B712423F35CE6
S11304F0AB712523F35CEB71F37E2B72337F6B724C
S11305002B68984618009F4B9847143000220E23FE
S113051006A98C4663441A80328A02928023DB0146
S11305209A4200D19CE00FD9C023DB01029A9A427F
S113053000D190E080231B029A4200D01DE10323E6
S113054006930023079308E080239B019A4200D07E
S113055013E1102306930F3B079333680593F36865
S11305609B4673690393337E04932623F35C9A4674
S113057073689946002B00D19EE080235B05994562
S113058000D182E0737E002B02D0B37E4246937387
S11305902A68029FD369002BFCD10E3306AA944625
S11305A063441B8842469381059B5A461343039A2E
S11305B013434A4613431F43049B1B021F435346E2
S11305C05B071F432723F35C002B01D104331F4334
S11305D0737E9B02327F52021343727F12021343D3
S11305E02422B25C520413432522B25C1204134346
S11305F0F17A19433389FF2B00D181E08022520420
S1130600174319432C23F35C002B03D1624B9B78D3
S11306109B0701D580231F432A68D369002BFCD193
S1130620434659602A68D369002BFCD143461F60B6
S11306300EAB80221A7000225A70DA709A70336BF3
S11306400A93736B0B93B36B0C93F36B02930D933D
S113065000270AAE63E008230693073B07937CE771
S113066033680593F3689B4673690393337E04935D
S11306702623F35C9A4673689946002B18D080238E
S11306805B05994501D0002025E02723F35C002B6E
S113069000D077E7336A1F00C0B2404B984701008F
S11306A00E2206AB9C46624438003D4B984712E04C
S11306B008230693002307932723F35C002B0ED013
S11306C0069B0093079B0E2206A98C466244B16ADE
S11306D0306A344FB847002800D0E2E652E7336A64
S11306E01F00C0B22D4B98470100069B0093079B47
S11306F00E2206A88446624438002A4FB847EAE727
S1130700F37E002B00D17DE78023DB041F4379E7D0
S11307102000254B984707E00137042F0DD0F9B28C
S1130720BB0098590028F3D0431CF5D00EA90870DB
S1130730000CC0B21D4B9847EEE70023EB602B6121
S11307406B61AB61EB612B62AB626B620022EB8588
S1130750AB853033EA540133EA540133EA540133AC
S1130760EA542868074B984704001149114B9847ED
S1130770A400114BE550002093E6102306930023B8
S11307800793EAE69141000000040040354400006C
S1130790A9430000CD3F0000002000415144000067
S11307A0D53D0000FD3D0000194000002D4500002E
S11307B031090000CD41000078060020C2791C23D5
S11307C0002A01D118007047C28D92B2173B002A4B
S11307D0F8D10368DA69002AFCD1198502211A7E4E
S11307E00A42FCD00023EDE7F0B5CE46474680B57B
S11307F083B0050001911720002A04D103B00CBC7A
S113080090469946F0BDEB790530002BF6D02C6864
S1130810E369002BFCD1013A93B2994600260127E3
S11308201F4B984611E0731C9BB2019A915D6A7943
S1130830012A17D089B21E0028001A4B98474B464C
S1130840013B9BB29946434513D0237E3B42EAD1F8
S1130850134B227E3A42E6D1012B19D0013B002BE7
S1130860F7D1E0E70236B6B2019AD35C1B02194312
S1130870E2E7237E9B070DD4094B0221227E0A4224
S11308800AD1012B0AD0013B002BF7D10020B5E798
S11308901220B3E70020B1E70020AFE71220ADE754
S11308A0FFFF0000BD070000F8B504000D001600AE
S11308B007680F4B9847A38D9BB2002B03D00D4BB9
S11308C098470520F8BDA6850A4B9847656205221E
S11308D03223E2542E3BBB75237A002B01D0202314
S11308E0BB75637A0020002BECD00823BB75E9E7C5
S11308F0252E0000652E0000931C9B00C318596030
S11309003021012393401A00435C1343435470473E
S113091010B51723002A01D1180010BD84790533BE
S1130920002CF9D0014B98470300F5E7A908000013
S1130930F8B58000564BC6583468E369002BFCD1E7
S1130940237EA57D1D403023F35C3122B75C1F401C
S1130950EB0722D5F38D9BB2002B1CD0B26A13781F
S1130960DBB2511CB162717901290ED09BB2DB0557
S1130970DB0D2385F38D013B9BB2F385002B0CD15A
S1130980013323750133A37507E0517809020B4342
S11309900232B262EBE701232375AB0706D50223CB
S11309A0237500223133F254FB072AD46B0712D586
S11309B0638BDBB21A0728D43F221340002B54D098
S11309C09A0725D51A223223F254638B183A13431B
S11309D063837B0745D4EB0604D510232375237664
S11309E0FB0648D4AB0604D52023237523763B07A6
S11309F045D42B0704D5082323752376BB0642D49C
S1130A00F8BD3000F3689847D0E737221340D5E7A4
S1130A105A0707D51E223223F254638B1A3A134322
S1130A206383D6E7DA0707D513223223F254638BA4
S1130A30123A13436383CCE7DA0607D54222322302
S1130A40F254638B323A13436383C2E720221A427F
S1130A50BFD021323223F254638B213A1343638390
S1130A60B7E7300073699847B5E7BB07B3D53000E3
S1130A7033699847AFE73000F3699847B2E730002D
S1130A80B3699847B5E7336A30009847B8E7C0467A
S1130A907806002000B583B001A900230B708B7089
S1130AA002334B701320024B984703B000BDC0467D
S1130AB0BD350000F0B5D646474680B583B00A2060
S1130AC0284B9847284B9847284A294B294CA0473C
S1130AD00027002400283AD0224E274B9A46274B61
S1130AE0984619E0002200212000234B9847002259
S1130AF000212000214B98470134E4B2FF2C23D07D
S1130B0003201F4B98470198174B9847174A184BD7
S1130B10184DA84700281AD00A20B0470190002F8A
S1130B20E0D102256D422D1BEDB2002200212800E8
S1130B30D047002200212800C0470134E4B2FF2C32
S1130B40DED101370024DBE700270024D8E7142294
S1130B5014211420084B984703B00CBC90469A46C5
S1130B60F0BDC046A96C000081B800008F4F5F5BE8
S1130B701C0C654041900000451100005911000013
S1130B80F919000010B5014B984710BD950A0000F3
S1130B90404A53681E218B431C390B4353603E4A21
S1130BA0936906310B4393613C4B3D4A9A829A8A7E
S1130BB002210A439A8219000222CB681A42FCD00D
S1130BC00122384B1A701A00012113780B4203D00A
S1130BD053785BB2002BF8DB0122324B9A601A0087
S1130BE053785BB2002BFBDB2F4A2E4B5A601A0062
S1130BF053785BB2002BFBDB8222D201294B5A8053
S1130C001A0053785BB2002BFBDB244A938C8021BF
S1130C108B43938411001022CB681A42FCD0234AE0
S1130C201E4BDA6219001022CB681A42FCD01B4A10
S1130C30938C1F490B43938411001022CB681A42F2
S1130C40FCD0164A938C02210B4393847E314020BE
S1130C50D3681942FCD0D3681842F9D00F49102246
S1130C60CB681A42FCD000220E4B9A601A005378CB
S1130C705BB2002BFBDB0F4A0A4B5A601A00537815
S1130C805BB2002BFBDB044B00221A725A729A727D
S1130C90DA72704700400041000400400008004040
S1130CA00C060000000C004001050100B805FF7DA2
S1130CB0040A00000007030070B584B0160001ABFD
S1130CC05E221A805980029000221A725A729A7215
S1130CD0044D054C01A93000A84720700028F9D123
S1130CE004B070BDF53A00002C05002070B58EB03C
S1130CF001AB244A0292002203921A731A7601214C
S1130D00494299820892099225315A540B9208312A
S1130D105A5401315A5401315A54D7321A861A4A54
S1130D20DA82C82252000192C02292030592174E21
S1130D30174D184C01AA18493000A8472070002804
S1130D40F8D1124B1C680722E3691A42FCD12368CC
S1130D500222134323600D4D2868104B98471F232C
S1130D6018401E3B83400E4A1360E888002310217C
S1130D70628B0A4204D101338342F9D31023638383
S1130D800EB070BD480D0000409CFFFFDC04002045
S1130D90ED3500002C050020001800420942000037
S1130DA000E100E070B58EB001AB244A029200224B
S1130DB003921A731A760121494299820892099280
S1130DC025315A540B9208315A5401315A54013185
S1130DD05A54D7321A861A4ADA82C8225200019229
S1130DE0C02292030592174E174D184C01AA1849B8
S1130DF03000A84720700028F8D1124B1C68072245
S1130E00E3691A42FCD123680222134323600D4D87
S1130E102868104B98471F2318401E3B83400E4AF6
S1130E201360E88800231021628B0A4204D1013345
S1130E308342F9D3102363830EB070BD480D0000C4
S1130E40409CFFFF04050020ED3500002C05002028
S1130E50001400420942000000E100E000B583B044
S1130E6001A8002303700622427083708033C3708C
S1130E70024A0421024B984703B000BD0405002038
S1130E80B90C000000B583B001A80023037006224A
S1130E90427083708033C370024A0421024B984726
S1130EA003B000BDDC040020B90C000010B5024BF7
S1130EB09847024B984710BDA50D00005D0E000039
S1130EC010B5024B9847024B984710BDED0C00003B
S1130ED0850E000010B5024B9847024B984710BD91
S1130EE0C10E0000AD0E000010B5014B984710BDB7
S1130EF0D50E0000F0B5DE4657464646C0B582B072
S1130F000190514B1B78002B00D094E04F4A13788A
S1130F10591CC9B211704E4AD25CD0090023002872
S1130F2004D15309DB014B48844663441F2010401D
S1130F30012282405A61484B1E78484B1B78013B82
S1130F4098469E4200DB70E04548825D454B1A702E
S1130F500136F6B2404B1E703300855D4248057081
S1130F60AA4235D1B04553DB0800394A93461F22C3
S1130F70924601273A4C761A0FE055462A403D0026
S1130F8095404561E25C8B19DBB20093E05C8446DA
S1130F90824212D1080098452DDB411CC9B25A4641
S1130FA0125CD009844600206546002DE5D1500925
S1130FB0C001284DAC466044DFE70500294B1A7098
S1130FC0254B684600781870274B1D701F4B19700D
S1130FD0FF2D1FD00021019C2000244B9847224B59
S1130FE01A7800212000224B984702B01CBC90467E
S1130FF09A46A346F0BD65461A4B1A70164B6846CE
S113100000781870184B1A70104B19706246DFE79D
S11310101500DDE70021019C2000144B98470022B5
S113102000212000124B9847DFE70022002101989D
S11310300F4B9847D9E70022034B1A7000210198FF
S11310400B4B9847D1E7C0460D00002064050020F3
S11310506805002000440041360500200C000020F3
S1131060400500201602002015020020DF4F00007A
S11310708F4F0000F0B5CE4600B505239946134FB7
S11310803E00134D17E00133DBB21A0063450BDA5F
S1131090B85C511C7C5CA042F5D9B4547054A85C73
S11310A06C5CAC546854EEE701235B429C46E1441B
S11310B04B46002B06D0CC4600220023494600298B
S11310C0E6DCF1E704BC9146F0BDC04630050020E3
S11310D038050020F0B500220D4B1A7000230026BD
S11310E00C4D0D4F0D4C0E4805E0F954C15CE15414
S11310F00133062B06D0E95CFF29F6D00132D2B2C7
S11311000126F2E7002E00D1F0BD014B1A70FBE777
S11311100C00002030050020400500206805002058
S113112038050020064B07221A70013A5A703032F3
S11311309A700B3ADA70013A1A710F3A5A71704781
S113114038050020034BC0431870C9435970D2437B
S11311509A7070473005002010B5074BC043D87013
S1131160C9431971D2435A71044B9847044B9847A9
S11311700122044B1A7010BD300500202511000017
S11311807510000017020020044BFE221A705A70DA
S11311909A70DA701A715A717047C046300500208F
S11311A0094A8023936140219161944663448021DC
S11311B0C90399618021090199618021C90099615C
S11311C080231B05936170470044004110B504005F
S11311D0204B9847204B1868C37B5BB2002BFBDB8A
S11311E0302383731D4B1B78002B15D100231C4A1D
S11311F013701C4A13701C4B1A78FF2A24D1164B07
S113120010211A6811735A7E8A435A7600220021EB
S11312102000164B984710BD154B9847154B1B5C87
S11312201F221A4001239340134A13600A4B5A7E2B
S113123010210A435A761B6810225A730F4B9847A1
S11312400022064B1A70D1E7002120000C4B98476E
S1131250DCE7C046A1110000480500201702002069
S1131260360500206405002040050020DF4F000003
S1131270BD4C0000E4BD000000E100E0D51000001A
S11312808F4F000030B583B001AC0123637000229E
S1131290A2702370210007200A4DA84721000620D0
S11312A0A84721003620A84721002B20A847210069
S11312B02A20A84721001B20A847034B984703B0C6
S11312C030BDC046BD350000A111000010B58EB080
S11312D001AA002300211370937113810020507020
S11312E09172D1721173917351731174536193613B
S11312F0117713625362138553859385E023DB00D2
S1131300938004239370FF212533D1540C4C0D4951
S113131020000D4B98472268D37B5BB2002BFBDB8C
S1131320138802210B431380084B9847084B9847B6
S1131330084B9847084B9847084B98470EB010BD88
S113134048050020002C0042F54C000089110000E3
S11313502511000075100000D51000008512000052
S1131360F8B5CE46474680B5174C002217492000F1
S1131370174DA847022217492000A8472068164B9A
S113138099469847154B98461B5C1F263340012508
S11313902A009A40124F3A60637E01221343637617
S11313A023685D731800C84743461B5C1E40B54064
S11313B03D60637E102213436376236810225A73C0
S11313C00CBC90469946F8BD48050020CD1100009C
S11313D0E94B0000F50E0000BD4C0000E4BD000028
S11313E000E100E0034B8022D2029A618022D20104
S11313F09A6170470044004130B583B001AC0123C9
S113140063700022A270237021001220034DA847AC
S113141021000E20A84703B030BDC046BD350000F2
S113142030B5094801240470084B1B68198D084A1B
S11314301578084B5B19C9B2197013780133DBB204
S11314401370047030BDC046E00300207405002012
S1131450CA030020E009002030B591B08023DB05E9
S1131460009300230193FF2269460A8100228B72B4
S1131470CB72012124206C462154013021542531A2
S11314806354013163540A93053163540131635445
S113149005932382E3762276227762761323A3765A
S11314A06277E1235B020893C4239B030393012324
S11314B05B420C930D93104B0E93104B0F93104DF6
S11314C0104C6A4610492800A0470028F9D10C4D59
S11314D02C6820000D4B98471F2318401E3B834067
S11314E00B4A13602A68D369002BFCD123680222BB
S11314F01343236011B030BD03000A0003000B0046
S1131500740500207D040000001000420942000020
S113151000E100E010B505483122835C02210B4351
S11315208354303A0249034B984710BD7405002098
S1131530700500201109000010B50122024903487A
S1131540034B984710BDC0462114000074050020C9
S1131550F908000010B5034B9847034B9847034B19
S1131560984710BD591400003915000015150000E6
S113157010B51E4A1388013313801D4A13780133B2
S1131580DBB213701B4A13780133DBB213701A4BAE
S11315901B78002B1CD000211848194B98470022B7
S11315A0154B1A70124B1B78DBB2FA2B05D901329A
S11315B0144B1A7000220E4B1A70134B0B4A1288EC
S11315C09A4211D90022094B1A80104B98470BE01C
S11315D00123094A13700E4C237008480D4B984799
S11315E00D4B18600023237010BDC0461C02002060
S11315F0E3030020C00300200E000020C0040020EC
S1131600314F0000E2030020B2020000B50A0000DE
S1131610E1030020634F00001802002070B582B07F
S113162001AC012363700026A670237021000320FF
S1131630054DA8470822054B5A61267021000F204A
S1131640A84702B070BDC046BD350000004400414B
S113165010B58EB001AA002300211370937093710A
S11316601381002050709172D17211739173517370
S11316701174536193611177136253621385538517
S11316809385A023DB009380074C08492000084B76
S113169098472268D37B5BB2002BFBDB13880221C3
S11316A00B4313800EB010BDC00400200030004274
S11316B0F54C000010B584B001AC2000084B9847ED
S11316C00F230193F0231B0363600223237201336E
S11316D0E37221000F20034B984704B010BDC046AD
S11316E0313500004535000070B5064C0825A5616C
S11316F06420054B9847656100210448044B9847D2
S113170070BDC04600440041CD190000C004002053
S1131710314F000010B5014B984710BDE916000089
S1131720004870471802002010B50C4C00220C49E8
S113173020000C4B984720680B4B98470B4B1A5CC6
S11317401F231340012211009940094B1960637E45
S113175001210B43637623685A7310BDC004002033
S113176015170000E94B0000BD4C0000E8BD000067
S113177000E100E010B500220F210448044B984713
S113178000210F20034B984710BDC046711500007F
S11317900D3400003934000010B5024B9847024B59
S11317A0984710BD291700007517000010B5024BAB
S11317B09847024B984710BD51160000B51600001B
S11317C010B5034B9847034B9847034B984710BDFC
S11317D01D160000AD1700009917000070B584B005
S11317E001AB4C221A805980029000221A725A725C
S11317F09A72054E054D064C01A93000A847207089
S11318000028F9D104B070BDAC050020F53A000001
S1131810D505002070B590B00EAD00242C700123C6
S11318206B70AC70290017203F4EB047290016207A
S1131830B04701AB3D4A029203941C731C7601220B
S113184052429A820894099425329C540B9408328B
S11318509C5401329C5401329C54A9321A86344A55
S1131860DA82C82252000192C02292030592314EBC
S1131870314D324C01AA32493000A847207000286B
S1131880F8D12C4B1C680722E3691A42FCD1236867
S1131890022213432360274D28682A4B98471F23AD
S11318A018401E3B8340284A1360E8880023102117
S11318B0628B0A4204D101338342F9D31023638338
S11318C00FAC0726267050236370022120001F4DA1
S11318D0A847052323700023637002212000A84732
S11318E006232370DE33637002212000A8470823F7
S11318F02370D833637002212000A8470923237082
S11319005F33637002212000A8470A232370063343
S1131910637002212000A8472670512363700221BE
S11319202000A84710B070BDBD350000480D000070
S1131930409CFFFFAC050020ED350000D4050020DD
S1131940001C00420942000000E100E0DD17000035
S113195030B585B001AA094B13CB13C200236A46E4
S1131960137001216846064B9847064D064C01A9A1
S11319702800A0470028FAD105B030BDECBD000016
S1131980DD170000AC050020D13A000070B500203E
S1131990084B98470500084CFA218900A047074BDB
S11319A0186007492800A047064B18600522064B1B
S11319B01A6070BD1D430000298D00001000002036
S11319C040420F001400002010E000E030B5084B46
S11319D01C68084A002580214902013807D3002CDD
S11319E0FBD05460956013680B42FCD0F5E730BD22
S11319F01400002010E000E030B5084B1C68084AD1
S1131A00002580214902013807D3002CFBD0546003
S1131A10956013680B42FCD0F5E730BD1000002040
S1131A2010E000E0024B186A4005C00F7047C04642
S1131A3080440041024B186A4005C00F7047C046FD
S1131A408044004170B5AAB0174E01AC31002000AB
S1131A50164B98470623E372F9336360FD3B237604
S1131A60002323756375E36101229821625493393D
S1131A70A1650F49A16723629933E254953BE3655D
S1131A800C4BE3670C4D2200310028000B4B9847A8
S1131A902A68022193681942FCD1136802210B437E
S1131AA013602AB070BDC046002000420546000005
S1131AB00400050004000400400400205147000015
S1131AC030B583B004000D001F4B1B78002B06D1EA
S1131AD0802212051D4B9A6101221B4B1A701C4B6C
S1131AE01B78A34217D001226B461A7001AB9A707F
S1131AF00021D9705A70002C16D1190005230B70DF
S1131B001520144B984769460D20134B98478022A3
S1131B1092010E4B9A612A0000211048104B9847FD
S1131B200B4B1C7003B030BD01A905230B700D20B5
S1131B30084B984769461520074B98478022920323
S1131B40024B9A61E7E7C0461E02002000440041B0
S1131B50180000202D450000BD3500004004002081
S1131B605D4B000030B583B004000D001F4B1B78A3
S1131B70002B06D1802212051D4B9A6101221B4BBA
S1131B801A701C4B1B78A34217D001216B461970A5
S1131B9001AB00225A709970DA70002C16D119002A
S1131BA005230B701420144B984769460C20134BE3
S1131BB09847802252010E4B9A612A000121104855
S1131BC0104B98470B4B1C7003B030BD01A9052383
S1131BD00B700C20084B984769461420074B984714
S1131BE080225203024B9A61E7E7C0461E0200209E
S1131BF000440041190000202D450000BD350000BF
S1131C00400400205D4B000010B500210120054B6D
S1131C10984700210120044B98470022034B1A7077
S1131C2010BDC046C11A0000651B00001E02002042
S1131C3000B583B06846054B984740236A46137045
S1131C4003490448044B984703B000BDD532000053
S1131C5000480042FC050020E932000010B582B0C3
S1131C6001A8074B9847074C01AA00212000064B06
S1131C70984700212000054B984702B010BDC0468C
S1131C8005340000FC05002007340000093400007E
S1131C9000B583B001A901234B7000228A700B7038
S1131CA03720024B984703B000BDC046BD35000045
S1131CB010B5484B1B68012B1ED0474B1A8892B2B3
S1131CC0198889B20023454890425B41DBB2002B5E
S1131CD01BD0434B8B4218D2424B1B6800225A60E4
S1131CE00132404B1C683C4B198851433E483F4BE2
S1131CF098472070200010BD08203D4B9847394B71
S1131D0018600022334B1A60D7E7334B1A8892B21B
S1131D10198889B20023324890425B41DBB2002B20
S1131D2009D0344B8B4206D22E4B1B6880225200C2
S1131D305A60FE3AD5E7284B1A8892B2198889B2BC
S1131D4000232C4890425B41DBB2002B0BD0B7231D
S1131D509B008B4207D2234B1B68802292005A605F
S1131D60FD3AFF3ABDE71C4B1A8892B2198889B232
S1131D700023B720800090425B41DBB2002B0AD0E5
S1131D80B7235B008B4206D2164B1B68C02292001D
S1131D905A600822A5E7104A13889BB2128892B2AF
S1131DA06E21FF3199420DD20023B73991425B4134
S1131DB0DBB2002B06D00B4B1B688022D2005A608A
S1131DC020228EE7074B1B68A022D2005A604022D3
S1131DD087E7C0461C0000202200002010270000D6
S1131DE07D0B000020020020B0710B00298D000043
S1131DF0C9BC0000BE05000010B582B004006846EE
S1131E00064B98471E236A4653701C3B93706946E1
S1131E102000034B984702B010BDC046C901000022
S1131E20D9010000F0B5DE4657464E464546E0B5BA
S1131E308BB00390012204AB1A70002304A94B70E9
S1131E408B70CB700A714A718B71CB710B810793C4
S1131E5008930993724B188880B2724B9847724A60
S1131E60724B734CA047734B984784B2724B1B78E8
S1131E70002B3BD1714B1B78002B4ED1704B186853
S1131E80704B18600300020040321C8002339342FE
S1131E90FBD10100803100221A8002339942FBD128
S1131EA0674B1860674B1B68012204A9CA700022A3
S1131EB04A7140320A8180330793634B1B680833AD
S1131EC00893039B0993614B1B78002B00D09FE080
S1131ED004A903985E4B98475E485F4B98470BB044
S1131EE03CBC90469946A246AB46F0BD802676009F
S1131EF030005A4DA8475A4B18603000A847594B38
S1131F0018603000A847584B18603000A8474C4B65
S1131F1018600022484B1A70ACE7484B1B78012B21
S1131F203BD0464B1B78022B4ED0444B1B78032BE3
S1131F30B8D14B4B1F68434B1F606008394B98471F
S1131F400090019100250024364B9B46384E474BA8
S1131F509A46384B9946464B984602972800D847EC
S1131F60444A454BB0470022444BB047D047009AFF
S1131F70019BB047009A019B414FB847C84780B2C4
S1131F80630042469852029B585301340235402C58
S1131F90E4D11F00324B1F6084E7324B1F68294B8A
S1131FA01F603D00402000213F260A006243D317F2
S1131FB033409B189B112B800235013101380028D6
S1131FC0F3D1284B1F606DE7274B1D681D4B1D6027
S1131FD02B00640027002E00403600213F20CA1742
S1131FE00240521892111A800233C919B342F6D131
S1131FF061012E0080363F20CA1702405218921108
S11320001A800233091BB342F6D1174B1D6049E70E
S113201003980F4B984700220C4B1A705FE7C04699
S1132020BC02002081B80000F6285C8FC2752440F1
S1132030EDAC0000919100001A0000202400002063
S11320403402002028020020FC050020200000208B
S1132050A90300000406002021030000C9BC0000FD
S1132060300200202C020020B8020020C5790000B4
S1132070380200206F1283C0CA2109400000903F3B
S1132080659E000030B583B000226B46DA80114BA8
S11320901A68D37B5BB2002BFBDB138802218B43D2
S11320A013800C4C216803780B750B889BB26A462D
S11320B0D380D388084D2B4080880343D380D388B2
S11320C09BB20B802268D37B5BB2002BFBDB03B09B
S11320D030BDC046E0050020FFF8FFFF10B58EB00C
S11320E001AA0023002113709371138100245470FA
S11320F09172D1721173917351731174536193611D
S11321001177136253621385538593850433937057
S11321108388938001782923D15403490348044BCD
S113212098470EB010BDC04600340042E0050020C0
S1132130F54C000010B580221204084B5A61084B7C
S11321401A68D37B5BB2002BFBDB138802218B4321
S113215013800448044B984710BDC0468044004196
S1132160E0050020FC050020E533000010B50E4B0F
S11321701A68D37B5BB2002BFBDB138802210B4371
S113218013800A480A4B984780221204094B9A612B
S1132190094B1B78002B00D110BD0848084B984709
S11321A00022054B1A70F7E7E0050020FC0500202B
S11321B0A9330000804400412100002004060020CF
S11321C02103000010B5194B1B78DBB2184A1370B9
S11321D0184B1B889BB2184A1380184B1B889BB260
S11321E017490B8013889BB2002B03D00B889BB23A
S11321F0002B05D10022134B1A70134B984710BDC6
S1132200124B984704001248124B98472000124B77
S113221098471248124B9847124B9847094B1B7822
S1132220002BECD10122074B1A70E8E7BC03002015
S113223024000020BA03002022000020BE03002056
S1132240BC0200202402002035210000B11C000043
S113225020060020251E0000852000000406002022
S1132260210300006D21000070B5064C2000064BD0
S11322709847064D2800064B984729002000054B37
S1132280984770BD04060020F91D000020060020B8
S1132290251E00005104000010B5054B9847054B5E
S11322A09847054B9847054B9847054B984710BDF1
S11322B0311C00005D1C0000B11C0000DD2000008A
S11322C06922000010B5034B9847034B9847034B12
S11322D0984710BD911C0000992200006D21000058
S11322E0704770477047704770477047F8B50400EF
S11322F0594B1B680133FF2B0ADC574A13602378C0
S1132300413BDAB2392A14D89300544AD3589F4631
S11323100022514B1A60F2E76578A678E7783A0014
S1132320310028004E4B98473A00310028004D4BAD
S1132330984700232370E3794B48C3714B4B98476C
S1132340F8BD0B204A4EB047474D28700320B047D4
S11323506870EEE7474A136C02210B431364464B43
S11323609847464B98471820414B984780B2444BB6
S11323709847444B98473C4B1870434B9847D8E7D1
S1132380A378002B02D12379002B08D0A1786078A0
S11323903E4B98472179E0783D4B9847C9E73D4B40
S11323A09847F3E762783C4B1A70A2781202E378FC
S11323B09B189BB2394A13802279394B1A80394BC6
S11323C09847B6E7384B9847384A137851780B4307
S11323D091780B43D27813435B060CD5324F334DBF
S11323E04026B8472B786A781343AA781343EA78CF
S11323F013431E42F5D11C4B99221A702B4A1178B3
S11324005970517899709178D970D2781A7190E78F
S1132410274B9847144D2870264B9847687088E7D7
S11324200220134B9847104B187082E7224B9847B1
S113243002780D4B1A7042785A707AE7064B1B6883
S1132440094A13700133FF2B03DD0022024B1A608B
S11324506FE7014A13606CE7C0020020F8BD00007A
S11324604511000059110000C4020020D9250000C4
S1132470A96C000000080040596D0000E96E0000DE
S1132480C16D000061910000416C0000C11A0000A0
S1132490651B0000091C0000BC030020BA030020D7
S11324A0BE030020C521000051190000A80500202A
S11324B0251A0000351A000021170000002070477B
S11324C00B4B5B881A0A0020032A00D07047FC32A9
S11324D01A42FBD1064BDB88042BF7D1044B054A87
S11324E09A60054A1A6104229A810130EEE7C046D7
S11324F090080020D8020020B92500000122014BD9
S11325001A707047CC02002010B582B0044B0093BF
S11325100823044A00210220034CA04702B010BD46
S113252065250000E4020020B959000010B500231D
S1132530074A1370074A13700122074B1A70074B9E
S11325409847002800D110BD054B9847FBE7C046CB
S1132550D4020020D0020020CC0200200925000073
S1132560A579000010B5002803D1082902D0034B37
S1132570984710BD0248034B9847F8E70925000027
S1132580E4020020ED22000010B5014B984710BD75
S1132590B579000010B5034B034A04490448054CBF
S11325A0A04710BDC12400003C000020D002002040
S11325B0D40200206126000010B5044B9B89042B33
S11325C000D010BD0248034B9847FAE7900800205A
S11325D0D8020020C179000070B582B00500194B03
S11325E01878002801D102B070BDEFF3108472B6E0
S11325F0BFF35F8F0022144B1A70144E083200216F
S11326003000134B9847082229003000114B98479B
S1132610114B009308233200002181200F4DA8475D
S113262001235840074B1870002C05D10122064B9A
S11326301A70BFF35F8F62B6024B187801235840BB
S1132640D1E7C046CC02002022010020DC02002099
S1132650EFBC0000DDBC0000FD240000B9590000FF
S113266070B5050014003B4A127850B2002805DB0F
S1132670602422400020202A4FD070BD60200240F8
S113268003D13448407806280DD00020202AF4D104
S1132690304A5278022A34D0032A38D00020012A42
S11326A0EBD19847E9E72C4B98470300827A002046
S11326B0212AE2D1274A5288120A212A13D0D97B2F
S11326C000209142D9D1234A9460197C09331B7AA2
S11326D01B020B43D088191C9BB2834200D9011CF6
S11326E091810120C9E71B4A1900093191605B7A85
S11326F0D088191C9BB2834200D9011C918101200E
S1132700BBE7144B9D6001229A810120B5E7114B70
S1132710996001229A810120AFE70E4A52780A2A71
S113272006D00B2A0AD00020092AA6D19847A4E78C
S1132730084B5B881B0A2B7001209EE7054BDB8846
S11327400020002B00D098E7024B5B880B7001300F
S113275093E7C04690080020F928000010B5114BFB
S11327601B681A689478D3781B022343D218037821
S1132770C018904210D24378042B0FD08B420AD059
S11327800378C018904205D24378042B08D08B42BA
S1132790F6D100E0002010BD0020FCE70020FAE79D
S11327A00020F8E7F802002010B5034B5B887F2077
S11327B01840024B984710BD90080020895B000028
S11327C070B5194B1B780022002B29D0174B1B68BE
S11327D01B681C79844223D9154A13609A78DC78E3
S11327E0240214431C19A3421CD20025012607E02D
S11327F00F4A13600FE01A789B183500A3420CD2DD
S11328005A78042AF7D19A788242F4D1DA788A4243
S1132810F1D1002DECD1012202E0054A136000221F
S1132820100070BD0022FBE7F4020020F802002033
S1132830FC020020F0B5C64600B504000021134B8D
S11328409847051E03D1280004BC9046F0BD104BE8
S11328501B685B68A200D3589846DB689847010060
S113286020000A4B9847051EEDD00A4B1C680A4EFF
S11328700A4F05212000B047041E02D08078B847D3
S1132880F7E743465B689847DDE7C046C127000089
S1132890F8020020FC0200205D270000D156000051
S11328A0F8B505000F4B9847002819D00E4B1C684B
S11328B00E4E0F4F05212000B047041E09D00379A6
S11328C0427912021A43C1788078B8470028F1D1BE
S11328D006E0084B1B685B68AD00EB581B68984723
S11328E0F8BDC046C1270000FC0200205D2700009F
S11328F029570000F8020020014B18687047C046B1
S1132900FC02002010B5014B984710BD395C000053
S113291070B5124B1B78002B11D0114B1B681B6830
S11329201B79002B0BD000240E4E0D4D2000B04718
S11329300134E4B22B681B681B79A342F6D8002249
S1132940064B1A70084B1B889B0703D40022064BC6
S11329501A8070BD054B9847F8E7C046F402002082
S1132960F802002035280000EC02002099790000CC
S113297070B50E4B1B78002B17D00D4B1B681A68D3
S11329801279002A11D00024094D06E00134E4B282
S11329902B681A681279A24207D95B68A200D3583F
S11329A01B69002BF2D09847F0E770BDF4020020B9
S11329B0F8020020F8B5B64B00229A811A615A61D8
S11329C01B785AB2002A13DB60221A4200D1D7E0E6
S11329D0AF4B1A781F231340012B00D18EE1AC4B6F
S11329E01A781F2313400020022B00D1DFE1F8BD29
S11329F0A74AD2880020002AF9D060211942E7D1E1
S1132A001F210B4008D1A2494978062923D008295F
S1132A1000D184E0002917D0012B00D187E0022BDC
S1132A20D6D19B4B5B780020002B00D02BE1022AEF
S1132A30D5D1974B1879974B9847974B188002211B
S1132A401800964B9847FDE0022AC8D102319448F9
S1132A50924B9847F6E08E4B5A88130A022B23D0E8
S1132A60D9B202290FD9032B34D00F2B00D09CE10B
S1132A708C4B98680028B2D08378C1780902194336
S1132A80864B984707E0012B00D08EE1854B1868F0
S1132A900178824B98477E4BDA889B89934200D811
S1132AA0D0E07B4B9A81CDE0D2B27E4B1B685B7C3D
S1132AB0934200D893E77B4B5B68D200D05883786D
S1132AC0C17809021943754B9847714B9B680222E0
S1132AD05A70E0E7FF231A40012A1DD0002A16D0BD
S1132AE0022A00D074E7704C0921704A0232002394
S1132AF0E05C108001330232D8B28842F8D3490036
S1132B0002316A48017089B2644B9847C3E70421D3
S1132B106748624B9847BEE7664C1621E5E7012AF1
S1132B2000D05CE7012164485C4B98478AE058492F
S1132B3049780A2900D072E7012A00D0DEE05E4B12
S1132B401B78002B00D1D9E0514B1C795B4B1D68DD
S1132B502B681B79A34200D8D0E000212000584BF9
S1132B609847002800D133E76B68A400E358DB687A
S1132B709847544B187001211800484B984761E05E
S1132B801F22134072D1424A5278032A5CD0D1B238
S1132B9003293BD9052A4DD0092A67D13C4BDB8850
S1132BA0002B00D01BE7484B9847002800D10FE7C3
S1132BB0374B9A783B4B1B685B7C9A4200DD07E7F6
S1132BC0424B9847324B9B783B4A1370002B39D0C9
S1132BD03F4A94466344DB00324A5268D318374A6A
S1132BE013601B681B79002B2CD00024394D160070
S1132BF000212000A847002800D1E9E60134E4B20E
S1132C0033681B681B79A342F2D81BE0012A2DD13B
S1132C101F4BDB88002B00D0E1E61D4B5B88012BAA
S1132C2000D0DCE61E4A138802218B4313802A4B12
S1132C30984707E0164BDB88002B00D0CFE6274AE5
S1132C40134B1A610120D2E6114BDB88002B00D014
S1132C50C5E60F4B5B880020012B14D1104A138862
S1132C6002210B4313801E4B9847EBE7012B39D00D
S1132C70022B00D0ACE6064B5B78012B74D0032BFF
S1132C8000D180E00020002800D0B0E6A0E6C046D5
S1132C909008002031580000EE020020A95B0000DB
S1132CA0EC0200207400002018010020CC00002059
S1132CB0FC00002000010020F4020020F8020020A3
S1132CC0C1270000F0020020995B000011290000D8
S1132CD0FFFFFF1FA128000099790000A927000029
S1132CE08D790000464A52780B2AC1D1444BDB88C7
S1132CF0002B03D1434B1B78002B27D1414B1B786E
S1132D000020002B00D172E63D4B1C793E4B1D6820
S1132D102B681B79A34200D869E6002120003B4BB5
S1132D209847002800D15AE66B68A200D558EB6892
S1132D30984701002000354B9847002800D14EE603
S1132D40AB689847002800D051E648E62C4B1D7923
S1132D505C8828002E4B9847002800D138E6E1B261
S1132D6028002C4B98478EE7254BDB88002B00D09E
S1132D7035E6234B5B88002B00D030E6204B1879D6
S1132D80254B98477FE71E4BDB88002B00D026E6B7
S1132D901B4B5B88002B00D021E6194C20791F4B7C
S1132DA0984720791E4B98476DE700206BE7154B39
S1132DB01B78002B00D11AE6134B1B681A68127992
S1132DC0002A1AD00025114E0F4F5B68AA00D45870
S1132DD0E368984701002800B047002800D106E6C0
S1132DE0A3689847002800D001E60135EDB23B689E
S1132DF01A681279AA42E8D8F9E50020F7E5C04636
S1132E0090080020F4020020F8020020C1270000EE
S1132E1035280000A12800007559000085560000DF
S1132E20455800000C4B1B68002B06D1EFF31083B0
S1132E30002B07D00022094B1A70074A136801338C
S1132E401360704772B6BFF35F8F0022044B1A7091
S1132E500132024B1A70F0E7000300200403002043
S1132E6022010020084B1A68013A1A601B68002BE3
S1132E7009D1064B1B78002B05D00122044B1A7094
S1132E80BFF35F8F62B67047000300200403002085
S1132E902201002010B5002200230270427000219C
S1132EA04280017103760262C26182600373C024AE
S1132EB06401C481037443748374C37403752A2442
S1132EC0035543758375063C0355C2840285C17559
S1132ED02B23C1540133C15410BD0000F0B5D646B4
S1132EE04F464646C0B596B0070016000160CB4A6F
S1132EF0106A80235B02034313620B780520DB070F
S1132F0005D516B01CBC90469946A246F0BD0B7878
S1132F1017309B07F5D473783B71002B04D1C04A5A
S1132F20136C04210B4313643B68984633786A4658
S1132F30137069461E20BB4B98471E20BA4B984716
S1132F402C23F25C002A54D0013BF55C337BEB1854
S1132F50DBB2D118C9B28B4221D25219D3B29946ED
S1132F60B24B9A4603E00135EDB2A94517D00F24C0
S1132F702C40337BE4185022AD4902A8D047132CCF
S1132F80F1D8A40002ABE05801A900234B70CB7028
S1132F908B7001330B70C0B2A64B9847E3E7F489FA
S1132FA05022A34902A8A14B9847132C13D9737D2F
S1132FB09B00DBB242461370B37DDB01727813438E
S1132FC0DBB2424653703379342B00D978E19B004D
S1132FD0994AD3589F46A40002ABE05801A90023A4
S1132FE04B70CB708B7001330B70C0B2914B984710
S1132FF0DDE7347B50228E4902A88C4B9847132C72
S113300015D9F48950228A4902A8884B9847132C71
S1133010CDD8A40002ABE05801A900234B70CB70BB
S11330208B7001330B70C0B2824B9847BFE7A4008A
S113303002ABE05801A900234B70CB708B700133B5
S11330400B70C0B27B4B9847DBE7042310240221AA
S11330501AE0717C337C102416E00623102401212D
S113306012E00823102400210EE000233024002164
S11330700AE000232024002106E00023002400218C
S113308002E0022310240121090170220A401343A3
S113309042469370F37D17203F2B00D931E7D3705C
S11330A03A68537E5BB2002BFBDBF37C72881343DC
S11330B02422B25CD2001343327D92001343B27CCB
S11330C052001343234342469380337E002B20D087
S11330D0102C00D1D6E000D880E0202C00D1B3E041
S11330E0302C16D1F27C002A0AD0F26980321720E3
S11330F0FF2A00D905E7326A8032FF2A00D900E7A7
S11331001720F269FF2A00DDFBE6326AFF2A00DDA0
S1133110F7E639684A7E52B2002AFBDB4246137254
S11331203A68537E5BB2002BFBDBB38B424693833E
S11331303A68537E5BB2002BFBDB338C424613842C
S11331402C23F35C002B05D0013BDBB217200F2BA3
S113315000D9D6E62B22B15C17200F2900D9D0E67E
S11331603868427E52B2002AFBDBF289307B02438C
S1133170B068024309050A431B0413434246136122
S11331802A23F35C13750F2393751533F35C002B1B
S113319012D0F38C294A1720934200D9B1E6424653
S11331A09384328D80231B01D31824499BB28B4214
S11331B000D9A6E64346DA84214B1B685B01E02272
S11331C0D20013401F4A516849011268D20E0A43C3
S11331D0D2B2134342461385002092E6002C98D1C4
S11331E0F27C002A0FD0F269802109018C466244E6
S11331F0124917208A4200D983E6326A62440F4991
S11332008A4200D97DE60D4A1720F169914200DD1A
S113321077E6316A914200DD73E67AE70004004004
S11332200008004035440000A9430000DDBC000054
S1133230B4BF00002D450000E0BE0000FF0F0000F9
S11332402460800020608000F27C002A0FD0F269A4
S1133250802189008C4662441A4917208A4200D989
S11332604FE6326A624417498A4200D949E6154A50
S11332701720F169914200DD43E6316A914200DD95
S11332803FE646E7F27C002A0FD0F269802109026A
S11332908C4662440C4917208A4200D931E6326ACE
S11332A0624409498A4200D92BE6074A1720F1698A
S11332B0914200DD25E6316A914200DD21E628E7EE
S11332C017201EE6FF030000FFFF00000368D87903
S11332D0C009704700230370012242708370037198
S11332E04371C37083717047F0B5C64600B582B0B0
S11332F0050014000160274A106A8023DB0203439F
S113330013620B781C209B0703D502B004BC9046C3
S1133310F0BD0B781738DB07F7D401A9E3780B70FD
S11333201C301D4B984721201C4B984700266B46A8
S11333305E70DE7001236A4613709670694602203F
S1133340174B98472B68984663782B71AE71A37915
S11333505A1E93419B002678A278002A01D00422A9
S113336016432279002A01D0102216436279002ADA
S113337001D008221643DBB242461370094F2800DD
S1133380B8470028FBD1F6B243465E7023786B71D0
S1133390BBE7C0460004004035440000A9430000D8
S11333A02D450000CD32000070B504000668737826
S11333B0027913437370094D2000A8470028FBD1FC
S11333C033780222134333706379002B04D1044A07
S11333D0136C04210B43136470BDC046CD3200004E
S11333E00008004070B504000668054D2000A84799
S11333F00028FBD1337802229343337070BDC0465A
S1133400CD32000070477047704700001723002A30
S113341001D0180070478B00064A9B58002B03D03C
S1133420834205D01D23F4E7890088500023F0E788
S11334300023EEE7380600201723002901D01800E6
S1133440704700221F2800D8024A01238340D3601A
S11334500023F4E70018004070B50022104B1A70E6
S1133460002310491F25104E0D4C0AE00D4908E0B9
S113347023780133DBB223700F2B10D800211F2BCC
S1133480F4D9280018400122824008691042EFD084
S11334900A619B009B59002BEAD09847E8E770BD6E
S11334A0350600200018004038060020044A13782E
S11334B002210B43137053785BB2002BFBDB704784
S11334C00018004000B583B0124A936940210B43B1
S11334D0936101A900230B7005200F4B9847052029
S11334E00E4B98470E4A137801210B4313705378FF
S11334F05BB2002BFBDB0B4B19004031002204C3F1
S11335009942FCD11022084B1A60084B984703B02B
S113351000BDC0460004004035440000A94300003B
S1133520001800403806002000E100E0AD3400003F
S113353000230360436001220272427283720233E9
S1133540C3727047F0B583B005000C0001A90023D5
S11335504B70CB7023790B70237A8B702078154BCA
S1133560984700201F2D00D8134807222A409200B4
S1133570E77AA37A002B01D008231F43EB089B00B2
S1133580C31899690F269640B14397403A000A43FD
S11335909A61637A002B06D143690122AA409343BE
S11335A0436103B0F0BD42690123AB40134343615F
S11335B0F7E7C0462D4500000018004000B583B071
S11335C001AB80221A700A785A704A789A708A7805
S11335D0DA701900014B984703B000BD2D45000077
S11335E001680722CB691A42FCD17047F0B5C64680
S11335F000B582B007000D00160039600800674B63
S11336009847674A116A841C0123A3400B43136241
S113361001A9337B0B701430C4B22000614B98476E
S11336202000614B9847307B0021604B98472B6802
S11336301C209B0703D502B004BC9046F0BD2B6848
S11336401738DB07F7D43868544B9846984704007A
S11336505749584B9847A400574BE75000233B76F3
S11336607B7600247B83BB832522BC543B621433CA
S11336702B603D682800C04780236A46137054704D
S113368001239370D470F069346A002870D06B46BB
S1133690187002236A465370000CC0B26946474B47
S11336A09847002C69D06B461C7002236A465370FD
S11336B0240CE0B26946414B9847B38AFB80F38AF5
S11336C03B81337E8022002B04D13D4B9B789B07AA
S11336D0DB0FDA013369B1680B4313432422B25C74
S11336E0002A02D08022D2051343B26A13432C224B
S11336F0B25C002A02D08022120513432D22B25C50
S1133700002A02D08022120413432E22B25C002A23
S113371002D08022D20313432A6813432B608023F0
S11337205B006B60FA27BF0033685F437B009846F9
S1133730308E244C60432449244B98470A30784304
S1133740201A404401384146214B98470400402048
S1133750FF2C00D96FE77368FA21C90059431D4B48
S1133760C8181A4B98470138FF280CD9402062E743
S113377000212800184B984789E701212800164B9F
S1133780984704008FE70004FF231B041840FF231D
S113379023401843E86000204DE7C04691410000F3
S11337A00004004035440000A9430000CD3F000060
S11337B0E93B0000CD410000780600202D450000C3
S11337C000200041006CDC0200CA9A3B298D0000F5
S11337D03D8E0000FF6BDC021940000003681A7E76
S11337E0920707D502221A765B8B9B074120DB17D1
S11337F0184070475A8B520706D55968C022920266
S11338000A435A601820F4E70020F2E730B5026852
S1133810002301240225117E21420BD1117E29426D
S113382006D101339BB201899942F4D8122002E0F7
S1133830002000E0002030BD10B5046862688023D9
S1133840DB02134363606162024B984701232376D2
S113385010BDC0460D380000F0B5DE4657464E4652
S11338604546E0B583B00600894605684C882B6858
S11338701B01DB0F9A464B7A002B23D16B68514A0C
S113388013406B604B461B7A002B1FD14B461B88A1
S11338905B004A46527A92031343012213436B623C
S11338A03000494B984701906B68464A13406B605F
S11338B0002834D0019803B03CBC90469946A246F7
S11338C0AB46F0BD897A414B9847D7E74B461B88F6
S11338D05B004A46527A9203134380221202134336
S11338E06B623000384B984701906B68354A13403F
S11338F06B600028DED13000354B984701900028DA
S1133900D8D14B461B881B0A782213435B004A46D6
S1133910527A920301210A4313436B62C0E73000D9
S11339202B4B984701900028C4D1013CA4B2804697
S1133930284B9B4615E0012C20D03000264B98479D
S113394043465F1CBFB22823EB5C4A46526841469B
S1133950535430001C4B9847013CA4B2002815D1A5
S1133960B8465C4514D06B8B9B0627D5F37A002BA5
S1133970E3D05346002BDED1002CDED16A688023CD
S1133980DB0213436B60013CA4B2EAE7B846019042
S1133990B37A002B09D130000F4B98472823EA5CF7
S11339A04B465B6841465A5484E730000A4B9847BB
S11339B06A68C0239B0213436B60ECE741230193C5
S11339C078E7C046FFFFFBFF0D38000039380000E0
S11339D0DD370000FFFF0000E1350000F0B5DE46F2
S11339E057464E464546E0B583B006000F000568CD
S11339F04C88324B98477B7A002B1DD16B68304A38
S1133A0013406B603B7A002B1BD03B885B007A7AB7
S1133A10920313438022120213436B623000294B3A
S1133A2098470190002813D0019803B03CBC9046FD
S1133A309946A246AB46F0BDB97A3000224B98476E
S1133A40DCE73B885B007A7A920313436B62E5E719
S1133A5030001E4B9847031E0190E5D1A046002478
S1133A6020339946154B9B46164B9A46444515D030
S1133A706B8B4A4613421DD03000D8477B681A5DD1
S1133A802823EA543000D047002806D16B8B013438
S1133A905B07EBD51E23019300E00190B37A002B62
S1133AA0C2D03000054B98476A68C0239B02134379
S1133AB06B60B9E741230193B6E7C046E1350000E6
S1133AC0FFFFFBFF0D38000039380000DD37000030
S1133AD010B5838B9BB20522002B01D0100010BDC2
S1133AE083720133C372024B98470200F6E7C04663
S1133AF05938000010B5838B9BB20522002B01D0EE
S1133B00100010BD01338372C372024B9847020048
S1133B10F6E7C046DD39000001680722CB691A4286
S1133B20FCD1704770B5040006683268458B838BFE
S1133B30ED1AADB2838B013B9BB2838313011DD578
S1133B40C37A002B03D0838B9BB2012B10D0A38BA1
S1133B509BB2002B02D1A37A002B1CD12000124B64
S1133B609847236A5D192823F35CDBB22B7070BD80
S1133B7072688023DB0213437360E8E7C37A002B87
S1133B80E5D0838B9BB2002BE1D172688023DB02EA
S1133B9013437360DBE72000034B98477268C0232C
S1133BA09B0213437360D9E7193B000070B504000E
S1133BB005686B8B5B0703D51E222523C25470BD99
S1133BC0468B838BF61AB6B2838B013B9BB28383FD
S1133BD0044B9847236A9E193378DBB22822AB54EE
S1133BE0EDE7C046193B000070B58000754BC45822
S1133BF025682B681B01DA0F637E267E1E40638BCB
S1133C009BB2002B03D1A38B9BB2002B23D1638BDC
S1133C109BB2002B08D0A38B9BB2002B04D125337D
S1133C20E35C052B00D16DE0638B9BB2002B24D0A9
S1133C30A38B9BB2002B20D06B8B9B0600D581E01D
S1133C40002A04D0A38B9BB2012B00D17AE041223D
S1133C502523E25411E02B7EDB0733D501232B7699
S1133C606B8B9B0702D541222523E254A38B9BB285
S1133C7063832523E35C052B38D0638B9BB2002B35
S1133C8007D0A38B9BB2002B03D12533E35C052B18
S1133C9064D02523E35C052B13D02523E35C002BA0
S1133CA00FD003232B7500236383A3832533E35CA5
S1133CB0412B03D0A37A002B00D075E0730700D505
S1133CC07BE070BD6B8B5B07D0D518222523E254B3
S1133CD00023A383A37A002BC8D020003A4B984733
S1133CE06A68C0239B0213436B60BFE71F33E35C26
S1133CF0002B03D02000354B9847BEE72000344BFF
S1133D009847BAE71F33E35C002B00D08CE70333FA
S1133D102B750023638325330022E254A37A002BFE
S1133D2007D101232B76F307A7D5E3682000984732
S1133D30A3E72000244B98476A68C0239B021343DF
S1133D406B60F0E72423E35C002B03D12000204BBD
S1133D50984792E720001D4B98478EE71F33E35C9A
S1133D60012B96D12B7E9B0701D502232B760323AF
S1133D702B750023638325330022E254B30703D554
S1133D802423E35C012B0BD0F30700D481E7242325
S1133D90E35C002B00D07CE7E3682000984778E7D9
S1133DA023692000984774E72000074B98476A6806
S1133DB0E023DB0213436B6080E7636920009847CC
S1133DC07FE7C04678060020193B0000253B000031
S1133DD0AD3B000010B5490840230024814202D2C3
S1133DE0180010BD1C00091A631C9BB28842F9D943
S1133DF04023FF2CF4D814800023F1E7F0B5DE460D
S1133E0057464E464546E0B589B00C00059212AAC5
S1133E10117805004D434022A54207D9100009B08E
S1133E203CBC90469946A246AB46F0BD002B55D10A
S1133E30020008000021634DA8478346260000279E
S1133E400023002400930194002200233F2020211A
S1133E508C461F390296039714E06446241A0D0019
S1133E60E540A84615E0029C039D121BAB414D465C
S1133E70009E019F35433C0046463443009501941F
S1133E8001381DD3202464420419E6D40D00A54052
S1133E90A8460C008440A14692185B4114001D0002
S1133EA046465F463E4203D00E00264332002B00B6
S1133EB0029C039D9D42E3D8D5D19442E0D8D2E739
S1133EC00022012300980199121A8B411900130C46
S1133ED00A041A43059B1A8000229FE70022012B43
S1133EE0F8D1630F0493E30098460A0000230021ED
S1133EF0344CA04704000D0000239C460693203355
S1133F009B4601266346079348E05946C91B300087
S1133F10C840824610E000980199121A8B41029918
S1133F20484601430291013F25D320214942791893
S1133F30EBD43000884082463100B940894692185B
S1133F405B411000190044464D462C40A44654469B
S1133F50049D2C40A246644655462C4303D03400AD
S1133F60044322000B00009801999942DBD8D2D176
S1133F709042D8D8CFE7009C019D0299079A8B1AEA
S1133F80DB0811498B4214D9069B0133DBB21900BB
S1133F900693130001330793082908D000230293E2
S1133FA0002200233F21009401950F00BDE7402229
S1133FB034E740220699082900D12FE74A031A431F
S1133FC088E7C0460D910000FF1F000010B582B0C5
S1133FD004000E4B1B78002B07D0002905D10B4B96
S1133FE05B78834210D01D200CE001A90C701320D3
S1133FF0074B98471320074B9847044B5C700122EA
S11340001A70002002B010BD0020FBE70803002056
S113401035440000A9430000404B984231D00AD9EE
S11340203F4B98424DD03F4B98425AD03E4B98421A
S113403037D0002070473D4B98420CD03C4B9842FF
S1134040F7D1012917D000295DD0022915D0032901
S113405015D00020EEE7012907D0002951D002290C
S113406005D0032905D00020E4E73248E2E73248CE
S1134070E0E73248DEE73248DCE73248DAE7324844
S1134080D8E7012907D000293FD0022905D0032908
S113409005D00020CEE72D48CCE72D48CAE72D48AF
S11340A0C8E7012907D0002931D0022905D0032906
S11340B005D00020BEE72848BCE72848BAE72848CE
S11340C0B8E7012907D0002923D0022905D0032904
S11340D005D00020AEE72348ACE72348AAE72348ED
S11340E0A8E7012907D0002915D0022905D0032902
S11340F005D000209EE71E489CE71E489AE71E480C
S113410098E71E4896E7032094E71D4892E71D4868
S113411090E71D488EE71D488CE7C046001000421A
S113412000180042001C0042001400420008004233
S1134130000C004203000500030006000300070012
S11341400300010003001E0003001F000300090018
S113415003000A0003000B00030011000300120017
S11341600300130003000D0003000E0003000F0002
S113417003001700030018000300190003000400E3
S1134180030008000300100003000C0003001600E5
S113419030B587B00B4B6A4632CB32C232CB32C217
S11341A0009B83420BD001239A00694652588242F5
S11341B006D00133062BF7D1002007B030BD002311
S11341C0D8B2FAE704C0000070470000F0B50A4B0B
S11341D01B78002B0CD1094F094E0A4D0024DE51E7
S11341E05A1914600433182BF9D10122024B1A70A6
S11341F08000024BC150F0BD0A0300200C030020D4
S1134200C94100007806002000B583B009236A463E
S1134210137001335370013393700133D37001333E
S1134220137101335371034B98476B46185603B00F
S113423000BDC0469141000010B5024B1B68002030
S1134240984710BD0C03002010B5024B5B68012099
S1134250984710BD0C03002010B5024B9B68022048
S1134260984710BD0C03002010B5024BDB680320F7
S1134270984710BD0C03002010B5024B1B690420A5
S1134280984710BD0C03002010B5024B5B69052054
S1134290984710BD0C03002010B5082803D88000EF
S11342A0184B1B589F4600202BE0174B186928E039
S11342B0164B1B6A9B059B0F1548D84021E0124BF7
S11342C058691EE011491022CB681A42FCD00E4BEB
S11342D01B685B0701D40F4813E000200E4B98477E
S11342E0094B9B681B041B0C58430AE05023074AE4
S11342F0D35C00205B0704D5034BD86801E0802021
S1134300000210BD1CC0000024030020000800406F
S113431000127A00006CDC025144000070B5040005
S11343201A4A53785BB2002BFBDB194B9847194BA5
S11343301C70164A53785BB2002BFBDB134E70687B
S1134340C004C00E144B98470500124B1C707668CD
S1134350F602F60F114B1C700C4A53785BB2002B1B
S1134360FBDB0A4B9C682402240C0D4B9847002E5F
S113437007D1012C07D9210028000A4B98470500D2
S113438001E00134E540280070BDC046000C004047
S1134390252E0000040C004099420000080C004047
S11343A0652E0000298D000010B50400064B9847C7
S11343B0064B1C70064A53888021C9010B43538065
S11343C0044B984710BDC046252E0000020C004047
S11343D0000C0040652E000010B504000F4B9847F8
S11343E00F4B1C700F4A53881B05180F53880E4936
S11343F00B40538053880D490B4053801100802299
S1134400D2014B881342FCD106494A88030206486C
S1134410024013434B80064B984710BD252E0000E5
S1134420020C0040000C0040FFF0FFFFFFBFFFFF45
S1134430652E000010B50C7824020443024B984703
S1134440A4B2024B5C8010BDD9430000000C0040B4
S113445010B50400064B9847064B1C70064B5C884D
S11344602405240F054B98472000054B984710BDA1
S1134470252E0000020C0040000C0040652E0000B8
S11344801D43000030B5D378002B35D11378802B31
S113449029D01B0680246402234354780225AC43AC
S11344A006D19478002C20D18024A40223434160B7
S11344B05478013C012C1CD90D042D0CA024E405D6
S11344C02C431C4384620D0CD02424062C431C432F
S11344D08462D478002C22D15B031CD59378012B01
S11344E01ED0416117E00023D7E7C024E402234330
S11344F0DDE70D4C2340DFE741600C04240CA023CE
S1134500DB05234383620C0CD0231B062343836205
S1134510D378002B03D15378013B012B02D930BD52
S11345208161F8E78160FAE7FFFFFBFF10B50A003D
S1134530C1090023002904D14309DB0105498C4644
S113454063441F242040012181401800024B9847F6
S113455010BDC046004400418544000010B5014B25
S1134560984710BDC5340000094B98420CD0094B44
S1134570984207D0084A0023904201D0180070479F
S1134580023302E0012300E00023DBB2F6E7C04679
S1134590002000420024004200280042F8B50F0029
S11345A015001E0004682000134B9847134B1A5C37
S11345B01723BA4201D81800F8BD8000104BC25826
S11345C01723AA42F7D3002E0AD080221203BA403E
S11345D0A3681A42FCD11C37BF003D510023EAE70F
S11345E080225200BA40A3681A42FCD11037BF009F
S11345F0E41965600023DEE7694500004CC0000053
S113460054C0000010B5040008004F4B9847002325
S1134610236080004D4A82586260A372E372237360
S113462063722372E36123626362A3622375637519
S1134630A375E3752376637623746374A374E374B8
S11346402C22A3540132A3540132A3540132A354A3
S11346500132A3540132A3540132A3540132A354AE
S11346600132A3540132A3540132A3540132A3549E
S11346700132A3540132A3540132A3540132A3548E
S11346800132A3540132A3540132A3540132A3547E
S11346900132A3540132A3540132A3540132A3546E
S11346A00132A3540132A3540132A3540132A3545E
S11346B00132A3540132A3540132A3540132A3544E
S11346C00132A3540132A3540132A3540132A3543E
S11346D00132A3540132A3540132A3540132A3542E
S11346E00132A3540132A3540132A3540132A3541E
S11346F04132A354A365A3670132A354E365E3677E
S11347000132A35423661A3AA3501B32A35463669E
S1134710173AA3501832A354A366143AA35015327F
S1134720A354E366113AA3501232A35423670E3AFA
S1134730A3500F32A35463670B3AA35001210C32E8
S1134740A1540132A35410BD6945000054C00000B7
S1134750F0B5DE4657464E464546E0B591B0019069
S11347600C0015000800C34B984703000100C24821
S1134770026A9E00C14FF7593A43026222681C2024
S1134780920706D511B03CBC90469946A246AB466A
S1134790F0BD226801271740F4D1B94832581720D8
S11347A02E68B242EED36E68B242EBD3E86982421D
S11347B000D2B9E1286A824200D2B7E1686A824233
S11347C000D2B5E1A86A824200D2B3E198229446AD
S11347D0AC4462460892002003E00130013208280C
S11347E008D01678002EF8D0A64E765C8642F4DC0B
S11347F01720C7E70022029280204004844602E08A
S11348000132042A0ED0A818007C0128F8D19E4851
S1134810405C904200DA8FE160469040029E06437D
S11348200296EDE79D32AA5C002A04D08022120190
S11348300299114302912A7A511E8A4192000692EA
S11348406A7A012A22D0904AD25C1100059235225C
S1134850AA5C8A4200D379E12C21695C0F2900D932
S113486074E1287B0A90E87A0B902D208246AA44B2
S1134870002004970EAE0796C0263601B146844642
S1134880A046280055460993824635E0069911430F
S11348900691D8E792024F463A400A4319798B466B
S11348A003215F4639400A4316435A795201602175
S11348B00A40324399790902C026B6000E401643D5
S11348C0DA791203E021C9010A4016433443039AFA
S11348D014432043624607995050042A2AD09A7CF4
S11348E00599914200D831E1597A0A3504239B464F
S11348F0DC440F2900D929E10906F0231B051940DE
S11349002B002E783604FF200004064068788024AB
S1134910002800D1049C987808270397002801D127
S113492004980390D878834610205F46002FB1D1B5
S11349300498AFE744465546099B524AD25C9146D7
S11349405146503150464130002700220126B246DC
S11349500226FF36B34680267602B046A4461C00E3
S11349604B460FE00678002E07D0934200D8E7E0CC
S1134970022E14D05646964037430132013102309C
S1134980082A10D00E78002EECD0934200D8D5E03F
S11349904646964037430678002EE9D1EDE75E4659
S11349A096403743E9E79946230064466A7E12013C
S11349B030211140287E072202401143002280202A
S11349C040020E0002E00132042A0BD0A918097D2E
S11349D00029F8D00599914200DCB3E00100914030
S11349E00E43F0E7B246019802000432343000214D
S11349F002C28242FCD10022019842638263990080
S1134A00224A88500460A022A95C643A81540DA90A
S1134A10AA7A0A701E4AD65C30001E4B98473000B2
S1134A201D4B98474B46002B3CDD2E0058369833DF
S1134A309846A84401239946AB464546A046089C9F
S1134A4003E001340436AC422AD02378002BF8D09A
S1134A500CAB4A469A7000230CAAD3701300202290
S1134A60B21812781A704A465A70307819000B4BF3
S1134A709847E6E7694500000004004040C0000094
S1134A8054C0000060C000004CC00000900600202C
S1134A9050C0000035440000A94300002D4500002B
S1134AA044465D460A9B1B030B9A12021343029A67
S1134AB0134323600422A3681A42FCD1FF23237109
S1134AC00422A3681A42FCD16B461B7E63710E9BC1
S1134AD0E3600F9B2361A7611D4AA3681342FCD1C5
S1134AE05346E3631022A3681A42FCD12B68636324
S1134AF0184AA3681342FCD16B6823640598002804
S1134B0022DD1C350021144E32008A40A3681A426B
S1134B10FCD104CD0B0010339B00E3185A60013123
S1134B208842F1DC00202DE617202BE6172029E629
S1134B30172027E6172025E6172023E6172021E66D
S1134B4017201FE617201DE600201BE6172019E694
S1134B5040000200800004000001080010B53C235E
S1134B60C35C014CA04710BD9D450000F0B5C6468E
S1134B7000B580000E4BC7583B68DE6ABB6B7A6B8E
S1134B8013401E4000240B4B984602E00434302CA2
S1134B900AD04346E5583542F8D03B195B683800E3
S1134BA098473B68DD62F1E704BC9046F0BDC0461F
S1134BB09006002064C0000010B50020014B984707
S1134BC010BDC0466D4B000010B50120014B984745
S1134BD010BDC0466D4B000010B50220014B984734
S1134BE010BDC0466D4B0000931C9B001950022A57
S1134BF009D0032A0CD0012393401A00037E1343E7
S1134C00037600207047037E102213430376F8E7EF
S1134C10037E202213430376F3E7000070B580007F
S1134C20194BC45823689D7B227E637E13401D402C
S1134C30EB070CD4AB0711D423689D7B227E637EE3
S1134C4013401D40EB0610D4AB0615D470BD2000F4
S1134C50A3689847012322689373EBE72000E36875
S1134C609847022322689373E6E720002369984754
S1134C70102322689373E7E7200063699847236849
S1134C8020229A73E2E7C0469C06002010B500205B
S1134C90014B984710BDC0461D4C000010B50120C3
S1134CA0014B984710BDC0461D4C000010B50220B2
S1134CB0014B984710BDC0461D4C000030B585B06F
S1134CC001AA0B4B32CB32C2019B98420DD0029BFE
S1134CD0984208D00023039A824202D0180005B0FB
S1134CE030BD023302E0012300E00023DBB2F5E72C
S1134CF094C00000F0B587B004000D001600080051
S1134D00854B9847070005AB1B221A7001325A7075
S1134D109A7003AB802212011A80802252015A80B9
S1134D20802292019A800023A360E360236163617F
S1134D30237663768200794BD4502560B378082BB0
S1134D4006D023712B880520DB0705D507B0F0BDFD
S1134D501720FA07FAD5F4E7EB7B1730DB06F5D416
S1134D602B889B07F2D4337C002B79D1337F002B23
S1134D7000D081E06A49086A7A0003ABD35A03433E
S1134D800B62B378082B00D186E001A933780B704D
S1134D9005ABDF5D3800634B98473800624B98479A
S1134DA03189B3880B43B178B279114319437378CD
S1134DB0002B02D080231B0119432268D37B5BB2F2
S1134DC0002BFBDB2980717B4B1E99418900B37B4F
S1134DD0002B01D0012319432268D37B5BB2002B43
S1134DE0FBDBFF232B71002905D02268D37B5BB248
S1134DF0002BFBDB6971B17AF37A002B01D010230D
S1134E001943337B002B01D0202319432268D37B21
S1134E105BB2002BFBDBA9712268D37B5BB2002B56
S1134E20FBDB2379042B3FD0082B5ED01720002B0B
S1134E3000D08BE7D37B5BB2002BFBDB338D2B8263
S1134E402268D37B5BB2002BFBDB738D2B83226840
S1134E50D37B5BB2002BFBDBB38D6B83002075E748
S1134E6002A901238B700022CA70327E0A704B7033
S1134E70307D2E4B984779E702A901238B700022DD
S1134E80CA702432B21812780A704B701F33F318A8
S1134E901878264B98476DE7086A7A1C520003ABD2
S1134EA0D35A03430B6270E7D37B5BB2002BFBDB6B
S1134EB02823F35C2B742268D37B5BB2002BFBDBCF
S1134EC02923F35C2B752268D37B5BB2002BFBDBBD
S1134ED02A23F35C2B762268D37B5BB2002BFBDBAB
S1134EE02B23F35C6B76002030E7D37B5BB2002B83
S1134EF0FBDBB36A2B612268D37B5BB2002BFBDB49
S1134F00F36AAB612268D37B5BB2002BFBDB336BB0
S1134F10EB6100201AE7C046BD4C00009C0600204F
S1134F200004004035440000A94300002D45000062
S1134F300268D37B5BB2002BFBDB0379042B05D027
S1134F40082B0BD01720002B04D07047C9B2117462
S1134F500020FAE789B211820020F6E711610020EF
S1134F60F3E70268D37B5BB2002BFBDB0379042BF2
S1134F7005D0082B09D00020002B03D07047107CEB
S1134F80C0B2FBE7108A80B2F8E71069F6E710B503
S1134F900468E37B5BB2002BFBDB0379042B05D0B5
S1134FA0082B14D01720002B08D010BD172001297E
S1134FB0FBD8D2B261180A760020F6E7172001293F
S1134FC0F3D892B20C3149000A530020EDE71720C0
S1134FD00129EAD8063189000A510020E5E710B515
S1134FE00468E37B5BB2002BFBDB0379042B05D065
S1134FF0082B11D01720002B07D010BD1720012932
S1135000FBD8D2B222740020F7E717200129F4D884
S113501092B222820020F0E717200129EDD8226104
S11350200020EAE710B582B001AB00221A70033207
S11350305A70013A9A70013ADA70224B1B78834213
S11350403DD000281AD001AB1A5C1F4B9B5CFF2B90
S113505000D1FEE7EFF3108372B6BFF35F8F002435
S11350601A490C70184CA15C0131A154002B05D1D4
S11350700122164B1A70BFF35F8F62B6114B1B7877
S1135080002B1AD001AAD25C0F4B9B5C002B00D1E1
S1135090FEE7EFF3108372B6BFF35F8F00240B4972
S11350A00C70094CA15C0139A154002B05D10122DB
S11350B0064B1A70BFF35F8F62B6024B187002B0D2
S11350C010BDC046940300203006002022010020B9
S11350D00F2303405B00C009181802388300181816
S11350E08000014B1818704744030020F0B5D646E1
S11350F04F464646C0B589468D796BB2002B26DBF8
S113510028005E4B984704000F272F40038A9846D7
S11351104B461B889A46837C5B076AD4E3685344F6
S11351201E00E360A3689E4200D874E0E360A37CA1
S113513001229343A3742368002B03D0E1682A005F
S1135140002098471CBC90469946A246F0BD280012
S11351504A4B984704000F272F40038A98464B4632
S11351605E88C3689C466644C66081688E4225D0CA
S11351708D1BADB2424B9D4206D91D00414618001D
S1135180404B98476D1AADB2A27C0023920707D515
S1135190414628003C4B984789B24B424B41DBB215
S11351A05B00A27C02218A431343A37462689219B0
S11351B02B0039003548364CA047C3E7837C9B0756
S11351C00BD4837C0122934383740368002BB9D0EE
S11351D02A00310000209847B4E7837C02229343DD
S11351E0837442689219002339002848284CA04748
S11351F0A8E74368C268944663441E004146806839
S1135200214B98470A007B1E9B0122495918300004
S1135210214B984782E74A469288524500D086E758
S11352209E4200D183E79B1B9DB2154B9D4216D92C
S11352301D0041461800134B98476B1A9BB29845C2
S113524014D9A37C04221343A3747A1E9201114B34
S1135250D218434639000D48104CA04772E7414626
S11352602800094B98476B1A9BB2E8E762689219C9
S113527039000648094CA04764E7C046D1500000F5
S1135280FF1F000009900000358E00002807002051
S11352907D620000A8060020DDBC0000D162000091
S11352A010B50522054B1A70054C80212000054BD2
S11352B0984700212000044B984710BD420300206A
S11352C028070020D1610000F761000070B5084C88
S11352D006212000074DA84704212000A8470221E9
S11352E02000054B98470220044B984770BDC046E8
S11352F028070020115D0000F15C0000255000002B
S113530070B5134B9B8C9B061CD41149D022CB68DF
S11353101340D02BFBD10F4C022120000E4B984799
S1135320042120000D4DA8470D4A062120000D4BF5
S1135330984706212000A84703200B4B98470B4BA6
S1135340984770BD02491022CB681A42FCD0E2E7AC
S11353500008004028070020115D0000F15C0000F7
S1135360CD520000CD5C0000255000005D790000A6
S113537070B582B004001E4B984780232268937254
S113538001AD28001B4B984700266E7029002000B1
S1135390194B984719492000194B9847194B022279
S11353A000212000184DA847184B0022002120009E
S11353B0A847174B012200212000A8470222002100
S11353C02000144DA847002200212000A8470122F4
S11353D000212000A84721680B890F4A1A40802326
S11353E0DB0013430B810D4B1E7002B070BDC04631
S11353F0112900001D5F00002D5F0000A808002097
S113540021630000595500002D5D0000755800000F
S11354105D5400007D5D0000FFF3FFFF42030020A8
S113542010B50322074B1A70074C08492000084B9B
S11354309847084B9A68002300212000064CA04797
S113544010BDC0464203002028070020A808002001
S113545021630000900800207D62000010B5897966
S11354604BB2002B06DB0E4B1B78022B0FD0032B09
S113547011D010BD0A4B1B78012B05D0042BF8D199
S11354800848094B9847F4E7084B9847F1E704228A
S1135490034B1A70EDE70348034B9847E9E7C0460E
S11354A04203002028070020D1610000215400009D
S11354B070B5204B1B88204A9489E41AA4B2002CAE
S11354C018D11E4A11885B189BB213801A4AD288DD
S11354D09A4223D01A4B1B78002B1FD1164B5B69C1
S11354E0002B23D09847002820D00022114B1A808B
S11354F0114B9C89072C19D90022114B1A700824CE
S11355000C4D2B880C4A9268D218230000210D48B8
S11355100D4EB0472B88E4182C8070BD04220B4B31
S11355201A700B4907480B4B9847F6E70122044BC6
S11355301A70E5E73E030020900800204003002095
S11355403C030020280700207D6200004203002065
S1135550A80800202163000010B50C002C4B1B7818
S1135560002B07D02B4B1B69002B00D0984700223F
S1135570274B1A702388082B02D0274B984710BD5D
S1135580244A264B1978117059785170D878000242
S1135590997809185180587900021979091891806D
S11355A0D97909029B795B18D3801D4B9847002851
S11355B016D0184B1B787F2B15D8164BDB88002B85
S11355C022D00023174A1380174A13800122104B5C
S11355D01A700823114A00211448154CA047CEE73D
S11355E00D4B9847CBE700230E4A13800E4A1380D5
S11355F00222074B1A700823084A00210B480C4C5E
S1135600A0470C4B9847BAE70B4B9847B7E7C046FF
S11356104203002090080020A1520000A8080020A6
S1135620B5290000400300203E0300202807002085
S1135630D1620000B15400002154000010B5024BA7
S11356409847024B984710BD712900006979000002
S113565010B5074C04212000064B98470221200076
S1135660054B98470120054B9847054B984710BDBB
S113567028070020115D0000F15C000025500000A7
S11356805179000010B5040001000A480A4B9847FC
S113569020000A4B9847837CDB070AD5837C0122D0
S11356A0934383740368002B03D0C1682200012054
S11356B0984710BD2807002071610000D1500000F8
S11356C0024B1B68188A8004400D7047280700208D
S11356D070B582B0040001AD28000D4B984720003E
S11356E00C4B98472C700023EB700B4E29003000B4
S11356F00A4B98470F21214000223000084B98475D
S1135700002221003000074B984702B070BDC0460C
S11357101D5F000085560000280700202D5F000053
S1135720555D00004D5E0000F0B583B005000F002C
S1135730140001AE3000364B98473570082C13D84E
S1135740002201AB5A702800324B9847048203218F
S11357503940012938D0022943D0002303293DD1FF
S1135760042201ABDA7032E0102C03D8012201AB21
S11357705A70E8E7202C03D8022201AB5A70E2E702
S1135780402C03D8032201AB5A70DCE7802C03D8E9
S1135790042201AB5A70D6E780235B009C4203D8F5
S11357A0052201AB5A70CEE780239B009C4203D8AC
S11357B0062201AB5A70C6E7174A002394420DD85B
S11357C0072201AB5A70BEE7022201ABDA7001A9CD
S11357D01248134B98470023002806D0180003B042
S11357E0F0BD032201ABDA70F1E70F2129400B4C25
S11357F00C4B002220000C4EB04700222900200050
S11358000A4EB047012229002000B0470123E5E7F2
S11358101D5F0000D1500000FF0300002807002096
S11358202D5F0000ED5000002D5D00007D5D000047
S113583010B501000148024B984710BD280700200D
S1135840A761000010B504000F2303400020022BC1
S113585000D910BD21000448044B98472000044B94
S113586098470120F5E7C04628070020D1610000D1
S11358708556000070B5344B1B78012B0AD0022BDF
S11358805FD0324B1B69002B00D0984700222E4B6F
S11358901A7070BD0D882D4B9B892D4A148862198E
S11358A0934201DA1D1BADB2284B986800192A00F7
S11358B02849294B98476419A4B2254B1C80082D0C
S11358C00AD0224B9C815B69002B02D098470028A8
S11358D014D0224B9847DCE71C4BDA88204B1B88FA
S11358E01B199A42EDDD194B9B89A3420CD0082366
S11358F0184A00211B481C4CA047CAE70522124B3A
S11359001A701A4B9847C4E7104B5B69002B0BD0F5
S1135910984700280FD012490D4A0B8810881B188D
S11359200B8000231380E2E70522074B1A70002046
S11359300E4B9847ADE70522034B1A700B4B984763
S1135940A7E70B4B9847A4E74203002090080020E8
S11359503E030020A8080020DDBC00002154000004
S11359604003002028070020D162000045580000B1
S1135970B154000070B504000F2303400020022B33
S113598000D970BD2000094B984705002100084844
S1135990084B9847AB7C0120DB07F2D5AB7C012296
S11359A09343AB742B6898470120EAE7D150000079
S11359B028070020F7610000F0B585B005000391C9
S11359C0029201930F2606400024022E02D92000E1
S11359D005B0F0BD624B9847041E00D0B9E0280022
S11359E0604B98470700EFF3108172B6BFF35F8FE7
S11359F000225D4B1A70837CDB0708D50029E6D1B1
S1135A000132594B1A70BFF35F8F62B6DFE7837CB4
S1135A10012213438374002905D10122524B1A70C9
S1135A20BFF35F8F62B6029B7B60019BBB60002368
S1135A30FB600A9B3B600123039A13405A00BB7C22
S1135A4002218B43134304229343BB746BB2002B98
S1135A5020DB019B002B6FD09CB2444B9C425AD953
S1135A60398A1C001800424B9847631A9AB23B8A41
S1135A709A4257D2BA7C04210A43BA74721E920124
S1135A803C49521831003C483C4CA04744424441F4
S1135A90E4B29CE7019B002B27D09DB2334B9D427F
S1135AA006D9398A1D001800314B98476B1A9DB2EC
S1135AB0BB7C9B0707D5398A2800314B984789B2AC
S1135AC04C424C41E4B2012020404000BC7C022303
S1135AD09C430443BC742B00029A31002648294C91
S1135AE0A04744424441E4B271E7BB7C9B0705D51F
S1135AF0BB7C02229343BB740025ECE7BB7C0122F0
S1135B009343BB740A9B002B25D02A00002100205C
S1135B10984701245BE7398A2000194B9847631A98
S1135B209AB2A4E71300029A31001348134CA04719
S1135B3044424441E4B24AE7BB7C01229343BB7430
S1135B400A9B002B09D02A00002100209847012439
S1135B503DE700243BE7012439E7012437E7C04649
S1135B6031580000D150000022010020FF1F000026
S1135B7009900000A806002028070020D162000038
S1135B80358E00007D620000024B1B6880221043AA
S1135B909872704728070020024B1B68987A4006C9
S1135BA0400E704728070020014B98609981704788
S1135BB09008002070B50320164B9847164C2268B5
S1135BC0138901218B431381144A03312000144E9D
S1135BD0B047144A00212000B047134A0121200095
S1135BE0B047124A02212000B04704212000104D82
S1135BF0A84700212000A84701212000A84702212E
S1135C002000A8470B4A06212000B04706212000A7
S1135C10A84770BD255000002807002051560000F9
S1135C20CD5C00003D56000071530000015300009C
S1135C30F15C0000CD52000070B582B0EFF3108427
S1135C4072B6BFF35F8F0026174B1E7001AD28009C
S1135C50164B9847AE70164E2A0016493000164B64
S1135C6098473000154B9847154B9B8C9B0614D4D2
S1135C701349D022CB681340D02BFBD10120114B08
S1135C809847114B9847002C05D10122064B1A70F6
S1135C90BFF35F8F62B602B070BD09491022CB68B2
S1135CA01A42FCD0EAE7C046220100202569000020
S1135CB028070020005000413569000051630000AE
S1135CC00008004025500000B55B000010B50B0033
S1135CD02E339B001A50AA2252004900835A034CC7
S1135CE0095B0B438352002010BDC046B4C00000C2
