S01D00005553425F4849445F53544152545F4558414D504C452E7372656391
S1130000A8260020A94F0000A54F0000A54F00001E
S113001000000000000000000000000000000000DC
S1130020000000000000000000000000A54F0000D8
S11300300000000000000000A54F0000A54F0000D4
S1130040A54F0000A54F0000A54F0000A54F0000DC
S1130050F11A0000A54F0000A54F0000FD47000065
S1130060A54F0000D5260000E5260000F526000077
S11300700527000015270000252700009130000007
S1130080A1300000B13000005131000061310000A6
S1130090713100000000000000000000A54F0000C6
S11300A0A54F0000A54F0000A54F0000A54F00007C
S11300B00000000010B5064C2378002B07D1054B37
S11300C0002B02D0044800E000BF0123237010BDC0
S11300D00C01002000000000107B000008B5084B54
S11300E0002B03D00748084900E000BF0748036815
S11300F0002B00D108BD064B002BFBD09847F9E735
S113010000000000107B000010010020107B0000A4
S11301100000000040494B681E2293431C3A1343DD
S11301204B603E4A916908230B4393613C4B3D4A23
S11301309A82998A02220A439A82191C0222CB6863
S11301401A42FCD00122384B1A701A1C0121137870
S11301500B4203D053785BB2002BF8DB0122324B05
S11301609A601A1C53785BB2002BFBDB2F4A2E4B90
S11301705A601A1C53785BB2002BFBDB8222D2013B
S1130180294B5A801A1C53785BB2002BFBDB244AA0
S1130190938C80218B439384111C1022CB681A42C8
S11301A0FCD0234A1E4BDA62191C1022CB681A4277
S11301B0FCD01B4A918C1F4B0B439384111C1022BF
S11301C0CB681A42FCD0164A918C02230B439384C9
S11301D080214020D3681942FCD0D3681842F9D05A
S11301E00F491022CB681A42FCD000220E4B9A60B1
S11301F01A1C53785BB2002BFBDB0F4A0A4B5A6084
S11302001A1C53785BB2002BFBDB044B00221A72DE
S11302105A729A72DA72704700400041000400403A
S1130220000800400C060000000C0040010501001D
S1130230B805FF7D040A00000007030008B50A4B57
S11302401B6A1B0406D50948094B984780B2094B21
S1130250188008E00548064B9847064B1B88C01ACF
S113026080B2054B188008BD0044004124020020E0
S113027069340000220200202002002038B506481C
S11302800649074B9847074C0825A5615020064BA3
S11302909847656138BDC04624020020E548000047
S11302A03134000000440041E905000010B584B079
S11302B001AC201C084B98470F230193F0231B0328
S11302C06360022323720133E3720F20211C034B6A
S11302D0984704B010BDC046DD1B0000F11B0000B0
S11302E008B505480F210022044B98470F20002130
S11302F0034B984708BDC0463D020000A51A000004
S1130300D11A0000F0B58FB00DAE01237370002434
S11303100025B47033700320311C294FB8472320C3
S1130320311CB8470822274B5A6134700F20311C06
S1130330B8476B461C709C709C711C8100236A46F4
S113034053709572D572157395735573157405941E
S1130350069415770894099454859485A023DB00AA
S11303609380194B1385194C201C1949194B984734
S113037022687F21D37B8B43FCD1118802330B434A
S11303801380124C201C14490022144B9847144B20
S11303909847144B98472068134B9847134B1B5CA2
S11303A01F2213401E3A111C99400B1C10490B606C
S11303B0617E01230B43637623685A730FB0F0BD4B
S11303C0691C000000440041E548000024020020AC
S11303D0002C0042B93100007D020000C130000051
S11303E0AD020000E102000081310000F876000057
S11303F000E100E070B584B001AB4C221A80598052
S1130400029000221A725A729A72054E054D064CD9
S1130410301C01A9A84720700028F9D104B070BD90
S113042044020020992100006D02002070B590B0B4
S11304300EAD00242C7001236B70AC701720291CA6
S1130440414EB0471620291CB04701AB3F4A0292E7
S113045003941C731C76012252429A8208940994D4
S113046025329C540B9408329C5401329C54013222
S11304709C54A9321A86364ADA82C8225200019262
S1130480C02292030592334E334D344C301C344910
S113049001AAA84720700028F8D12E4B1C68072217
S11304A0E3691A42FCD12268022313432360294DD5
S11304B028682C4B98471F2318401E3B8340181C68
S11304C0294B1860E8880023102105E0013383429A
S11304D002D31023638302E0628B0A42F6D00FAC8E
S11304E00726267050236370201C02211F4DA84745
S11304F00523237000236370201C0221A8470623D0
S11305002370DE336370201C0221A8470823237064
S1130510D8336370201C0221A847092323705F335A
S11305206370201C0221A8470A23237006336370DA
S1130530201C0221A847267051236370201C02212D
S1130540A84710B070BDC046691C0000480D0000EB
S1130550409CFFFF44020020991C00006C02002014
S1130560001C0042A926000000E100E0F5030000A1
S113057030B585B001AA094B13CB13C200236A46D8
S1130580137068460121064B9847064D064C281CFB
S113059001A9A0470028FAD105B030BDFC760000BF
S11305A0F5030000440200207921000010B500206A
S11305B0084B9847084CFA218900A047074B18605C
S11305C0FA218900A047064B18600522054B1A60E2
S11305D010BDC046C5270000C5550000040000201A
S11305E00000002010E000E030B5084B1C68084A09
S11305F000258021490206E0002C04D05460956057
S113060013680B42FCD00138F6D230BD0400002040
S113061010E000E070B582B001AC00232370012625
S11306206670A3700820211C074DA8472A20211CAE
S1130630A84726700E20211CA8478022D201034B14
S11306409A6102B070BDC046691C000000440041BC
S1130650024B186A4005C00F7047C04680440041F1
S1130660024B186AC005C00F7047C04600440041E1
S113067070B5AAB001AC2B4D201C291C2A4B9847FD
S11306800223E372FF2262602376013BE375A375C4
S11306900022A2629F216354923961672348873103
S11306A0605062620A316354923921672048843170
S11306B0605022629932A3540833E3651D4BE3670B
S11306C01D4E301C291C221C1C4B984732680221E9
S11306D093681942FCD1116802230B43136000256F
S11306E06B461D7001265E709D701C206946144C7B
S11306F0A0476B461E7014206946A0471520694622
S1130700A0471B206946A0470E4B802212055A6160
S1130710802252039A61802292039A610A4B1D70CF
S11307202AB070BD00200042C52A000005000D005B
S113073005000C000400090070020020112C0000C8
S1130740691C0000004400412801002030B583B03A
S1130750041C0D1C1F4B1B78002B06D18022120594
S11307601D4B9A6101221B4B1A701C4B1B78A34230
S113077026D001226B461A7001AB9A700021D97001
S11307805A70002C0ED1191C05230B701520144B24
S113079098470D206946134B9847802292010E4BCF
S11307A09A610DE001A905230B700D200C4B9847AD
S11307B0152069460B4B984780229203064B9A6199
S11307C0094803212A1C094B9847044B1C7003B0A9
S11307D030BDC0462801002000440041090000202B
S11307E0D5290000691C0000700200203930000087
S11307F030B583B0041C0D1C1F4B1B78002B06D195
S1130800802212051D4B9A6101221B4B1A701C4B4E
S11308101B78A34226D001216B46197001AB00223C
S11308205A709970DA70002C0ED1191C05230B70C4
S11308301420144B98470C206946134B9847802288
S113084052010E4B9A610DE001A905230B700C2097
S11308500C4B9847142069460B4B9847802252034F
S1130860064B9A61094802212A1C094B9847044BFC
S11308701C7003B030BDC046280100200044004174
S113088008000020D5290000691C00007002002027
S11308903930000008B580221205074B5A61012047
S11308A00021064B984701200021054B9847002260
S11308B0044B1A7008BDC046004400414D070000B7
S11308C0F10700002801002070B5AAB001AC154E54
S11308D0201C311C144B98470723E372FF226260EB
S11308E0FD3A22760021E161013A9820225492389F
S11308F0A0650E48A067216299316254E3650C4BF0
S1130900E3670C4D281C311C221C0B4B98472A68AA
S1130910022193681942FCD1116802230B4313602E
S11309202AB070BD00240042C52A0000040006005D
S113093004000700B0020020112C0000F8B5031CCD
S11309400F1C161C074D281C00211A1C064CA0471E
S1130950064801213A1CA047281C0121321CA0474B
S1130960F8BDC046B00200203930000070020020FB
S113097000B583B06846054B984740236A46137018
S113098003480449044B984703B000BD7D19000097
S1130990F0020020004800429119000010B582B016
S11309A001A80F4B98470F4C201C002101AA0E4BA5
S11309B09847201C00210D4B9847201C0C4B98474E
S11309C001236A465370002269468A700B703720EF
S11309D0084B984780221204074B9A6102B010BD5D
S11309E0991A0000F00200209D1A0000A11A0000CC
S11309F05D1A0000691C0000804400417047C04635
S1130A007047C0467047C0467047C0467047C046EE
S1130A107047C046F8B5051C484B1B680133FF2BD3
S1130A2002DC464A136002E00022444B1A602B7831
S1130A30413BDAB2392A79D89300414AD3589F46C8
S1130A406878A978EA783F4B98476FE03E4B18885E
S1130A5080B23E4C6F213E4B9847207003203D4BA3
S1130A609847607062E03C4A116C02230B431364A4
S1130A703A4B98473A4B98471820364B984780B2E0
S1130A80384B9847384B9847304B1870374B98473A
S1130A904CE0AB78002B04D12B79002B01D1344BE3
S1130AA098476878A978334B9847E8782979324B86
S1130AB098473BE0314B9847314B59781A781143AA
S1130AC09A781143DA780B1C13435B060CD52B4F31
S1130AD02B4C4026B847627823781343A2781343FB
S1130AE0E27813431E42F5D1184B99221A70244A16
S1130AF011785970517899709178D970D2781A71A7
S1130B0014E0204B9847114C20701F4B984760709D
S1130B100CE00A4B1B680D4A13700133FF2B02DCF7
S1130B20064A136002E00022044B1A6000232B7073
S1130B30EB790648C371154B9847F8BD2C0100208A
S1130B40087700003D090000200200203001002049
S1130B50C55500000951000000080040B5510000CF
S1130B60515300001D52000045590000A1500000DF
S1130B70950800004D070000F10700007105000012
S1130B80400200205106000061060000A50C000090
S1130B90002070470A4B5B881A0A0020032A0ED1F2
S1130BA0FC321A420BD1064BDB88042B07D1044BD1
S1130BB0044A9A60044A1A6104229A8101307047F7
S1130BC0580500204C010020850C00000122014B37
S1130BD01A7070475101002010B582B0044B009385
S1130BE002200021034A0823034CA04702B010BD91
S1130BF0310C000038010020253E000008B5002318
S1130C00064A1370064A13700122064B1A70064BEB
S1130C109847002801D0054B984708BD40010020A3
S1130C205001002051010020D90B0000A5550000FF
S1130C3008B5002806D1082902D10348034B984778
S1130C40034B984708BDC04638010020150A000030
S1130C50D90B000008B5014B984708BDB5550000F5
S1130C6010B503480349044A044B054CA04710BD82
S1130C7040010020500100200C000020950B0000D2
S1130C801D0D000008B5044B9B89042B02D10348B9
S1130C90034B984708BDC046580500204C0100206E
S1130CA0C155000030B583B0011C164B18780028DC
S1130CB026D0EFF3108572B6BFF35F8F0023124A7C
S1130CC01370124C23606360201C0822104B984759
S1130CD0104B009381200021221C08230E4CA047B6
S1130CE001235840074B1870002D05D10122064BF3
S1130CF01A70BFF35F8F62B6024B18780123584015
S1130D0003B030BD5101002008010020440100203F
S1130D10D5760000CD0B0000253E000038B5041C3C
S1130D20151C3A4A127850B200284DDA602002406D
S1130D3030D13648407806282CD1354B9847031CCF
S1130D40827A0020212A5FD1304A5288120A212A4D
S1130D500DD12E4A191C093191605B7AD088191C77
S1130D609BB2834200D9011C918101204CE0D97BC4
S1130D700020914248D125488560197C5A7C120292
S1130D800A43C388191C9BB2934200D9111C818168
S1130D90012039E00020202A36D11C4A5278022A48
S1130DA006D0032A0AD00020012A2DD198472BE02F
S1130DB0164B9C6001229A81012025E0134B996017
S1130DC001229A8101201FE0602002400020202A95
S1130DD01AD10E4A52780A2A06D00B2A0AD00020C9
S1130DE0092A11D198470FE0084B5B881B0A23702E
S1130DF0012009E0054BDB880020002B04D1034BC4
S1130E005B880B700130FFE738BDC04658050020F1
S1130E10A10F000010B5114B1B681C68A378E27881
S1130E2012021A43A2180378C018904210D24378D1
S1130E30042B0FD08B4205D10FE04378042B0BD049
S1130E408B420AD00378C0189042F6D3002004E005
S1130E50002002E0002000E0002010BD540100202A
S1130E6008B5034B5B887F201840024B984708BDA8
S1130E7058050020FD3F000010B5164B1B780022DA
S1130E80002B24D0144B1B681B681C7984421ED988
S1130E90124A13609A78DC78240214431C19A34282
S1130EA014D25A78042A09D19A78824206D1DA787F
S1130EB08A4203D1094A1360012208E01A789B1878
S1130EC0A342EED3054A1360002200E00022101C66
S1130ED010BDC046600100205401002064010020C0
S1130EE0F0B5474680B4041C0021124B9847051EF8
S1130EF01CD0114B1B685B68A200D3589846DB6872
S1130F009847011C201C0B4B9847051E0ED00B4B19
S1130F101C680B4E0B4F201C0521B047041E02D049
S1130F208078B847F7E743465B689847281C04BCB9
S1130F309046F0BD790E00005401002064010020A9
S1130F40150E00003D3B0000F8B5051C0F4B9847FB
S1130F50002819D00E4B1C680E4E0F4F201C052183
S1130F60B047041E09D08078E178237962791202AF
S1130F701A43B8470028F1D106E0084B1B685B68A8
S1130F80AD00EB581B689847F8BDC046790E0000C9
S1130F9064010020150E0000953B00005401002060
S1130FA0014B18687047C0466401002008B5014B26
S1130FB0984708BDAD40000070B5114B1B78002B5D
S1130FC011D0104B1B681B681B79002B0BD000241D
S1130FD00D4E0C4D201CB0470134E4B22B681B6845
S1130FE01B79A342F6D80022054B1A70074B1B88C5
S1130FF09B0701D5064B98470022044B1A8070BD0D
S11310006001002054010020E10E00005C0100207A
S11310109955000038B50D4B1B78002B15D00C4B9F
S11310201B681A681279002A0FD00024084D5B68E7
S1131030A200D3581B69002B00D098470134E4B2B6
S11310402B681A681279A242F1D838BD60010020D9
S113105054010020F8B5B84B00229A811A615A61F4
S11310601B785AB2002A00DB07E2B34AD288002078
S1131070002A00D005E209E21F210B407CD1AE49D1
S1131080497806290BD008296ED0002974D1022A88
S113109000D09FE1A9480231A94B9847F5E1A64B3E
S11310A05B881A0A022A10D0D1B2022902D8012A76
S11310B005D08AE1032A2AD00F2A1CD085E1A14B4E
S11310C0186801789E4B984745E0DBB29D4A126848
S11310D0527C9A4200D87DE19A4A5268DB009858C3
S11310E08378C17809021943954B9847924B9B68C2
S11310F002225A702FE0934B9868002800D169E1CE
S11311008378C178090219438D4B984723E0FF2265
S11311101340012B0CD0002B05D0022B00D059E139
S1131120894C092106E089480421854B984712E03F
S1131130874C1621874A02320023E05C1080013379
S11311400232D8B28842F8D3490002318148017092
S113115089B27B4B9847784BDA889B89934200D8B5
S113116093E1754B9A8190E1012A00D032E17A48EB
S11311700121734B984788E1012B27D16E494978A7
S11311800A2923D1012A00D024E1734B1B78002BB8
S113119000D11FE1684B1C79704B1D682B681B79CB
S11311A0A34200D816E1201C00216D4B984700286B
S11311B000D10FE16B68A400E358DB689847694BE2
S11311C01870181C01215E4B98475EE1022B00D079
S11311D000E1594B5B780020002B00D0F8E0022A94
S11311E000D0F7E0544B18795F4B98475F4B188059
S11311F0181C0221524B984747E11F22134076D115
S11312004D4A5278032A25D0D1B2032902D8012AA3
S11312100ED06CE0052A02D0092A2ED067E0464B96
S1131220DB88002B00D0D5E0514A434B1A612CE1F6
S1131230414BDB88002B00D0CCE03F4B5B88012B7B
S113124000D0C7E03D4A138802218B431380494BE9
S113125098471AE1384BDB88002B00D0BAE0364BB4
S11312605B880020012B00D0B2E0344A11880223AD
S11312700B431380404B984707E12F4BDB88002B2F
S113128000D0A7E03D4B9847002800D1A2E02A4BAC
S11312909A782C4B1B685B7C9A4200DD9AE0384BB1
S11312A09847254B9B782C4A1370002B00D1ECE017
S11312B0344A94466344DB00224A5268D318274ACE
S11312C013601B681B79002B00D1DEE000242E4D37
S11312D0161C201C0021A847002800D17AE0013404
S11312E0E4B233681B681B79A342F2D8CDE0012B2A
S11312F018D1114A52780B2A14D10F4BDB88002BDA
S113130068D1154B1B78002B64D00B4B1D795C887E
S1131310281C1E4B984700285CD0E1B2281C1A4BAD
S1131320984755E0022B55D1034B5B78012B2FD006
S1131330032B3AD04BE0C046580500205C01002046
S11313401D4000008C000020B0000020040100209B
S1131350BC000020D40000206001002054010020C3
S1131360790E0000580100209D3C00005A01002025
S1131370610E0000995500008D5500000D400000DD
S1131380B90F0000FFFFFF1F490F0000E10E00002E
S11313903F4BDB88002B1DD13D4B5B88002B19D1C3
S11313A03B4B18793B4B984712E0394BDB88002BB9
S11313B010D1374B5B88002B0CD1354C2079364B40
S11313C098472079354B984702E0002000E0002040
S11313D000285BD12E4B1B781F221340012B20D1F8
S11313E02F4B1B78002B1CD0294B1C792D4B1D68CF
S11313F02B681B79A34214D9201C00212A4B98473F
S113140000280ED06B68A200D558EB689847011CE1
S1131410201C254B9847002803D0AB689847002828
S113142034D11B4B1B781F2213400020022B2DD1DB
S11314301B4B1B78002B29D01A4B1B681A68127996
S1131440002A18D00024184E164F5B68A200D55805
S1131450EB689847011C201CB047002816D0AB68E5
S11314609847002812D10134E4B23B681A68127913
S1131470A242EAD80AE0002008E060221A42A9D178
S1131480BBE660211942A5D1F6E50120F8BDC046AE
S113149058050020E13D0000F13A0000B13C000095
S11314A06001002054010020790E00000C4B1B68E1
S11314B0002B10D1EFF31083002B09D172B6BFF3C8
S11314C05F8F0022074B1A700132074B1A7002E03B
S11314D00022054B1A70024A1368013313607047E7
S11314E068010020080100206C010020084B1A68E4
S11314F0013A1A601B68002B09D1064B1B78002B9C
S113150005D00122044B1A70BFF35F8F62B6704797
S1131510680100206C0100200801002010B50022A1
S1131520002302704270002142800171037602623E
S1131530C26182600373C0246401C4810374437470
S11315408374C37403752A24035543758375063C59
S11315500355C2840285C1752B23C1540133C15480
S113156010BDC046F0B55F4656464D464446F0B4FD
S113157097B00160BA4C236A80256D022B43236225
S11315800C780523E40700D5E6E1097817338907C9
S113159000D5E1E153780371002B04D1B1490C6CFF
S11315A0043323430B64161C824603689B4613785A
S11315B06A4613701E206946AB4B98471E20AB4BFE
S11315C098472C23F35C002B3FD02B22B45C327B56
S11315D091461219D2B2D318DBB298469A421ED25F
S11315E0A34F0F252540337BED1802A8A1495022B3
S11315F0B847132D0CD8AD0002ABE85801A900235D
S11316004B70CB708B7001330B70C0B29A4B984700
S11316100134E4B24B461B19DBB29845E1D8F48996
S113162002A894495022924B9847132C37D8A4000F
S113163002ABE05801A900234B70CB708B700133CF
S11316400B70C0B28C4B984729E0347B02A88949BF
S11316505022874B9847132C0CD8A40002ABE058B7
S113166001A900234B70CB708B7001330B70C0B297
S1131670814B9847F48902A87E4950227C4B9847B5
S1131680132C0CD8A40002ABE05801A900234B7022
S1131690CB708B7001330B70C0B2774B9847737D5E
S11316A09B00DBB25A461370B37DDB01727813439F
S11316B0DBB25A4653703379342B00D94BE19B008B
S11316C06E4AD3589F460421102002221AE0727CED
S11316D0317C102016E006211020012212E008219E
S11316E0102000220EE00021302000220AE0002118
S11316F02020002206E000210020002202E0022136
S1131700102001221201702313400B435A46937098
S1131710F27D17233F2A00D91EE15B46DA70534657
S11317201A68537E5BB2002BFBDBF27C7388134395
S11317302422B25CD2001343327D92001343B27C64
S11317405200134303435A469380327E002A20D02A
S1131750102863D002D800283FD01AE020281BD0DC
S1131760302816D1F37C002B0AD0F169803117237D
S1131770FF2900D9F0E0316A8031FF2900D9EBE07C
S11317801723F169FF2900DDE6E0316AFF2900DD56
S1131790E2E05346196879E0F37C002B12D0F36938
S11317A08020800084466344191C172334488142F6
S11317B000D9D1E0336A6344191C172330488142AD
S11317C000D9C9E017232E49F069884200DDC3E03F
S11317D0306A884200DDBFE0DBE7F37C002B12D0E7
S11317E0F3698020000184466344191C17232548AB
S11317F0814200D9B0E0336A6344191C172321489D
S1131800814200D9A8E017231E49F069884200DD0F
S1131810A2E0306A884200DD9EE0BAE7F37C002B48
S113182012D0F3698020000284466344191C1723F4
S11318301548814200D98FE0336A6344191C172389
S11318401148814200D987E017230F49F069884283
S113185000DD81E0306A884200DD7DE099E7C04622
S11318600004004000080040DD280000512800006A
S1131870D5760000C4780000D5290000F077000078
S1131880FF030000FF0F0000FFFF00004B7E5BB270
S1131890002BFBDB5B461A7253461A68537E5BB21D
S11318A0002BFBDBB38B5A46938353461A68537E53
S11318B05BB2002BFBDB338C5A4613842C23F25C83
S11318C0002A04D0013AD2B2153B0F2A44D82B2364
S11318D0F15C143B0F293FD853461868437E5BB232
S11318E0002BFBDBF089337B0343B068034309051A
S11318F0194312040A435B461A612A23F35C5A46CD
S113190013750F2393751533F35C002B11D0F28CF0
S1131910172315498A421FD85B469A84318D802348
S11319201B01CA1892B217230F48824214D85B468F
S1131930D9840E4B19684901E023DB0019400C4B94
S11319405A6850011A68D30E0343DBB20B435A465C
S11319501385002300E01723181C17B03CBC9046E5
S11319609946A246AB46F0BDFF0F000024608000FC
S1131970206080000368D879C00970470023037091
S113198001224270837003714371C3708371704785
S1131990F0B5474680B484B001602B4C236A80259F
S11319A0ED022B4323620C781C23A40747D4097847
S11319B0173BC90743D4161C041C03A9D3780B7026
S11319C02120224B98472120214B9847002502AB28
S11319D05D70DD70012302AA137095700220111C42
S11319E01C4B9847276873782371A571B3795A1EE5
S11319F093419B003178B2788846002A02D00422B1
S1131A00114388463279002A03D0102241461143FB
S1131A1088467279002A03D0082241461143884639
S1131A20DBB23B700C4D201CA8470028FBD1434679
S1131A306A46D371D3797B70337863710023181CA1
S1131A4004B004BC9046F0BD00040040DD28000052
S1131A5051280000D52900007519000070B5041C38
S1131A6006687278037913437370094D201CA847E4
S1131A700028FBD132780223134333706379002B9F
S1131A8004D1044A116C04330B43136470BDC04683
S1131A9075190000000800407047C0467047C046F2
S1131AA07047C0461723002A0DD18B00074A9B5864
S1131AB0002B03D189008850002304E0834201D025
S1131AC01D2300E00023181C7047C04600030020BB
S1131AD01723002907D100221F2800D8034A012315
S1131AE08340D3600023181C7047C0460018004090
S1131AF070B50022154B1A7000231F25144E134C89
S1131B001F2B19D90FE0002100E012490A619B0044
S1131B109B59002B00D0984723780133DBB2237004
S1131B200F2BEDD911E0291C194001228A40002114
S1131B3009691142E7D1EFE7291C194001228A40C3
S1131B40044909691142E0D1E6E770BDFD020020B5
S1131B500003002000180040044A117802230B43BC
S1131B60137053785BB2002BFBDB70470018004006
S1131B7000B583B0124A916940230B43936101A9D4
S1131B8000230B7005200F4B984705200E4B9847F8
S1131B900E4A117801230B43137053785BB2002B68
S1131BA0FBDB0B4B191C4031002204C38B42FCD1DC
S1131BB01022084B1A60084B984703B000BDC0467A
S1131BC000040040DD2800005128000000180040F7
S1131BD00003002000E100E0591B00000023036023
S1131BE0436001220272427283720233C3727047ED
S1131BF0F0B583B0051C0C1C01A900234B70CB70FD
S1131C0023790B70237A8B702078154B9847002624
S1131C101F2D00D8134E07222A409200E07AA37A9F
S1131C20002B01D008231843EB089B00F318996993
S1131C3090400F279740B9430A1C02439A61637A84
S1131C40002B06D073690122AA40151C1D4375613F
S1131C5004E073690122AA409343736103B0F0BDA9
S1131C60D52900000018004000B583B001AB8022E4
S1131C701A700A785A704A789A708A78DA70191C3D
S1131C80014B984703B000BDD52900000168072225
S1131C90CB691A42FCD17047F0B5474680B482B094
S1131CA0071C0D1C161C3960081C684B98476849B2
S1131CB00A6A841C0123A34013430B6201A9337BEA
S1131CC00B701430C4B2201C624B9847201C624B2A
S1131CD09847307B0021614B98472B681C209B0759
S1131CE000D5AEE02B681738DB0700D5A9E03868CB
S1131CF0564B98469847041C59495A4B9847A40098
S1131D00594BE75000233B767B7600247B83BB83CF
S1131D102522BC543B6214332B603D68281CC04709
S1131D2080236A461370547001239370D470F06951
S1131D30346A002803D1281C00214C4B98476B4679
S1131D40187002236A465370000CC0B26946484BAF
S1131D509847002C04D1281C0121444B9847041CAB
S1131D606B461C7002236A465370240CE0B2694629
S1131D703F4B9847B38AFB80F38A3B81327E8023B2
S1131D80002A04D13B4B9B789B07DB0FDB013269B4
S1131D90002A00D01343B26813432422B25C002A01
S1131DA002D08022D2051343B26A002A00D0134322
S1131DB02C22B25C002A02D08022120513432D2269
S1131DC0B25C002A02D08022120413432E22B25C99
S1131DD0002A02D08022D20313432A6813432B60C3
S1131DE080235B006B60FA27BF0033685F437B008E
S1131DF09846308E204C60432049214B98470A3046
S1131E004743E01B4044013841461E4B9847041C9D
S1131E104020FF2C15D87168FA23DB0059431A4B74
S1131E20C818174B98470138FF2801D9402008E00B
S1131E30FF231C400004FF231B0418400443EC60F0
S1131E40002002B004BC9046F0BDC0462D26000020
S1131E5000040040DD28000051280000592400003F
S1131E60852200006D26000040030020A524000008
S1131E70D529000000200041006CDC0200CA9A3B16
S1131E80C5550000E5560000FF6BDC0203681A7EAE
S1131E90920707D502221A765B8B9B074120DB173A
S1131EA018400AE05A8B520706D55A68C0218902A5
S1131EB00A435A60182000E00020704730B50268D9
S1131EC000230124022504E001339BB201899942D5
S1131ED007D9117E214206D1117E2942F4D0002077
S1131EE002E0122000E0002030BDC04610B50468B6
S1131EF063688022D202134363606162024B984795
S1131F000123237610BDC046BD1E0000F0B55F4618
S1131F1056464D464446F0B483B0061C89460568CF
S1131F204C882B681B01DB0F9A464B7A002B02D09E
S1131F30897A4F4B98476A684E4B13406B604B4607
S1131F401B7A002B26D04B465B7A9A034B461B88A0
S1131F505B0013438022120213436B62301C464B16
S1131F6098476A68434B13406B60031E78D1301C5A
S1131F70424B9847031E73D14B465B7A9B03012265
S1131F8013434A461288120A78210A435200134323
S1131F906B6209E04B461B885A004B465B7A9B03F5
S1131FA01343012213436B62301C334B98476A6816
S1131FB0304B13406B60031E52D1301C2F4B98479B
S1131FC00190031E4CD1013CA4B2002398462C4B33
S1131FD09B4629E06B8B9B0641D5F37A002B0FD0EF
S1131FE05346002B02D1002C02D009E0012C07D16A
S1131FF06B688022D20213436B60013CA4B213E0ED
S1132000301C204B984743465F1CBFB22823EB5C2F
S11320104A46526841465354301C174B9847013C7A
S1132020A4B2002803D1B8465C45D3D101E0B84638
S11320300190B37A002B07D0301C124B98476B6881
S1132040C022920213436B60301C0E4B9847282326
S1132050EA5C4B465B6841465A54019B00E04123CD
S1132060181C03B03CBC90469946A246AB46F0BD52
S1132070ED1E0000FFFFFBFFBD1E00008D1E0000D3
S1132080FFFF00008D1C0000F0B55F4656464D462C
S11320904446F0B483B0061C0F1C05684C88314BD1
S11320A098477B7A002B03D0B97A301C2E4B984783
S11320B06A682E4B13406B603B7A002B09D07B7A05
S11320C09A033B885B0013438022120213436B6222
S11320D005E07B7A9A033B885B0013436B62301CF8
S11320E0234B9847031E36D1301C224B9847031EBE
S11320F0019030D1A046002420339946194B9B46C9
S11321001B4B9A4611E06B8B4A46134222D0301C7B
S1132110D8477B681A5D2823EA54301CD04700282E
S113212006D16B8B01345B0704D44445EBD103E047
S1132130019001E01E230193B37A0198002B0AD089
S1132140301C084B98476B68C022920213436B60A3
S1132150019800E0412003B03CBC90469946A24659
S1132160AB46F0BD8D1C0000ED1E0000FFFFFBFF21
S1132170BD1E00008D1E000008B5838B9BB2052296
S1132180002B05D183720133C372024B9847021CA2
S1132190101C08BD0D1F000008B5838B9BB20522DF
S11321A0002B05D101338372C372024B9847021C82
S11321B0101C08BD8920000001680722CB691A425F
S11321C0FCD1704770B5041C06683268438B858B5C
S11321D05D1BADB2838B013B9BB2838313010CD592
S11321E0C37A002B15D0838B9BB2012B11D173685A
S11321F08022D202134373600BE0C37A002B08D011
S1132200838B9BB2002B04D173688022D2021343C8
S11322107360A38B9BB2002B0AD1A37A002B07D047
S1132220201C084B98477368C022920213437360C2
S1132230201C044B9847236A5D192823F35CDBB206
S11322402B7070BDB921000070B50668738B5B07F5
S113225003D51E222523C25410E0051C438B848B16
S11322601C1BA4B2838B013B9BB28383044B984712
S11322702B6A1C192378DBB22822B35470BDC046E4
S1132280B921000070B580006F4BC45825682B68D5
S11322901B01DA0F637E267E1E40638B9BB2002BEC
S11322A035D1A38B9BB2002B31D02B7EDB0708D515
S11322B001232B766B8B9B0716D541222523E254F1
S11322C012E06B8B5B070FD518222523E254002301
S11322D0A383A37A002B07D0201C5C4B98476B6820
S11322E0C022920213436B60A38B9BB263832523AA
S11322F0E35C052B56D11F33E35C002B03D1201C78
S1132300534B98474EE0201C524B98474AE0638B4E
S11323109BB2002B26D0A38B9BB2002B22D125335A
S1132320E35C052B1ED11F33E35C002B1AD103336E
S11323302B750023638325330022E254A37A002BF8
S113234008D0201C414B98476B68C022920213436B
S11323506B6001E001232B76F30723D5E368201C8F
S113236098471FE0638B9BB2002B1BD0A38B9BB2BF
S1132370002B17D06B8B9B0609D4002A03D0A38BA8
S11323809BB2012B03D041222523E2540AE02423EB
S1132390E35C002B03D1201C2D4B984702E0201C4A
S11323A02C4B9847638B9BB2002B2AD0A38B9BB2F8
S11323B0002B26D12533E35C052B22D11F33E35CAC
S11323C0012B1ED12B7E9B0701D502232B760323E1
S11323D02B750023638325330022E254B30707D50A
S11323E02423E35C012B03D12369201C984708E0D4
S11323F0F30706D52423E35C002B02D1E368201CF9
S113240098472523E35C052B1CD02523E35C002B94
S113241018D003232B7500236383A3832533E35C44
S1132420412B0AD0A37A002B07D0201C074B9847D6
S11324306B68E022D20213436B60730702D56369B1
S1132440201C984770BDC04640030020B9210000FD
S113245049220000C521000010B582B0041C0E4BB7
S11324601B78002B01D000290DD001A90C7013207A
S11324700A4B984713200A4B9847074B5C7001227C
S11324801A70002006E0044B5B78834201D01D20C3
S113249000E0002002B010BD70010020DD28000023
S11324A051280000444B984233D006D8434B9842FD
S11324B00DD0434B98421BD06FE0424B98424AD018
S11324C0414B984258D0414B984266D132E00129A1
S11324D006D0002963D0022906D0032906D001E0E2
S11324E03B4867E0002065E03A4863E03A4861E031
S11324F0012906D0002954D0022906D0032906D088
S113250001E0364856E0002054E0354852E03548B2
S113251050E0012906D0002945D0022906D003291C
S113252006D001E0304845E0002043E02F4841E078
S11325302F483FE0012906D0002936D0022906D0D1
S1132540032906D001E02B4834E0002032E02A4879
S113255030E02A482EE0012906D0002927D002299C
S113256006D0032906D001E0254823E0002021E01D
S113257024481FE024481DE0012906D0002918D072
S1132580022906D0032906D001E0204812E00020E9
S113259010E01F480EE01F480CE000200AE01E482F
S11325A008E0032006E01D4804E01D4802E01D4841
S11325B000E01D487047C046001000420008004279
S11325C0000C004200180042001C004200140042AB
S11325D003000500030006000300070003000100D8
S11325E003001E0003001F000300090003000A008B
S11325F003000B000300110003001200030013008A
S113260003000D0003000E0003000F000300170079
S1132610030018000300190003000400030008006D
S11326200300100003000C000300160030B587B04F
S11326300C4B6A4632CB32C232CB32C2009B83424D
S113264006D001239A0069465258824203D100E021
S11326500023D8B203E00133062BF3D1002007B0E6
S113266030BDC046147900007047C046F0B50A4B2F
S11326701B78002B0CD1094F094E0A4D0024DE5162
S11326805A1914600433182BF9D10122024B1A7021
S11326908000024BC150F0BD720100207401002083
S11326A0692600004003002010B582B0041C68466F
S11326B005490622054B9847201C054B98476B4655
S11326C0185602B010BDC0462C790000D576000023
S11326D02D26000008B5024B1B680020984708BD52
S11326E07401002008B5024B5B680120984708BDBF
S11326F07401002008B5024B9B680220984708BD6E
S11327007401002008B5024BDB680320984708BD1C
S11327107401002008B5024B1B690420984708BDCA
S11327207401002008B5024B5B690520984708BD79
S11327307401002008B5082803D880001B4B1B58DF
S11327409F46002031E01A4B18692EE0194B186A95
S11327508005800F184BC340181C26E0144B5869A1
S113276023E0134B1B68022018401ED0114910228D
S1132770CB681A42FCD00E4B1B685B0714D50020B3
S11327800E4B98470A4B9B681B041B0C58430CE0E8
S11327905023084AD35C00205B0706D5044BD86855
S11327A003E08020000200E0054808BD3479000001
S11327B08C0100200008004000127A00F928000073
S11327C0006CDC0270B5041C1A4A53785BB2002B0F
S11327D0FBDB194B9847194B1C70164A53785BB2B4
S11327E0002BFBDB134E7068C004C00E144B9847DB
S11327F0051C124B1C707668F602F60F114B1C7008
S11328000C4A53785BB2002BFBDB0A4B9C68240A0E
S1132810A4B20D4B9847002E07D1012C07D9281CD0
S1132820211C0A4B9847051C01E00134E540281C93
S113283070BDC046000C0040AD140000040C004004
S113284035270000080C0040ED140000C5550000B9
S113285010B5041C064B9847064B1C70064A518859
S11328608023DB010B435380044B984710BDC046C3
S1132870AD140000020C0040000C0040ED140000F8
S113288010B5041C0F4B98470F4B1C700F4B5A8804
S11328901205100F59880E4A0A405A8059880D4A69
S11328A00A405A80191C8022D2014B881342FCD161
S11328B0064902024888064B034013434B80064BEB
S11328C0984710BDAD140000020C0040000C0040FD
S11328D0FFF0FFFFFFBFFFFFED14000010B50C7801
S11328E024020443024B9847A4B2024B5C8010BDFF
S11328F081280000000C004010B5041C064B9847CA
S1132900064B1C70064B5C882405240F054B984726
S1132910201C054B984710BDAD140000020C00406C
S1132920000C0040ED140000C527000030B5D3783A
S1132930002B1ED11478802C04D0240680235B0243
S11329401C4300E0002453780225AB430AD193785A
S1132950002B03D180239B021C4302E0C023DB0233
S11329601C4341605378013B012B12D8184B1C4087
S11329700FE041600B041B0CA024E4052343836295
S11329800B0CD024240623438362D378002B18D065
S11329901CE00B041B0CA025ED052B432343836291
S11329A00B0CD0252D062B4323438362D378002BB5
S11329B00CD1630305D59378012B01D1816100E02B
S11329C041615378013B012B00D8816030BDC04682
S11329D0FFFFFBFF08B5031C0A1CC10900200029E6
S11329E004D15809C00105498C4660441F210B409D
S11329F01E399940024B984708BDC0460044004127
S1132A002D2900007047C04608B5044B9847044B75
S1132A109847044B9847044B984708BD052A000083
S1132A20052A0000711B0000052A0000084B98428B
S1132A300AD0084B984205D00023074A904205D19A
S1132A40023302E0012300E00023DBB2181C7047CC
S1132A50002000420024004200280042F8B50F1C68
S1132A60151C1E1C0468201C134B9847134B1A5C3E
S1132A701723BA421DD98000114BC2581723AA420A
S1132A8017D3002E0AD080221203BA40A36813423F
S1132A90FCD11C37BF003D5100230AE080225200C4
S1132AA0BA40A3681342FCD11037BF00E419656033
S1132AB00023181CF8BDC0462D2A000074790000BC
S1132AC06879000010B5041C081C4F4B984700237C
S1132AD0236080004D4A82586260A372E3722373BC
S1132AE063722372E36123626362A3622375637575
S1132AF0A375E3752376637623746374A374E37414
S1132B002C22A3540132A3540132A3540132A354FE
S1132B100132A3540132A3540132A3540132A35409
S1132B200132A3540132A3540132A3540132A354F9
S1132B300132A3540132A3540132A3540132A354E9
S1132B400132A3540132A3540132A3540132A354D9
S1132B500132A3540132A3540132A3540132A354C9
S1132B600132A3540132A3540132A3540132A354B9
S1132B700132A3540132A3540132A3540132A354A9
S1132B800132A3540132A3540132A3540132A35499
S1132B900132A3540132A3540132A3540132A35489
S1132BA00132A3540132A3540132A3540132A35479
S1132BB04132A354A365A3670132A354E365E367D9
S1132BC00132A35423661A3AA3501B32A3546366FA
S1132BD0173AA3501832A354A366143AA3501532DB
S1132BE0A354E366113AA3501232A35423670E3A56
S1132BF0A3500F32A35463670B3AA35001210C3244
S1132C00A1540132A35410BD2D2A0000687900009C
S1132C10F0B55F4656464D464446F0B48FB000903A
S1132C200C1C171C081C874B9847051C061C864A5D
S1132C30116A8000854BC3580B43136223681C2020
S1132C409B0700D5DDE123680122134000D0D8E1C1
S1132C50AA007F495258053839688A4200D2D0E127
S1132C6079688A4200D2CCE1F9698A4200D2B3E1A0
S1132C70396A914200D9B1E1796A8A4200D2AFE15E
S1132C80B96A8A4200D2ADE198229446BC446246B5
S1132C900492614600220878002804D06D48805DC3
S1132CA0904200DCA0E101320131082AF3D1002274
S1132CB09046802149048C46B918097C012909D120
S1132CC06549895D914200DA90E161469140404650
S1132CD0084380460132042AEED19D32BA5C002AB0
S1132CE004D0802212014146114388463A7B069261
S1132CF0FA7A07923A7A511E8A41920003927A7ABA
S1132D00012A02D1039911430391534A525D111CC4
S1132D1005923522B85C814200D871E12C22BA5C5C
S1132D200F2A00D96CE12D218C46BC4461460191E7
S1132D30002108969946BB460F1CA24609950CE053
S1132D40907C059B834200D85AE1527A019B0A3356
S1132D50019304370F2A00D952E11106F0231B0511
S1132D601940019B1A1C1D782D04FF2424042540BE
S1132D7002955B788024002B00D14C46967808237A
S1132D80002E00D14B46D678B44610266546002D59
S1132D9000D14E468002C0252D0128400143107900
S1132DA00325284001430298014355796D016020B1
S1132DB0284001430D1C90790002C0218900014084
S1132DC00D43D0790003E021C90101400D432C4398
S1132DD023431E430CABFE50042FB1D1089E54462E
S1132DE05F46099D1B4B5B5D9C46584650305A46D6
S1132DF04132002301218B46802149028A460194F5
S1132E00341C6646291C1D1CB9460F1C01998C46AE
S1132E100178002909D09E4200D8E9E05146994042
S1132E200D431178002906D11BE01178002918D030
S1132E309E4200D8DEE0022910D10221FF319940E0
S1132E400D430EE02D2A0000000400405C790000D0
S1132E506879000078790000747900005946994037
S1132E600D43013301300232082BD1D1261C6446B4
S1132E703B1C4F46A9461D1C654B5B5D01937B7E45
S1132E801B01302213403A7E07210A401343181CC9
S1132E90002380214902FA18127D002A06D0019AE3
S1132EA09A4200DCA8E00A1C9A4010430133042B28
S1132EB0F1D1029000990B1C04333431002204C375
S1132EC08B42FCD1002300994B638B63AA00514BC6
S1132ED0D1500C60A023FA5C643BCA540BA9BB7AA2
S1132EE00B704D4B5B5D0093181C4C4B984700983E
S1132EF04B4B98474B4B5B5D002B29DD3D1C5835F4
S1132F0097235B42DB1B9B46464B9A464346009302
S1132F10A046341C049E5B46BB461F1C3378002B22
S1132F200BD001230AAA937000220AA9CA702A6A44
S1132F300A704B7028783C4B9847BB19013604350E
S1132F405246125D9A42E9DC4446009B98465F462D
S1132F50069B1A03079B1B02134342461343236039
S1132F600422A3681A42FCD1FF2323710422A3681C
S1132F701A42FCD16B461B7B63710C9BE3600D9B77
S1132F8023614B46A361294AA3681342FCD1029BE7
S1132F90E3631022A3681A42FCD13B686363244AAA
S1132FA0A3681342FCD17B6823640198002825DDC3
S1132FB03D1C1C3500211F4E321C8A40A36813425D
S1132FC0FCD104CD0B1C10339B00E3185A60013173
S1132FD08842F1DC002014E0172012E0172010E0F2
S1132FE017200EE017200CE017200AE0172008E055
S1132FF0172006E0172004E0172002E0002000E07C
S113300017200FB03CBC90469946A246AB46F0BD93
S1133010747900005803002058790000DD2800006E
S11330205128000078790000D529000040000200F2
S1133030800004000001080010B53C23C35C014C6F
S1133040A04710BD5D2A0000F0B5474680B480005B
S11330500D4BC7583B68DE6A7B6B1E40BB6B1E4042
S113306000240A4B98464346E5582E4205D03B19A6
S11330705B68381C98473B68DD620434302CF2D11D
S113308004BC9046F0BDC046580300207C79000083
S113309008B50020014B984708BDC04649300000E0
S11330A008B50120014B984708BDC04649300000CF
S11330B008B50220014B984708BDC04649300000BE
S11330C0931C9B001950022A04D1027E102313433F
S11330D003760CE0032A04D1027E202313430376F3
S11330E005E0012393401A1C037E1A430276002054
S11330F07047C04638B58000144BC5582B689C7B7C
S11331002B7E1C406B7E1C40E30705D5281CAB6856
S1133110984701232A689373A30705D5281CEB68F5
S1133120984702232A689373E30605D5281C2B6964
S1133130984710232A689373A30605D5281C6B6946
S113314098472B6820229A7338BDC0466403002038
S113315008B50020014B984708BDC046F530000073
S113316008B50120014B984708BDC046F530000062
S113317008B50220014B984708BDC046F530000051
S113318030B585B001AA0B4B32CB32C2019B8342CE
S11331900AD0029B834205D00023039A824205D1C0
S11331A0023302E0012300E00023DBB2181C05B067
S11331B030BDC046AC790000F0B54F464646C0B4B9
S11331C087B0041C0E1C9046081C914B98478146FE
S11331D0904D291C0C3105A803228F4FB847291C98
S11331E0103103A80622B8470023A360E3602361DB
S11331F06361237663764B469A00884BD4502660ED
S113320043469B78082B04D117204A46D20700D4A2
S1133210F9E0237133880520DB0700D5F3E0F37B65
S11332201730DB0600D5EEE033889B0700D5EAE0D3
S113323043461B7C002B0CD002A901238B70002277
S1133240CA704246127E0A704B704346187D744B16
S1133250984743461B7F002B0DD002A901238B7096
S11332600022CA704246526A0A704B7043461B6A77
S1133270D8B26B4B98476B490B6A4A46520003A875
S1133280125A13430B6243469B78082B06D10B6AF0
S11332904A4601325200125A13430B6201A94346B3
S11332A01B780B7005AB4A469D5C281C5E4B984707
S11332B0281C5E4B9847434698881B890343424623
S11332C0907992781043184343465B78002B02D0E0
S11332D080231B01184321687F22CB7B9343FCD1BD
S11332E030804346587B431E9841800043469B7B75
S11332F0002B01D00123184321687F22CB7B934309
S1133300FCD1FF333371002805D021687F22CB7BA9
S11333109343FCD170714346987ADB7A002B01D039
S11333201023184343461B7B002B01D02023184352
S113333021687F22CB7B9343FCD1B07122687F212B
S1133340D37B8B43FCD12379042B05D0082B41D0AC
S11333501720002B57D124E07F21D37B8B43FCD152
S113336028334246D35C337421687F22CB7B93435A
S1133370FCD129334246D35C337521687F22CB7B51
S11333809343FCD12A334246D35C337621687F22AF
S1133390CB7B9343FCD12B334246D35C7376002022
S11333A031E07F21D37B8B43FCD143461B8D338299
S11333B021687F22CB7B9343FCD143465B8D3383CF
S11333C021687F22CB7B9343FCD143469B8D73833F
S11333D0002018E07F21D37B8B43FCD143469B6ABA
S11333E0336121687F22CB7B9343FCD14346DB6A64
S11333F0B36121687F22CB7B9343FCD143461B6B93
S1133400F3610020FFE707B00CBC90469946F0BD7D
S113341081310000AC790000D576000064030020FF
S1133420D529000000040040DD28000051280000D8
S113343010B502687F24D37BA343FCD10379042B0A
S113344005D0082B0BD01720002B0BD103E0C9B2F9
S11334501174002006E089B21182002002E011619B
S11334600020FFE710BDC04602687F21D37B8B4359
S1133470FCD10379042B05D0082B09D00020002BA4
S113348008D102E0107CC0B204E0108A80B201E0EE
S11334901069FFE77047C04610B582B0041C01A84C
S11334A023490422234B9847234B1B78A3423DD046
S11334B0002C1AD001AB1A5D204B9B5CFF2B00D172
S11334C0FEE7EFF3108372B6BFF35F8F00201C4951
S11334D008701A48815C01318154002B05D1012206
S11334E0174B1A70BFF35F8F62B6134B1B78002B18
S11334F01AD001AAD25C114B9B5C002B00D1FEE7D1
S1133500EFF3108372B6BFF35F8F00200C4908708D
S11335100A48815C01398154002B05D10122084BF2
S11335201A70BFF35F8F62B6034B1C7002B010BDFC
S1133530C4790000D5760000FB010020F8020020C9
S1133540080100200F2303405B00C009181802384B
S1133550830018188000014B18187047A801002038
S1133560F0B557464E464546E0B489468E7973B267
S1133570002B51DA301C5D4B9847041C0F23334059
S11335809846038A9A464B465F88C3689C466744BC
S1133590C7608568AF4224D0ED1BADB2544B9D4249
S11335A006D91D1C181C5146524B98476D1AADB2D2
S11335B0A37C00229B0706D5281C51464E4B9847F6
S11335C089B24A424A415100A37C022293431943DF
S11335D0A1746268D219494841462B1C484CA04743
S11335E07EE0837C9B070BD5837C02229343837408
S11335F04268D219414841460023414CA0476FE03C
S1133600837C0122934383740368002B68D00020D9
S1133610391C321C984763E0301C344B9847041C17
S11336200F273740BA46038A98464B461F88837C47
S11336305B0711D54368C268944663441D1C8068C7
S113364041462D4B98470A1C5346591E89012D4B60
S1133650C918281C2C4B9847E368FD18E560A3683B
S11336609D4201D9E36030E04A469288BA422CD1A7
S11336709D422AD05B1B9EB21D4B9E4207D91E1C45
S1133680181C41461B4B9847731A9BB205E0301C2B
S11336904146194B9847731A9BB298450ED9A27CA0
S11336A004231343A37453465A1E9201154BD21894
S11336B0124851464346154CA04711E0626852191E
S11336C00E485146114CA0470AE0A37C01229343C3
S11336D0A3742368002B03D0E1680020321C9847B0
S11336E01CBC90469946A246F0BDC0464535000034
S11336F0FF1F0000B1580000D1560000F003002065
S11337001D47000070030020D57600006D470000BF
S113371010B50522054B1A70054C201C8021054B61
S11337209847201C0021044B984710BDFC01002041
S1133730F00300206D4600009546000038B5084CA3
S1133740201C0621074DA847201C0421A847201C43
S11337500221054B98470220044B984738BDC046C8
S1133760F003002081410000614100009934000011
S113377038B5134B9B8C9B0606D41149D022CB68D9
S11337801340D02BFBD104E00D491022CB681A4220
S1133790FCD00C4C201C02210B4B9847201C04210C
S11337A00A4DA847201C0621094A0A4B9847201CA9
S11337B00621A8470320084B9847084B984738BD73
S11337C000080040F0030020814100006141000036
S11337D03D3700004141000099340000615500006C
S11337E070B582B0041C1E4B9847802322689372E4
S11337F001AD281C1B4B984700266E70201C291C09
S1133800194B9847201C1949194B9847201C002133
S11338100222184B184DA847201C00210022174BE8
S1133820A847201C00210122154BA847201C002179
S11338300222144DA847201C00210022A847201C66
S113384000210122A847226811890F4B0B408021D7
S1133850C9000B4313810D4B1E7002B070BDC046EE
S1133860B90F0000A5430000B54300007005002017
S1133870B9470000C53900009D410000E13C00004B
S1133880CD380000ED410000FFF3FFFFFC010020F4
S113389010B50322074B1A70074C201C0749084B2C
S11338A09847084B9A68201C00210023064CA04727
S11338B010BDC046FC010020F0030020700500206C
S11338C0B9470000580500201D47000008B5897954
S11338D04BB2002B0CDA0D4B1B78012B02D10C4B95
S11338E0984712E0042B10D10A480B4B98470CE080
S11338F0064B1B78022B03D10422044B1A7004E0FC
S1133900032B02D10348044B984708BDFC01002057
S113391091380000F00300206D46000070B5204B84
S11339201A88204B9C89A41AA4B2002C20D11E49C9
S11339300B88D3189BB20B801A4AD2889A4203D0C0
S11339401A4B1B78002B07D00422194B1A70194804
S113395019491A4B984722E0124B5B69002B0ED091
S1133960984700280BD000220D4B1A800D4B9C89E0
S1133970072C04D900220D4B1A70082402E00122FE
S11339800A4B1A70064D2B88064A9268D2180948C9
S11339900021231C0A4EB0472B88E4182C8070BDEC
S11339A0F801002058050020A4010020FA0100209D
S11339B0FC010020F003002070050020B94700003E
S11339C01D47000010B50C1C2C4B1B78002B07D096
S11339D02B4B1B69002B00D098470022274B1A70F1
S11339E02388082B02D0274B984745E0244A264BCE
S11339F01978117059785170D9780902987841185A
S1133A00518059790902187941189180D9790902AC
S1133A109B795B18D3801D4B9847002802D1194B22
S1133A20984729E0164B1B787F2B10D90023184A9E
S1133A301380184A13800222104B1A701648002172
S1133A40114A0823154CA047154B984714E00C4B1A
S1133A50DB88002B02D1134B98470DE000230C4A5E
S1133A6013800C4A13800122044B1A700A48002167
S1133A70054A0823094CA04710BDC046FC0100209C
S1133A805805002011370000700500205510000073
S1133A90A4010020F8010020F00300206D4700007D
S1133AA01D3900009138000008B5024B9847024BBD
S1133AB0984708BD151000006D55000010B5074C5F
S1133AC0201C0421064B9847201C0221054B9847D3
S1133AD00120054B9847054B984710BDF003002083
S1133AE081410000614100009934000055550000F7
S1133AF010B5041C0A48211C0A4B9847201C0A4B89
S1133B009847837CDB070AD5837C01229343837423
S1133B100368002B03D0C1680120221C984710BD04
S1133B20F00300200946000045350000024B1B68E5
S1133B30188A8004400D7047F003002070B582B0ED
S1133B40041C01AD281C0D4B9847201C0C4B9847B6
S1133B502C700023EB700B4E301C291C0A4B984729
S1133B600F212140301C0022084B9847301C211C97
S1133B700022074B984702B070BDC046A543000021
S1133B80F13A0000F0030020B5430000C5410000F5
S1133B90C9420000F0B583B0061C0C1C151C01AF13
S1133BA0381C364B98473E70082D03D8002201ABD1
S1133BB05A702EE0102D03D8012201AB5A7028E070
S1133BC0202D03D8022201AB5A7022E0402D03D8E5
S1133BD0032201AB5A701CE0802D03D8042201ABF0
S1133BE05A7016E080235B009D4203D8052201AB86
S1133BF05A700EE080239B009D4203D8062201AB3D
S1133C005A7006E000231E4A954233D8072201ABBE
S1133C105A70301C1B4B984705820321214001290F
S1133C2003D1022201ABDA700BE0022903D1032293
S1133C3001ABDA7005E0002303291BD1042201AB98
S1133C40DA70114801A9114B98470023002811D1BB
S1133C500D4C0F213140201C00220D4B0D4DA84767
S1133C60201C311C00220C4DA847201C311C0122B1
S1133C70A8470123181C03B0F0BDC046A5430000AB
S1133C80FF03000045350000F0030020B5430000A9
S1133C90613500009D410000ED41000008B5011CA4
S1133CA00148024B984708BDF0030020414600003C
S1133CB010B50F2303400022022B08D8041C05482A
S1133CC0211C054B9847201C044B98470122101CCB
S1133CD010BDC046F00300206D460000F13A00001C
S1133CE038B5344B1B78012B55D10D88324B9B8949
S1133CF0324A14886219934201DA1D1BADB22E4B6D
S1133D00986800192E492A1C2E4B98472C19A4B2E6
S1133D102A4B1C80082D06D1274BDA882A4B1B8896
S1133D201B199A4210DC244B9C815B69002B08D040
S1133D309847002805D105221E4B1A70234B98473B
S1133D4036E0234B984733E01B4B9B89A3421BD19E
S1133D50194B5B69002B06D10522164B1A70002003
S1133D601A4B984724E09847002805D10522114BA7
S1133D701A70164B98471BE01349104A10880B8899
S1133D80C3180B8000231380124800210C4A082317
S1133D90114CA0470CE0022B02D1104B984707E0CE
S1133DA0054B1B69002B00D098470022014B1A7069
S1133DB038BDC046FC01002058050020F801002051
S1133DC070050020D5760000A4010020B13C00005D
S1133DD091380000F00300206D4700001D390000F9
S1133DE038B5011C0F2303400020022B13D80C1CF0
S1133DF0081C094B9847051C0848211C084B984788
S1133E00AB7C0120DB0706D5AB7C01229343AB746A
S1133E102B689847012038BD45350000F003002089
S1133E2095460000F0B585B0051C039102920193FC
S1133E300F2303401E1C0024022B00D9C7E0654B4E
S1133E409847041E00D0BDE0281C634B9847071C0C
S1133E50EFF310835842584172B6BFF35F8F0021CD
S1133E605E4A1170BA7CD30709D5002800D1AEE0B0
S1133E7001225A4B1A70BFF35F8F62B6A7E0BA7C77
S1133E8001231343BB74002805D00122534B1A703D
S1133E90BFF35F8F62B6029B7B60019BBB60002314
S1133EA0FB600A9B3B600123039A13405A00BB7CCE
S1133EB002218B43134304229343BB746BB2002B44
S1133EC040DA019B002B1DD06B469C88444B9C42DE
S1133ED006D9398A1C1C181C424B9847631A9CB299
S1133EE0BA7C0023920706D5398A201C3E4B98479A
S1133EF089B24B424B415B00BA7C02218A43134393
S1133F00BB7415E0BB7C9B0705D5BB7C02229343A5
S1133F10BB7400240CE0BB7C01229343BB740A9B5A
S1133F20002B51D0002000212A1C984701244EE088
S1133F302E48311C029A231C2D4CA0474442444174
S1133F40E4B244E0019B002B2FD06B469C88244BA9
S1133F509C4207D9398A1C1C181C224B9847631AA7
S1133F609CB205E0398A201C1F4B9847631A9CB207
S1133F703B8A9C420FD2B97C04220A43BA74721E53
S1133F8092011C4952181948311C1B4CA047444249
S1133F904441E4B21BE01548311C029A231C164C20
S1133FA0A04744424441E4B211E0BB7C0122934364
S1133FB0BB740A9B002B09D0002000212A1C9847BF
S1133FC0012404E0002402E0012400E00124201C78
S1133FD005B0F0BD9D3C00004535000008010020FF
S1133FE0FF1F0000B1580000D1560000F00300206C
S1133FF01D470000700300206D470000024B1A6843
S11340008023184390727047F0030020024B1B6812
S11340109B7A7F2018407047F0030020014B986082
S1134020998170475805002070B50320164B9847B6
S1134030164C2268138901218B431381201C033100
S1134040134A144EB047201C0021134AB047201CC9
S11340500121124AB047201C0221114AB047201CFA
S11340600421104DA847201C0021A847201C012131
S1134070A847201C0221A847201C06210A4AB04751
S1134080201C0621A84770BD99340000F0030020CD
S1134090BD3A000041410000A93A0000E1370000A8
S11340A071370000614100003D37000070B582B0F7
S11340B0EFF3108472B6BFF35F8F0026174B1E70A8
S11340C001AD281C164B9847AE70164E301C16498D
S11340D02A1C164B9847301C154B9847154B9B8C44
S11340E09B0606D41349D022CB681340D02BFBD1B6
S11340F004E010491022CB681A42FCD001200E4B78
S113410098470E4B9847002C05D10122034B1A7097
S1134110BFF35F8F62B602B070BDC04608010020D5
S11341209D4D0000F003002000500041AD4D000003
S1134130E9470000000800409934000029400000CD
S11341400B1C2E339B001A504900AA225200034B29
S1134150C95A835A0B43835200207047DC7900000C
S11341604900064BCB5A02689383AB214900425A5B
S11341701A4342520268138300207047DC7900001E
S11341804900054BCA5AAB214900435A9343435251
S113419003689A8200207047DC79000010B58C0017
S11341A0A4183434A4000419636041185931FF3150
S11341B00878034B9B5C03430B70002010BDC04682
S11341C0EC79000010B58B009B1834339B00C318A6
S11341D000245C6041185931FF31034B9A5C0B7821
S11341E093430B70002010BDEC79000070B50F23D1
S11341F00B40C4186134FF342678324DAD5C35432E
S11342002570002A1FD1002B08D15C010568AC463B
S113421064440934FF34032565703DE04CB2002C3E
S113422008DA5C010568AC4664440934FF340225AD
S1134230657031E05C010568AC4664440934FF34C0
S11342400125657028E0012A1CD1002B07D10268E2
S11342505B01D3180933FF330C225A7030E049B2A2
S1134260002907DA02685B01D3180933FF330822F7
S11342705A7025E002685B01D3180933FF33042226
S11342805A701DE0022A07D102685B01D318093372
S1134290FF3310225A7013E0032A11D149B20029C6
S11342A007DA02685B01D3180933FF3340225A70DE
S11342B006E002685B01D3180933FF3320225A70E9
S11342C0002070BDEC79000070B50F230B40C418BA
S11342D06134FF34324DAE5C2578B5432570002A35
S11342E01FD1002B08D15C010568AC466444093435
S11342F0FF34032525703DE04CB2002C08DA5C0144
S11343000568AC4664440934FF340225257031E065
S11343105C010568AC4664440934FF34012525700A
S113432028E0012A1CD1002B07D102685B01D318B5
S11343300933FF330C221A7030E049B2002907DA3E
S113434002685B01D3180933FF3308221A7025E091
S113435002685B01D3180933FF3304221A701DE08D
S1134360022A07D102685B01D3180933FF331022F4
S11343701A7013E0032A11D149B2002907DA02683E
S11343805B01D3180933FF3340221A7006E0026838
S11343905B01D3180933FF3320221A70002070BD4B
S11343A0EC79000000230370437083700133C37001
S11343B07047C046F0B50A780F231340D409CA7871
S11343C0042A00D9F0E092008C4EB2589746026855
S11343D008335B010021995400220CE15C0102685E
S11343E09446644480225200A55CE43A6D0700D0F0
S11343F001E1E432A65CE43A70252E4200D0FAE0F2
S11344005F3DE432A5541A1C083252010468A41812
S11344102F35657100688218802010718A78002A0F
S11344200BD05A0176488218546880252D062C43F7
S113443054605069284350610AE05A017048821858
S11344405068400040085060506940004008506186
S1134450072248785B016A4CE31810400407586847
S1134460684D28402043586049780A4011075A692A
S11344702A400A435A610022BDE0002C18D05D0195
S113448002689446654480225200AF5CE43A702688
S1134490374200D0AFE09036AF5D04323A43AA55BC
S11344A000681A1C083252018218802010717BE0C7
S11344B05D0102689446654480225200AE5CE43A91
S11344C0760700D097E080267600AF5D1A3A3A432B
S11344D0AA5500681A1C08325201821840205071F3
S11344E062E0002C17D05D01026894466544802286
S11344F05200AF5CE43A702637427CD19036AF5D0F
S113450014323A43AA5500681A1C08325201821820
S11345108020107148E05D01026894466544802261
S11345205200AE5CE43A760765D180267600AF5D32
S1134530193A3A43AA5500681A1C083252018218E3
S11345404020507130E0002C17D05D010268944681
S1134550654480225200AF5CE43A702637424AD167
S11345609036AF5D24323A43AA5500681A1C0832CB
S1134570520182188020107116E05D010268944691
S1134580654480225200AE5CE43A760733D180263B
S11345907600AF5D183A3A43AA5500681A1C0832EF
S11345A0520182184020507148785A0012191201A1
S11345B0134DAA18072528400507566811483040AE
S11345C0284350608A78002A0BD05B001A19120124
S11345D00B4CA2185368802109060B435360002238
S11345E009E05B001B191B01054AD3185A685200E5
S11345F052085A600022101CF0BDC046C879000061
S113460078050020FFFFFF8F0F230B4049B20029DC
S11346100ADA08335B010268D2188021117102683A
S1134620D3180222DA7109E008335B010268D21858
S1134630402151710268D3180122DA717047C046D3
S11346400F230B4049B2002907DA026808335B01E3
S1134650D31898798006C00F06E0026808335B011E
S1134660D3189879C006C00F7047C0460F230B407B
S113467049B2002906DA026808335B01D318202204
S11346805A7105E0026808335B01D31810225A718D
S11346907047C04630B50F230B4049B200291EDADB
S11346A059010268521883246400145DA40634D5A9
S11346B0202582246400155502689446614408222A
S11346C0FF328A5C520628D5C43C0822FF328C543F
S11346D0026808335B01D31802221A711DE05901E4
S11346E00268521883246400145DE40615D510256D
S11346F08224640015550268944661440822FF32FE
S11347008A5C920609D5E43C0822FF328C54026884
S113471008335B01D31801221A7130BD30B50C1C6B
S1134720083464010568645D6406640F1C25002C6C
S113473016D04C010B4D2D192C1C2A616D690A4AA7
S11347402A4062619B049A0C63699B0B9B0313438D
S11347506361036808314901591880234B710025AE
S1134760281C30BD78050020FF3F00F030B50C1C3C
S1134770083464010568655D1C246D0715D00C4D73
S11347804C0162512C199B041A096568094B2B4092
S11347901343636063689B0B9B0363600368083186
S11347A04901591840230B710024201C30BDC04618
S11347B078050020FF3F00F0094B19605968094A49
S11347C00A40802189020A435A605A68920B920374
S11347D05A600268402182235B00D1540020704754
S11347E078050020FF3F00F00268117802230B4394
S11347F0137002689378022BFCD07047F0B55F46C3
S113480056464D464446F0B483B0C84B1F683D68D5
S11348102B78DB0900D154E1288C80B2C44B984733
S1134820041E1F2C00D9D2E0031C08335B01ED18D1
S1134830ED79EDB2AB0750D0BE4A01238340116835
S113484099431160031C08335B013A68944663443E
S11348500322DA713B18A8339B79DB073DD5B64BAD
S113486018703A68031C08335B019B5C03221340F5
S1134870012B10D14201B14B9B185A689204920C3F
S1134880AD494A805A681201920C8A805A68920B88
S113489092035A6019E04301A84AD3185A681201D6
S11348A0920CA548428059688904890C8180586813
S11348B0A34901405960002A07D163019F4AD318D4
S11348C05B689B049B0C9C4A5380984B1868A31C00
S11348D01B01C3185B68984998476B070ED5954A26
S11348E00123A340116899431160904B1B681A6817
S11348F0231C08335B01D3180422DA712B0721D55A
S11349008C4A0123A340116899431160874B1868AE
S1134910231C08335B010268944663440822DA715D
S11349200319A8339B799B070CD583490C70630149
S1134930824AD318DA891F2313404B702301C3180A
S11349409B6A9847EB0622D57A4A0123A340116853
S113495099431160754B1868231C08335B01026886
S1134960944663441022DA710319A8339B795B07D8
S11349700DD5714A147063017049CB185B681B0133
S11349809B0C53802301C318DB6A00219847AB06B4
S113499000D4F8E1674A0123A340116899431160E8
S11349A0624B1868231C08335B0102689446634415
S11349B02022DA710319A8339B791B0700D4E2E1A2
S11349C05D490C7024010419236B9847DBE1AC8B1F
S11349D0A4B2630708D50423AB83A133FB5CDB07D4
S11349E002D57B68381C984723070DD50022514B0C
S11349F01A604E4B18680823026893839D33C35C86
S1134A009B0701D58368984763060AD5474B186806
S1134A104023026893836533C35CDB0601D5436995
S1134A209847A3060AD5414B18682023026893834C
S1134A308533C35C1B0701D503699847E3060AD590
S1134A403A4B18681023026893839533C35C5B0761
S1134A5001D5C368984723060DD50022354B1A604B
S1134A60324B18688023026893832533C35C9B060A
S1134A7001D583699847E3050ED500222D4B1A60B2
S1134A802A4B186880235B00026893835B3BC35CFA
S1134A905B0601D5C3699847A30500D473E10022DE
S1134AA0244B1A60214B186880239B00026893836F
S1134AB05C3BFF3BC35C7F2B00D864E1036A9847EF
S1134AC061E12E8CB6B2002E40D1AE8BB6B2AB23D0
S1134AD05B00FD5A3540023BFB5A1D400024194F30
S1134AE0124B994698466300DB5B1E4203D04A464C
S1134AF01268126893831D4213D0062C07D10F4B02
S1134B001B891A0980235B0013400F4A1360231C7E
S1134B102E339B00424612689B58424610680A494D
S1134B2098470134072CDED12DE1C046180200203D
S1134B30055900000C020020040200207805002022
S1134B40FF3F00F0DC790000000200203C1C5934D7
S1134B50FF340023012294465F329146503A924634
S1134B600D3A9346B8462F1CD8B20193321C1A4111
S1134B706146114200D101E11A1C08325201BA18EF
S1134B80D279D2B2217A2578294011404D46154276
S1134B902AD03D1C47465B01ED180823FF33EB5C2C
S1134BA05B0609D540220823FF33EA54883BFF3BC8
S1134BB00343784A93710AE00823FF33EB5C9B06B6
S1134BC005D520220823FF33EA54724B98716023E1
S1134BD00B4200D1D7E0019B1B01FB18DC335B685F
S1134BE0381C6C499847CEE0554615421FD03D1CF1
S1134BF04746019A131C08335B01ED181023EB712F
S1134C00BB186133FF331B78DB0600D4BBE0101CF8
S1134C105301614AD3185B689B049B0C5D490B806C
S1134C200301FB18D8335B6840469847ABE05D4608
S1134C30154240D03D1C47468046019B5B01ED1860
S1134C400823FF33EB5C9B0712D502220823FF33B2
S1134C50EA54504A883BFF3B03439371019B5B0139
S1134C604D48C31810335B689B049B0C538017E0BA
S1134C700823FF33EB5CDB0712D501220823FF3343
S1134C80EA54444843468371019B5A01424B9B18A2
S1134C905A689204920C02805B681B019B0C83800F
S1134CA08B0770D0019B0D331B01FB185B68381C0C
S1134CB03849984767E00C2515425FD03D1C4746AC
S1134CC08046019B5B01ED180823FF33EB5C1B0757
S1134CD023D508220823FF33EA54019B5B012E4AA3
S1134CE0D31818339B789B0707D5019B5A012A4B8D
S1134CF09B189A7E022082439A7680235B42424626
S1134D001343244A9371019B08335B013A68944628
S1134D106344DB799B0725D535E00823FF33EB5C3F
S1134D205B071FD504220823FF33EA54019B5B0170
S1134D30194AD31808339B789B0707D5019B5A015E
S1134D40154B9B189A7A022082439A72114B424661
S1134D509A71019B08335B013A6894466344DB799A
S1134D60DB0710D40C230B420DD0019B1B01FB1855
S1134D70D4335B68381C0749984704E00133013495
S1134D80082B00D0F0E603B03CBC90469946A246FE
S1134D90AB46F0BD1002002078050020002202700E
S1134DA0012343708270C3707047C046F0B54F460C
S1134DB04646C0B483B0041C0D1C161C00236C4A68
S1134DC013606C4A106021606B49C8692022024359
S1134DD0CA6101AF7B700122BA70FB700633994639
S1134DE03B701820391C654B984698474B463B70DE
S1134DF01920391CC047B3786A46137006206946E7
S1134E005F4B984706205F4B98472A78012313434A
S1134E102B700122AB781A42FCD15B4BDA78032168
S1134E208A4302210A43DA70DA780C218A43082182
S1134E300A43DA70554B1B689B03DB0E1F2B00D112
S1134E401A3B9A01298D524B0B4013432B854F4B30
S1134E501B685B02DB0E1F2B00D1023B2A8D1F2136
S1134E608A4313432B85494B1B689B015B0F072B1C
S1134E7000D1043B1A03298D464B0B4013432B8569
S1134E803378DA012B787F210B4013432B7073782E
S1134E90012213409A002B787B398B4313432B70E8
S1134EA03D4B6B62F378012B05D1226813890831DD
S1134EB08B43138108E0002B06D121680B890C2257
S1134EC09343042213430B81334800218022520070
S1134ED0324B9847221D231C2433002102C29A42DC
S1134EE0FCD1211CA43100221A605A609A60DA6055
S1134EF010338B42F8D10023A422A3540132A354CB
S1134F00231CA633211CAE3100221A701A720133FD
S1134F108B42FAD1221CB832231CD433002102C2A2
S1134F209A42FCD1211C5531FF3100221A605A608B
S1134F309A60DA6010338B42F8D10023AA2252001F
S1134F40A3520232A352231C5933FF336134FF347A
S1134F5000221A701A720133A342FAD18022104B34
S1134F601A60002003B00CBC90469946F0BDC046C0
S1134F700C0200201802002000040040D529000083
S1134F80DD2800005128000000500041246080000A
S1134F903FF8FFFFFF8FFFFF78050020E776000052
S1134FA000E100E0FEE7C04670B52E4B2E4A9A425F
S1134FB003D02E4B2B4A9A4204D32D4B2D4A9A42AE
S1134FC010D31EE02C4A294B03339B1A9B08013350
S1134FD09B000022234824498C58845004329A426E
S1134FE0FAD1EAE7254A224B03339B1A9B08013383
S1134FF09B0000221F4800211418216004329A42A9
S1135000FAD11F4AFF211F4B8B439360FD39902334
S11350105B001D4AD1501D48C3780324A3430222D8
S11350201343C370C3780C26B34308210B43C370E6
S1135030174B987B3025A843051C202028439873E0
S1135040987BB04301439973997BA1430A439A73B4
S1135050104A516880230B4353600F4B98470F4B02
S11350609847FEE700000020107B00000C010020A0
S1135070A80600200C0100200400002010010020DC
S113508000ED00E00000000000700041005000410D
S1135090004800410040004189760000B5540000FA
S11350A010B58CB06846144B984701236A46537078
S11350B08022920069464A80FF3AFF3A0A73C0226E
S11350C05201CA8130220A716A468B740B4C201C2F
S11350D00B490C4B98472268537E5BB2002BFBDBD9
S11350E0117802230B431370044B1A68537E5BB28E
S11350F0002BFBDB0CB010BD1D1500009C0600202E
S1135100004000426515000030B5294B19684B7EFC
S11351105BB2002BFBDB0B691F229343184308612E
S11351204B7E5BB2002BFBDB4B7E5BB2002BFBDBCD
S11351300A7B022313430B734B7E5BB2002BFBDB16
S11351400120042502240B7EDBB2021C1A401D42FE
S113515000D022431C4200D02A431042F3D00A7EDE
S1135160D2B201231340500701D502200343920712
S113517001D5042213430020DB0716D54B7E5BB216
S1135180002BFBDB488B80B201230B760A7ED2B264
S11351901340540701D502242343920701D5042266
S11351A013435B0701D502230B76C0B230BDC04662
S11351B09C06002030B58DB06846144B9847802378
S11351C09B006A4653800023537018331373C02323
S11351D05B01D3810423D3750D4C0E4D201C291C77
S11351E00D4B98472223AB702268537E5BB2002B91
S11351F0FBDB117802230B431370054B1A68537EB3
S11352005BB2002BFBDB0DB030BDC0461D150000AA
S11352109C0600200040004265150000F0B557468A
S113522080B488B02B4FB84701902B4B1B681A1CD5
S11352302A4C2B4B18680092111CA047061C294BC2
S113524019680D1C284B1868A047011C274B9A4667
S11352500496301C9847061C01982549D0470295AE
S1135260291CA047011C234D0596301CA847011C8E
S1135270214E0098B047214B06901860204B1B68C4
S1135280191C204B18680391A047079006980099B1
S1135290A047011C0798A8470499D047011C03980C
S11352A0B047011C0198A8471149D0470299A0476B
S11352B0011C0598A847011C0098B0478621C90520
S11352C0B047114B9847C0B2B84708B004BC9246E7
S11352D0F0BDC0460D650000940600204161000049
S11352E0A406002078060020980600206D5C0000CB
S11352F000F07F45DD5E0000755900008406002043
S1135300880600207C0600204559000008B50928BD
S113531005D80A4B98470A490A4B98470CE063287A
S113532005D8064B98470849064B984704E0034BB9
S113533098470649034B984708BDC0460D650000D1
S1135340000020416D5C00000000C84200007A4467
S1135350F0B55F4656464D464446F0B487B03E4BE2
S11353601B6805933D4B1B680493059F0598059B9B
S11353709946059D059B0193049A0292049C24037B
S1135380240D374B1C80049E360D364B1E800005C1
S1135390000F35498B4688470390FF229046131C23
S11353A03B40181C314FB847314A92460399904705
S11353B0304B18602802000FD847051C4946080BDB
S11353C041460840B847291CD0472B4B1860019B25
S11353D01816B847294B9B469847294B9A460022F2
S11353E0284BD047021C0B1C27498946002027491B
S11353F0C847274DA847274B019018606B460820E3
S11354001856B847D84700221E4BD047021C0B1C25
S113541000201E49C847A8471F4B029018601F4F21
S1135420201CB847011C1E4D0198A8471D4C1E495D
S1135430A0471E4B1860301CB847011C0298A847AF
S11354401949A0471A4B186007B03CBC90469946CE
S1135450A246AB46F0BDC046306080003460800098
S11354608C060020800600200D5300007D6400009F
S11354707559000094060020A4060020D97200008B
S11354809D65000000408F40E56B00000000F03F88
S113549081730000880600207C0600200D65000052
S11354A0DD5E00006D5C000000F07F4578060020A2
S11354B09806002038B5174B9847174B9847174D57
S11354C001242C70BFF35F8F62B6154B00221A7053
S11354D05A709A70DA701C71124B9847124B9847A5
S11354E0124B9847124B9847124B9847124B9847C8
S11354F0124B9847124B9847124B9847124B9847B8
S1135500124B98472C70BFF35F8F62B6104B9847CD
S1135510FEE7C04615010000092A0000080100202A
S1135520F8020020AD050000FD090000010A00009A
S1135530C9080000A1500000710900009D09000085
S113554071060000150600002D040000050300008C
S1135550AD0F000008B5014B984708BD010A0000D3
S113556008B5014B984708BD0D0A000008B5044B67
S11355701B78002B03D0034B9847034B984708BD77
S11355801C0200202D3B0000110A000008B5014B4D
S1135590984708BD050A000008B5014B984708BDA7
S11355A0090A00000122024B1A7001207047C0460C
S11355B01C0200200022014B1A7070471C020020BC
S11355C07047C046002243088B4274D303098B42C0
S11355D05FD3030A8B4244D3030B8B4228D3030CBF
S11355E08B420DD3FF22090212BA030C8B4202D361
S11355F01212090265D0030B8B4219D300E0090A89
S1135600C30B8B4201D3CB03C01A5241830B8B4291
S113561001D38B03C01A5241430B8B4201D34B037A
S1135620C01A5241030B8B4201D30B03C01A5241DF
S1135630C30A8B4201D3CB02C01A5241830A8B4264
S113564001D38B02C01A5241430A8B4201D34B024D
S1135650C01A5241030A8B4201D30B02C01A5241B1
S1135660CDD2C3098B4201D3CB01C01A5241830965
S11356708B4201D38B01C01A524143098B4201D39F
S11356804B01C01A524103098B4201D30B01C01ACA
S11356905241C3088B4201D3CB00C01A5241830844
S11356A08B4201D38B00C01A524143088B4201D371
S11356B04B00C01A5241411A00D2014652411046D1
S11356C07047FFE701B5002000F0FCF802BDC046BA
S11356D00029F7D003B5FFF775FF0EBC4243891AC2
S11356E01847C04603460B437FD4002243088B422D
S11356F074D303098B425FD3030A8B4244D3030B55
S11357008B4228D3030C8B420DD3FF22090212BA19
S1135710030C8B4202D31212090265D0030B8B4295
S113572019D300E0090AC30B8B4201D3CB03C01A7F
S11357305241830B8B4201D38B03C01A5241430B5A
S11357408B4201D34B03C01A5241030B8B4201D34A
S11357500B03C01A5241C30A8B4201D3CB02C01AB5
S11357605241830A8B4201D38B02C01A5241430A2D
S11357708B4201D34B02C01A5241030A8B4201D31C
S11357800B02C01A5241CDD2C3098B4201D3CB01C3
S1135790C01A524183098B4201D38B01C01A524172
S11357A043098B4201D34B01C01A524103098B4276
S11357B001D30B01C01A5241C3088B4201D3CB0061
S11357C0C01A524183088B4201D38B00C01A524144
S11357D043088B4201D34B00C01A5241411A00D2F4
S11357E001465241104670475DE0CA0F00D049425D
S11357F0031000D34042534000229C4603098B42CD
S11358002DD3030A8B4212D3FC22890112BA030A54
S11358108B420CD3890192118B4208D389019211D6
S11358208B4204D389013AD0921100E08909C3095B
S11358308B4201D3CB01C01A524183098B4201D35D
S11358408B01C01A524143098B4201D34B01C01A48
S1135850524103098B4201D30B01C01A5241C308C0
S11358608B4201D3CB00C01A524183088B4201D32F
S11358708B00C01A5241D9D243088B4201D34B004A
S1135880C01A5241411A00D20146634652415B108C
S1135890104601D34042002B00D54942704763466D
S11358A05B1000D3404201B5002000F00BF802BDAC
S11358B00029F8D003B5FFF715FF0EBC4243891A3F
S11358C01847C0467047C0461C2101231B04984258
S11358D001D3000C10391B0A984201D3000A08397D
S11358E01B09984201D30009043902A2105C401834
S11358F07047C046040302020101010100000000D8
S113590000000000414208401C2101231B0498426E
S113591001D3000C10391B0A984201D3000A08393C
S11359201B09984201D30009043902A2105C401AF1
S11359307047C0461B1C1D1D1E1E1E1E1F1F1F1F41
S11359401F1F1F1F9E2110B5C905041C01F0D8FD9F
S1135950002803D1201C00F071FD10BD9E21201CE5
S1135960C90500F0EDFB00F069FD80231B069C4691
S11359706044F2E7F8B54A00430244004E02C50F02
S1135980240E281C9B09120EC90FB7098D4240D062
S1135990A01A002800DC84E0002A1CD1002F5CD16E
S11359A05A0704D00F221A40042A00D0043380225C
S11359B0D2041A40281C002A24D00134FF2C00D120
S11359C07BE09B015B0AE4B25B02E4055B0A2343D0
S11359D0C0071843F8BDFF2CE2D08022D20417433D
S11359E001261B2808DC391C20223E1CC140101A49
S11359F08640771EBE410E439B1B5A0133D4281C9C
S1135A005A07CFD1DB08FF2C1ED05B025B0AE4B23D
S1135A10DAE7A11A002957DD002A3AD0FF2CBFD0BB
S1135A208022D204174301261B2972DD9B195A01D7
S1135A30E5D50134FF2C00D187E001218A4A1940C1
S1135A4013405B080B43ABE7002B36D08022D20314
S1135A5013435B025B0AFF24B6E7013800283FD1F9
S1135A60DB1B5A01CBD59B019E09301CFFF72CFF91
S1135A7005388640844223DC001B1F24321C431C4F
S1135A80201ADA408640131C741EA64100243343B6
S1135A9086E7002F00D183E70139002950D1DB19B3
S1135AA0C5E7002820D1621CD2B2012A5EDDDE1BCC
S1135AB0720128D5FE1A0D1CD7E7FF24002383E7C3
S1135AC0694B241A33406BE7002958D1621CD1B2C8
S1135AD001293CDDFF2A37D0FB185B08141C5FE763
S1135AE0FF2C00D07CE75BE7002C1ED0FF2A23D0DC
S1135AF08024E404404223431B285BDD0123FB1A7A
S1135B00141C0D1CADE7002EAFD10023002000248F
S1135B1078E73A1CCA40944620223E1C511A8E4013
S1135B206246771EBE41164380E7002B3ED0C04339
S1135B300028E4D0FF2ADFD13B1CFF240D1C2FE7F3
S1135B40FF2C00D06FE72BE7FF2400235AE7002C3B
S1135B505AD1002B7FD0002F00D121E7DB195A0145
S1135B6000D44CE7404A0134134019E7002C15D106
S1135B70002B2FD1002F5DD03B1C0D1C10E7002CF7
S1135B8021D1002B53D0C943002904D0FF2A4BD084
S1135B901B2957DD0123DB19141C48E7002B22D1F4
S1135BA0002F4AD03B1C0D1CFF24F9E63B1C141C9F
S1135BB00D1CF5E61D1C2024C540201A8340581EE8
S1135BC083412B439BE7FF2A2ED08024E4044942DF
S1135BD02343DDE7002F00D1E2E6DA1B50013CD578
S1135BE0FB1A0D1CDCE6FF24002F00D1D8E680222E
S1135BF0DB08D203134204D0FE08164201D1331C41
S1135C000D1CDB00FF24CBE6002B0DD0FF24002F5E
S1135C1000D1C5E68022DB08D2031342F1D0FE088E
S1135C201642EED1331CECE73B1CFF24B8E63B1CC8
S1135C30141CB5E6231C0020E4E6802300209B040A
S1135C40FF24DFE61E1C2024CE40611A8B40591E1F
S1135C508B4133439FE73B1CA2E6131E00D0CEE6E4
S1135C6000230020CEE6C046FFFFFFFBF0B55646FA
S1135C704D465F464446F0B443024500C70F83B027
S1135C808A465C0A2E0EB94641D0FF2E26D08023C8
S1135C901B042343DC00002398469B467F3E534667
S1135CA05B025D0A53465A00DB0F120E9A4639D046
S1135CB0FF2A33D080231B042B43DD0000237F3ACB
S1135CC05146B21A46467940081C01921E430F2ED3
S1135CD000D976E07E4AB6009659B746002C30D1FA
