:1000000020270020D9560000D5560000D556000004
:1000100000000000000000000000000000000000E0
:10002000000000000000000000000000D5560000A5
:100030000000000000000000D5560000D55600006A
:10004000D5560000D5560000D5560000D556000004
:10005000E5210000D5560000D5560000054F0000F0
:10006000D5560000CD2D0000DD2D0000ED2D000047
:10007000FD2D00000D2E00001D2E00005937000040
:1000800069370000793700002D3800003D38000046
:100090004D3800000000000000000000D5560000B0
:1000A000D5560000D5560000D5560000D5560000A4
:1000B0000000000010B5064C2378002B07D1054B3B
:1000C000002B02D0044800E000BF0123237010BDC4
:1000D0001801002000000000AC810000084B10B5A2
:1000E000002B03D00749084800E000BF0748036819
:1000F000002B00D110BD064B002BFBD09847F9E731
:10010000000000001C010020AC810000AC81000058
:1001100000000000404A53681E218B431C390B43EA
:1001200053603E4A936906310B4393613C4B3D4A11
:100130009A829A8A02210A439A8219000222CB6883
:100140001A42FCD00122384B1A701A000121137890
:100150000B4203D053785BB2002BF8DB0122324B09
:100160009A601A0053785BB2002BFBDB2F4A2E4BB0
:100170005A601A0053785BB2002BFBDB8222D2015B
:10018000294B5A801A0053785BB2002BFBDB244AC0
:10019000938C80218B43938411001022CB681A42E8
:1001A000FCD0234A1E4BDA6219001022CB681A4297
:1001B000FCD01B4A938C1F490B43938411001022DF
:1001C000CB681A42FCD0164A938C02210B439384CD
:1001D0007E314020D3681942FCD0D3681842F9D050
:1001E0000F491022CB681A42FCD000220E4B9A60B5
:1001F0001A0053785BB2002BFBDB0F4A0A4B5A60A4
:100200001A0053785BB2002BFBDB044B00221A72FE
:100210005A729A72DA72704700400041000400403E
:10022000000800400C060000000C00400105010021
:10023000B805FF7D040A000000070300F0B5DE46A4
:1002400057464646C0B582B00190514B1B78002BF3
:1002500000D094E04F4A1378591CC9B211704E4A2D
:10026000D25CD0090023002804D15309DB014B489C
:10027000844663441F201040012282405A61484B4B
:100280001E78484B1B78013B98469E4200DB70E08D
:100290004548825D454B1A700136F6B2404B1E70E0
:1002A0003300855D42480570AA4235D1B04553DB25
:1002B0000800394A93461F22924601273A4C761A83
:1002C0000FE055462A403D0095404561E25C8B19A0
:1002D000DBB20093E05C8446824212D1080098456C
:1002E0002DDB411CC9B25A46125CD009844600205D
:1002F0006546002DE5D15009C001284DAC4660444B
:10030000DFE70500294B1A70254B68460078187006
:10031000274B1D701F4B1970FF2D1FD00021019C12
:100320002000244B9847224B1A7800212000224BB2
:10033000984702B01CBC90469A46A346F0BD65465D
:100340001A4B1A70164B684600781870184B1A70C2
:10035000104B19706246DFE71500DDE70021019CB4
:100360002000144B9847002200212000124B984790
:10037000DFE70022002101980F4B9847D9E70022C0
:10038000034B1A70002101980B4B9847D1E7C046E8
:10039000010000207002002074020020004400418F
:1003A00042020020000000204C0200203501002005
:1003B000340100207F3B00002F3B0000F0B5CE460B
:1003C00000B505239946134F3E00134D17E0013346
:1003D000DBB21A0063450BDAB85C511C7C5CA042AE
:1003E000F5D9B4547054A85C6C5CAC546854EEE716
:1003F00001235B429C46E1444B46002B06D0CC4691
:100400000022002349460029E6DCF1E704BC9146BE
:10041000F0BDC0463C02002044020020F0B500229E
:100420000D4B1A70002300260C4D0D4F0D4C0E483D
:1004300005E0F954C15CE1540133062B06D0E95CB8
:10044000FF29F6D00132D2B20126F2E7002E00D108
:10045000F0BD014B1A70FBE7000000203C020020B9
:100460004C0200207402002044020020064B0722A8
:100470001A70013A5A7030329A700B3ADA70013AB7
:100480001A710F3A5A71704744020020034BC0435F
:100490001870C9435970D2439A7070473C020020CB
:1004A00010B5074BC043D870C9431971D2435A7174
:1004B000044B9847044B98470122044B1A7010BD17
:1004C0003C0200206D040000BD0300003601002046
:1004D000044BFE221A705A709A70DA701A715A71AF
:1004E0007047C0463C020020094A802393614021A6
:1004F0009161944663448021C90399618021090177
:1005000099618021C900996180231B05936170471F
:100510000044004110B50400204B9847204B186858
:10052000C37B5BB2002BFBDB302383731D4B1B783B
:10053000002B15D100231C4A13701C4A13701C4B4E
:100540001A78FF2A24D1164B10211A6811735A7E8B
:100550008A435A76002200212000164B984710BD8E
:10056000154B9847154B1B5C1F221A4001239340E3
:10057000134A13600A4B5A7E10210A435A761B68AD
:1005800010225A730F4B98470022064B1A70D1E77E
:10059000002120000C4B9847DCE7C046E90400002E
:1005A0005402002036010020420200207002002088
:1005B0004C0200207F3B00005D380000A47D00005D
:1005C00000E100E01D0400002F3B000030B583B0C7
:1005D00001AC012363700022A27023702100072068
:1005E0000A4DA84721000620A84721003620A84729
:1005F00021002B20A84721002A20A84721001B20EA
:10060000A847034B984703B030BDC04649230000BC
:10061000E904000010B58EB001AA00230021137078
:1006200093711381002050709172D1721173917384
:10063000517311745361936111771362536213857F
:1006400053859385E023DB00938004239370FF217F
:100650002533D1540C4C0D4920000D4B984722688E
:10066000D37B5BB2002BFBDB138802210B4313808F
:10067000084B9847084B9847084B9847084B9847B2
:10068000084B98470EB010BD54020020002C0042C9
:1006900095380000D10400006D040000BD03000087
:1006A0001D040000CD050000F8B5CE46474680B5D4
:1006B000174C002217492000174DA847022217495E
:1006C0002000A8472068164B99469847154B984636
:1006D0001B5C1F26334001252A009A40124F3A60C6
:1006E000637E01221343637623685D731800C84755
:1006F00043461B5C1E40B5403D60637E10221343A1
:100700006376236810225A730CBC90469946F8BD54
:100710005402002015050000893700003D0200004A
:100720005D380000A47D000000E100E0034B802262
:10073000D2029A618022D2019A617047004400413E
:1007400030B583B001AC012363700022A270237026
:1007500021001220034DA84721000E20A84703B016
:1007600030BDC0464923000010B50A4B1B78002B52
:1007700008D10122074B1A700748084B9847084BCD
:10078000186010BD0022034B1A7000210248054B6F
:100790009847F6E7020000207C020020033B00009F
:1007A00038010020D13A000070B582B001AC0123BD
:1007B00063700026A670237021000320054DA84712
:1007C0000822054B5A61267021000F20A84702B06D
:1007D00070BDC046492300000044004110B58EB0F2
:1007E00001AA0023002113709370937113810020DC
:1007F00050709172D172117391735173117453616E
:100800009361117713625362138553859385A023F7
:10081000DB009380074C08492000084B984722686A
:10082000D37B5BB2002BFBDB138802210B431380CD
:100830000EB010BD7C020020003000429538000050
:1008400010B584B001AC2000084B98470F230193EA
:10085000F0231B036360022323720133E372210040
:100860000F20034B984704B010BDC046BD220000C6
:10087000D122000070B5064C0825A5616420054B07
:100880009847656100210448044B984770BDC046F5
:1008900000440041010B00007C020020D13A00001E
:1008A00010B5014B984710BD75080000004870470F
:1008B0003801002010B50C4C00220C4920000C4BD4
:1008C000984720680B4B98470B4B1A5C1F2313402B
:1008D000012211009940094B1960637E01210B43ED
:1008E000637623685A7310BD7C020020A1080000C3
:1008F000893700005D380000A87D000000E100E0BD
:1009000010B500220F210448044B984700210F2006
:10091000034B984710BDC0466907000099210000AD
:10092000C521000010B5024B9847024B984710BDF7
:10093000B50800000109000010B5024B9847024BB2
:10094000984710BDDD0700004108000010B5034BBB
:100950009847034B9847034B984710BDA9070000E1
:10096000390900002509000030B585B001AA064B01
:1009700013CB13C2054D064C01A92800A04700283F
:10098000FAD105B030BDC046AC7D00009C0200200D
:100990005D28000070B584B001AB5E221A805980DA
:1009A000029000221A725A729A72054E054D064C38
:1009B00001A93000A84720700028F9D104B070BD0B
:1009C0009C02002081280000C502002070B590B074
:1009D0000EAD00242C7001236B70AC702900172021
:1009E0002C4EB04729001620B04701AB642201927B
:1009F000294A029203941C731C76012252429A8265
:100A00000894099425329C540B9408329C5401326A
:100A10009C5401329C54A9321A86204ADA82C022A0
:100A2000920305921E4E1F4D1F4C01AA1F49300014
:100A3000A84720700028F8D1194B1C680722E369E9
:100A40001A42FCD12368022213432360144D286804
:100A5000174B98471F2318401E3B8340154A1360CD
:100A6000E88800231021628B0A4204D101338342BB
:100A7000F9D3102363830FA800230370062242706A
:100A80008370C37004210C4B98470C4B984710B0EF
:100A900070BDC04649230000480D0000409CFFFF88
:100AA0009C02002079230000C402002000180042AC
:100AB0009D2D000000E100E095090000690900009B
:100AC00070B50020084B98470500084CFA218900B2
:100AD000A047074B186007492800A047064B18603D
:100AE0000522064B1A6070BDBD2E0000F95C0000A7
:100AF0000400002040420F000800002010E000E049
:100B000030B5084B1C68084A00258021490201388D
:100B100007D3002CFBD05460956013680B42FCD0C7
:100B2000F5E730BD0800002010E000E0024B186A35
:100B30004005C00F7047C04680440041024B186A10
:100B40004005C00F7047C0468044004170B5AAB050
:100B5000174E01AC31002000164B98470723E37273
:100B6000F8336360FD3B2376002323756375E361EF
:100B70000122982162549339A1650F49A16723622C
:100B80009933E254953BE3650C4BE3670C4D22002F
:100B9000310028000B4B98472A68022193681942BC
:100BA000FCD1136802210B4313602AB070BDC0460C
:100BB00000200042A53100000400050004000400EC
:100BC000C8020020F132000030B583B004000D00EF
:100BD0001F4B1B78002B06D1802212051D4B9A61FA
:100BE00001221B4B1A701C4B1B78A34217D0012209
:100BF0006B461A7001AB9A700021D9705A70002CA4
:100C000016D1190005230B701520144B984769461F
:100C10000D20134B9847802292010E4B9A612A00B7
:100C200000211048104B98470B4B1C7003B030BD8F
:100C300001A905230B700D20084B98476946152024
:100C4000074B984780229203024B9A61E7E7C04620
:100C50003C010020004400410C000020CD30000089
:100C600049230000C8020020FD36000030B583B0E3
:100C700004000D001F4B1B78002B06D180221205AB
:100C80001D4B9A6101221B4B1A701C4B1B78A3420F
:100C900017D001216B46197001AB00225A70997070
:100CA000DA70002C16D1190005230B701420144B98
:100CB000984769460C20134B9847802252010E4BEF
:100CC0009A612A0001211048104B98470B4B1C7069
:100CD00003B030BD01A905230B700C20084B9847C9
:100CE00069461420074B984780225203024B9A61B1
:100CF000E7E7C0463C010020004400410D00002011
:100D0000CD30000049230000C8020020FD3600005D
:100D100010B500210120054B984700210120044B0C
:100D200098470022034B1A7010BDC046C90B000043
:100D30006D0C00003C01002010B5354B1A68D37BC8
:100D40005BB2002BFBDB80235371324B1B78002BF3
:100D500010D0314B1A78314B1A70314B1A88314B05
:100D60001A80314B1A88314B1A800023304A1360A5
:100D7000284A13702E4B1A8800212E482E4B984774
:100D8000264B1B78012B15D0022B1FD0254B198821
:100D90001F4C2000294B98472268D37B5BB2002B65
:100DA000FBDB00231371D37B5BB2002BFBDB402307
:100DB000537110BD1E4A13681E3313601B4A1288FC
:100DC0009342E3DB00221A4B1A60DFE71C4B1B78CF
:100DD000002B0DD0164A13683C331360134A128857
:100DE0009342D3DB124B1A600022154B1A70CDE7E9
:100DF0000F4B1B683C3B002B02DD0D4A1360C5E71F
:100E000000220B4B1A6001320D4B1A70BEE7C04630
:100E10004803002045010020180000204401002064
:100E20003E010020400100201A0000204201002065
:100E3000100000206403002071210000D13A00005E
:100E40001400002000B583B06846054B9847402346
:100E50006A46137003490448044B984703B000BD29
:100E60005920000000480042640300206D2000006B
:100E700010B582B001A8074B9847074C01AA002182
:100E80002000064B984700212000054B984702B0F0
:100E900010BDC04669210000640300206B210000E2
:100EA0006D21000000B583B001A901234B70002221
:100EB0008A700B703720024B984703B000BDC046C4
:100EC0004923000010B5044B19880448044B984787
:100ED000C043044B188010BD160000202A560000A5
:100EE000F95C00003E010020034B01211A681173D8
:100EF0005A7E8A435A7670474803002010B5034B48
:100F0000984780221204024B5A6110BDE90E00007E
:100F10008044004100B58FB001AA00230021137066
:100F2000937093711381002050709172D17211737C
:100F3000917351731174536193611177136253620A
:100F400053859385A023DB009380044B13850449CC
:100F50000448054B98470FB000BDC046D5A9FFFF18
:100F600000340042480300209538000010B50C4CB6
:100F700000220C4920000C4B984720680B4B9847E7
:100F80000B4B1A5C1F231340012211009940094B9F
:100F90001960637E01210B43637623685A7310BD89
:100FA00048030020390D0000893700005D3800003B
:100FB000B87D000000E100E010B50A4B98470A4BED
:100FC0001A68D37B5BB2002BFBDB138802210B4337
:100FD00013800648064B984780221204054B9A61FD
:100FE00010BDC0466D0F00004803002064030020C0
:100FF0002D2100008044004110B50B4B19800B4B94
:1010000018700B4B1A80002901D0002A02D1094B1D
:10101000984710BD0122084B1A700800074B9847EB
:10102000074B9847F5E7C04616000020180000203F
:101030001A000020FD0E000045010020C50E000032
:10104000B90F000010B5034B9847034B9847034B6B
:10105000984710BD450E0000710E0000150F0000EE
:1010600010B5024B9847024B984710BDA50E0000E3
:1010700045100000704770477047704770477047D1
:10108000F8B50400584B1B680133FF2B0ADC564AA5
:1010900013602378413BDAB2392A14D89300534ABB
:1010A000D3589F460022504B1A60F2E76578A67825
:1010B000E7783A00310028004D4B98473A0031005C
:1010C00028004C4B984700232370E3794A48C371AA
:1010D0004A4B9847F8BD0B20494EB047464D287003
:1010E0000320B0476870EEE7464A136C02210B43B9
:1010F0001364454B9847454B98471820404B9847F9
:1011000080B2434B9847434B98473B4B1870424B38
:101110009847D8E7A378002B02D12379002B08D079
:10112000A17860783D4B98472179E0783C4B98470F
:10113000C9E73C4B9847F3E723791B026279D21841
:1011400092B2A3781B02E178C91889B26078364B55
:101150009847B8E7354B9847354A137851780B4391
:1011600091780B43D27813435B060CD52F4F304D4B
:101170004026B8472B786A781343AA781343EA7855
:1011800013431E42F5D11C4B99221A70284A11783C
:101190005970517899709178D970D2781A7192E714
:1011A000244B9847144D2870234B984768708AE762
:1011B0000220134B9847104B187084E71F4B984739
:1011C00002780D4B1A7042785A707CE7064B1B6808
:1011D000094A13700133FF2B03DD0022024B1A6012
:1011E00071E7014A13606EE748010020BC7D0000F2
:1011F0008D040000A10400004C0100205D130000DC
:101200002558000000080040D5580000655A00002D
:101210003D59000061600000BD570000C90B00008F
:101220006D0C0000110D0000F90F000069090000AD
:10123000980200202D0B00003D0B0000AD080000BF
:10124000002070470B4B5B881A0A0020032A00D04D
:101250007047FC321A42FBD1064BDB88042BF7D1D6
:10126000044B054A9A60054A1A6104229A810130AA
:10127000EEE7C046CC050020600100203D130000D1
:101280000122014B1A7070475401002010B582B042
:10129000044B00930823044A00210220034CA0477A
:1012A00002B010BDE91200006C0100205945000099
:1012B00010B50023074A1370074A13700122074B29
:1012C0001A70074B9847002800D110BD054B98476E
:1012D000FBE7C0465C0100205801002054010020BB
:1012E0008D120000D95C000010B5002803D1082938
:1012F00002D0034B984710BD0248034B9847F8E7CC
:101300008D1200006C0100208110000010B5014B0F
:10131000984710BDE95C000010B5034B034A04492F
:101320000448054CA04710BD4512000030000020C5
:10133000580100205C010020E513000010B5044BAB
:101340009B89042B00D010BD0248034B9847FAE755
:10135000CC05002060010020F55C000070B582B073
:101360000500194B1878002801D102B070BDEFF3C9
:10137000108472B6BFF35F8F0022144B1A70144EA4
:10138000083200213000134B984708222900300012
:10139000114B9847114B0093082332000021812004
:1013A0000F4DA84701235840074B1870002C05D15A
:1013B0000122064B1A70BFF35F8F62B6024B18789A
:1013C00001235840D1E7C0465401002016010020F7
:1013D00064010020937D0000817D000081120000E7
:1013E0005945000070B5050014003B4A127850B210
:1013F000002805DB602422400020202A4FD070BD49
:101400006020024003D13448407806280DD00020E7
:10141000202AF4D1304A5278022A34D0032A38D014
:101420000020012AEBD19847E9E72C4B98470300AD
:10143000827A0020212AE2D1274A5288120A212AE0
:1014400013D0D97B00209142D9D1234A9460197CD2
:1014500009331B7A1B020B43D088191C9BB28342B1
:1014600000D9011C91810120C9E71B4A19000931EB
:1014700091605B7AD088191C9BB2834200D9011C11
:1014800091810120BBE7144B9D6001229A810120CC
:10149000B5E7114B996001229A810120AFE70E4A0E
:1014A00052780A2A06D00B2A0AD00020092AA6D18F
:1014B0009847A4E7084B5B881B0A2B7001209EE726
:1014C000054BDB880020002B00D098E7024B5B889F
:1014D0000B70013093E7C046CC0500207D1600005C
:1014E00010B5114B1B681A689478D3781B022343FC
:1014F000D2180378C018904210D24378042B0FD032
:101500008B420AD00378C018904205D24378042B4E
:1015100008D08B42F6D100E0002010BD0020FCE78F
:101520000020FAE70020F8E78001002010B5034B07
:101530005B887F201840024B984710BDCC050020E7
:101540002947000070B5194B1B780022002B29D0C9
:10155000174B1B681B681C79844223D9154A1360FA
:101560009A78DC78240214431C19A3421CD200256B
:10157000012607E00F4A13600FE01A789B18350028
:10158000A3420CD25A78042AF7D19A788242F4D135
:10159000DA788A42F1D1002DECD1012202E0054A2D
:1015A00013600022100070BD0022FBE77C010020C8
:1015B0008001002084010020F0B5C64600B504007B
:1015C0000021134B9847051E03D1280004BC904608
:1015D000F0BD104B1B685B68A200D3589846DB68CF
:1015E0009847010020000A4B9847051EEDD00A4B92
:1015F0001C680A4E0A4F05212000B047041E02D085
:101600008078B847F7E743465B689847DDE7C04610
:10161000451500008001002084010020E114000035
:1016200071420000F8B505000F4B9847002819D00B
:101630000E4B1C680E4E0F4F05212000B047041EB4
:1016400009D00379427912021A43C1788078B847E9
:101650000028F1D106E0084B1B685B68AD00EB5831
:101660001B689847F8BDC04645150000840100205E
:10167000E1140000C942000080010020014B1868FD
:101680007047C0468401002010B5014B984710BD3B
:10169000D947000070B5124B1B78002B11D0114BAD
:1016A0001B681B681B79002B0BD000240E4E0D4DC0
:1016B0002000B0470134E4B22B681B681B79A342B9
:1016C000F6D80022064B1A70084B1B889B0703D4E0
:1016D0000022064B1A8070BD054B9847F8E7C046BC
:1016E0007C01002080010020B91500007401002059
:1016F000CD5C000070B50E4B1B78002B17D00D4B46
:101700001B681A681279002A11D00024094D06E0DE
:101710000134E4B22B681A681279A24207D95B68D7
:10172000A200D3581B69002BF2D09847F0E770BD98
:101730007C01002080010020F8B5B64B00229A8180
:101740001A615A611B785AB2002A13DB60221A42CE
:1017500000D1D7E0AF4B1A781F231340012B00D1E3
:101760008EE1AC4B1A781F2313400020022B00D1CE
:10177000DFE1F8BDA74AD2880020002AF9D0602115
:101780001942E7D11F210B4008D1A2494978062907
:1017900023D0082900D184E0002917D0012B00D1E3
:1017A00087E0022BD6D19B4B5B780020002B00D02A
:1017B0002BE1022AD5D1974B1879974B9847974B35
:1017C000188002211800964B9847FDE0022AC8D1E4
:1017D00002319448924B9847F6E08E4B5A88130A90
:1017E000022B23D0D9B202290FD9032B34D00F2BCF
:1017F00000D09CE18C4B98680028B2D08378C178E7
:1018000009021943864B984707E0012B00D08EE16F
:10181000854B18680178824B98477E4BDA889B8904
:10182000934200D8D0E07B4B9A81CDE0D2B27E4B80
:101830001B685B7C934200D893E77B4B5B68D200CC
:10184000D0588378C17809021943754B9847714B7A
:101850009B6802225A70E0E7FF231A40012A1DD03C
:10186000002A16D0022A00D074E7704C0921704A71
:1018700002320023E05C108001330232D8B2884289
:10188000F8D3490002316A48017089B2644B984725
:10189000C3E704216748624B9847BEE7664C1621B0
:1018A000E5E7012A00D05CE7012164485C4B9847DA
:1018B0008AE0584949780A2900D072E7012A00D005
:1018C000DEE05E4B1B78002B00D1D9E0514B1C7938
:1018D0005B4B1D682B681B79A34200D8D0E0002128
:1018E0002000584B9847002800D133E76B68A400CC
:1018F000E358DB689847544B187001211800484B97
:10190000984761E01F22134072D1424A5278032A5D
:101910005CD0D1B203293BD9052A4DD0092A67D121
:101920003C4BDB88002B00D01BE7484B9847002836
:1019300000D10FE7374B9A783B4B1B685B7C9A4290
:1019400000DD07E7424B9847324B9B783B4A1370C8
:10195000002B39D03F4A94466344DB00324A526838
:10196000D318374A13601B681B79002B2CD0002436
:10197000394D160000212000A847002800D1E9E6D3
:101980000134E4B233681B681B79A342F2D81BE030
:10199000012A2DD11F4BDB88002B00D0E1E61D4B27
:1019A0005B88012B00D0DCE61E4A138802218B43A2
:1019B00013802A4B984707E0164BDB88002B00D09A
:1019C000CFE6274A134B1A610120D2E6114BDB8880
:1019D000002B00D0C5E60F4B5B880020012B14D1F3
:1019E000104A138802210B4313801E4B9847EBE7E4
:1019F000012B39D0022B00D0ACE6064B5B78012BD3
:101A000074D0032B00D180E00020002800D0B0E685
:101A1000A0E6C046CC050020D1430000760100209E
:101A20004947000074010020680000200C010020DC
:101A3000C0000020F0000020F40000207C01002005
:101A40008001002045150000780100203947000082
:101A500095160000FFFFFF1F25160000CD5C00005B
:101A60002D150000C15C0000464A52780B2AC1D1F6
:101A7000444BDB88002B03D1434B1B78002B27D131
:101A8000414B1B780020002B00D172E63D4B1C79A6
:101A90003E4B1D682B681B79A34200D869E60021E4
:101AA00020003B4B9847002800D15AE66B68A20003
:101AB000D558EB68984701002000354B984700281F
:101AC00000D14EE6AB689847002800D051E648E6C2
:101AD0002C4B1D795C8828002E4B9847002800D19C
:101AE00038E6E1B228002C4B98478EE7254BDB887F
:101AF000002B00D035E6234B5B88002B00D030E66E
:101B0000204B1879254B98477FE71E4BDB88002B2D
:101B100000D026E61B4B5B88002B00D021E6194C39
:101B200020791F4B984720791E4B98476DE700207E
:101B30006BE7154B1B78002B00D11AE6134B1B6883
:101B40001A681279002A1AD00025114E0F4F5B68CF
:101B5000AA00D458E368984701002800B04700283D
:101B600000D106E6A3689847002800D001E60135B9
:101B7000EDB23B681A681279AA42E8D8F9E500206C
:101B8000F7E5C046CC0500207C0100208001002044
:101B900045150000B9150000251600001545000088
:101BA00025420000E54300000C4B1B68002B06D1CA
:101BB000EFF31083002B07D00022094B1A70074A5D
:101BC000136801331360704772B6BFF35F8F002252
:101BD000044B1A700132024B1A70F0E788010020A2
:101BE0008C01002016010020084B1A68013A1A6087
:101BF0001B68002B09D1064B1B78002B05D0012256
:101C0000044B1A70BFF35F8F62B6704788010020E3
:101C10008C0100201601002010B500220023027064
:101C2000427000214280017103760262C2618260CB
:101C30000373C0246401C481037443748374C37444
:101C400003752A24035543758375063C0355C284E6
:101C50000285C1752B23C1540133C15410BD00004E
:101C6000F0B5D6464F464646C0B596B007001600BA
:101C70000160CB4A106A80235B02034313620B7836
:101C80000520DB0705D516B01CBC90469946A24638
:101C9000F0BD0B7817309B07F5D473783B71002BA0
:101CA00004D1C04A136C04210B4313643B6898466B
:101CB00033786A46137069461E20BB4B98471E2036
:101CC000BA4B98472C23F25C002A54D0013BF55CB8
:101CD000337BEB18DBB2D118C9B28B4221D2521937
:101CE000D3B29946B24B9A4603E00135EDB2A9450D
:101CF00017D00F242C40337BE4185022AD4902A8A2
:101D0000D047132CF1D8A40002ABE05801A900235E
:101D10004B70CB708B7001330B70C0B2A64B9847E1
:101D2000E3E7F4895022A34902A8A14B9847132C5A
:101D300013D9737D9B00DBB242461370B37DDB0188
:101D400072781343DBB2424653703379342B00D997
:101D500078E19B00994AD3589F46A40002ABE05813
:101D600001A900234B70CB708B7001330B70C0B294
:101D7000914B9847DDE7347B50228E4902A88C4B6B
:101D80009847132C15D9F48950228A4902A8884B08
:101D90009847132CCDD8A40002ABE05801A900232A
:101DA0004B70CB708B7001330B70C0B2824B984775
:101DB000BFE7A40002ABE05801A900234B70CB7031
:101DC0008B7001330B70C0B27B4B9847DBE7042369
:101DD000102402211AE0717C337C102416E00623C3
:101DE0001024012112E00823102400210EE000231A
:101DF000302400210AE000232024002106E00023F3
:101E00000024002102E00223102401210901702294
:101E10000A40134342469370F37D17203F2B00D9AD
:101E200031E7D3703A68537E5BB2002BFBDBF37C67
:101E3000728813432422B25CD2001343327D920095
:101E40001343B27C52001343234342469380337EB4
:101E5000002B20D0102C00D1D6E000D880E0202C20
:101E600000D1B3E0302C16D1F27C002A0AD0F269FE
:101E700080321720FF2A00D905E7326A8032FF2A14
:101E800000D900E71720F269FF2A00DDFBE6326A7D
:101E9000FF2A00DDF7E639684A7E52B2002AFBDBF2
:101EA000424613723A68537E5BB2002BFBDBB38B66
:101EB000424693833A68537E5BB2002BFBDB338C44
:101EC000424613842C23F35C002B05D0013BDBB28C
:101ED00017200F2B00D9D6E62B22B15C17200F2933
:101EE00000D9D0E63868427E52B2002AFBDBF28984
:101EF000307B0243B068024309050A431B041343C5
:101F0000424613612A23F35C13750F23937515332F
:101F1000F35C002B12D0F38C294A1720934200D98E
:101F2000B1E642469384328D80231B01D3182449A5
:101F30009BB28B4200D9A6E64346DA84214B1B684C
:101F40005B01E022D20013401F4A51684901126828
:101F5000D20E0A43D2B2134342461385002092E6C2
:101F6000002C98D1F27C002A0FD0F269802109015F
:101F70008C466244124917208A4200D983E6326AAD
:101F800062440F498A4200D97DE60D4A1720F16963
:101F9000914200DD77E6316A914200DD73E67AE72F
:101FA0000004004000080040D52F0000492F000029
:101FB000817D0000787F0000CD300000A47E00000D
:101FC000FF0F00002460800020608000F27C002A67
:101FD0000FD0F269802189008C4662441A4917208B
:101FE0008A4200D94FE6326A624417498A4200D9D0
:101FF00049E6154A1720F169914200DD43E6316A4E
:10200000914200DD3FE646E7F27C002A0FD0F269FC
:10201000802109028C4662440C4917208A4200D96B
:1020200031E6326A624409498A4200D92BE6074AFE
:102030001720F169914200DD25E6316A914200DD09
:1020400021E628E717201EE6FF030000FFFF00003F
:102050000368D879C00970470023037001224270D9
:10206000837003714371C37083717047F0B5C646C6
:1020700000B582B0050014000160274A106A802371
:10208000DB02034313620B781C209B0703D502B0CD
:1020900004BC9046F0BD0B781738DB07F7D401A9D4
:1020A000E3780B701C301D4B984721201C4B984740
:1020B00000266B465E70DE7001236A4613709670D0
:1020C00069460220174B98472B68984663782B7116
:1020D000AE71A3795A1E93419B002678A278002AFC
:1020E00001D0042216432279002A01D0102216437F
:1020F0006279002A01D008221643DBB242461370EF
:10210000094F2800B8470028FBD1F6B243465E705D
:1021100023786B71BBE7C04600040040D52F000058
:10212000492F0000CD3000005120000070B50400A0
:1021300006687378027913437370094D2000A8472D
:102140000028FBD133780222134333706379002BCC
:1021500004D1044A136C04210B43136470BDC046C0
:102160005120000000080040704770477047000091
:10217000F8B5040017000668064D2000A84700289F
:10218000FBD1A379002B02D137810020F8BDB781A4
:10219000FBE7C046512000001723002A01D0180099
:1021A00070478B00064A9B58002B03D0834205D012
:1021B0001D23F4E7890088500023F0E70023EEE7B1
:1021C000740300201723002901D018007047002253
:1021D0001F2800D8024A01238340D3600023F4E77C
:1021E0000018004070B50022104B1A7000231049EF
:1021F0001F25104E0D4C0AE00D4908E023780133ED
:10220000DBB223700F2B10D800211F2BF4D928002C
:1022100018400122824008691042EFD00A619B00F9
:102220009B59002BEAD09847E8E770BD7103002066
:102230000018004074030020044A137802210B4365
:10224000137053785BB2002BFBDB70470018004023
:1022500000B583B0124A936940210B43936101A9F1
:1022600000230B7005200F4B984705200E4B984715
:102270000E4A137801210B43137053785BB2002B85
:10228000FBDB0B4B19004031002204C39942FCD107
:102290001022084B1A60084B984703B000BDC04697
:1022A00000040040D52F0000492F00000018004016
:1022B0007403002000E100E03922000000230360E5
:1022C000436001220272427283720233C37270470A
:1022D000F0B583B005000C0001A900234B70CB7052
:1022E00023790B70237A8B702078154B9847002048
:1022F0001F2D00D8134807222A409200E77AA37ABC
:10230000002B01D008231F43EB089B00C3189969D9
:102310000F269640B14397403A000A439A61637A88
:10232000002B06D143690122AA409343436103B0C5
:10233000F0BD42690123AB4013434361F7E7C04658
:10234000CD3000000018004000B583B001AB802202
:102350001A700A785A704A789A708A78DA70190076
:10236000014B984703B000BDCD3000000168072243
:10237000CB691A42FCD17047F0B5C64600B582B0B1
:1023800007000D00160039600800674B9847674A40
:10239000116A841C0123A3400B43136201A9337B00
:1023A0000B701430C4B22000614B98472000614B81
:1023B0009847307B0021604B98472B681C209B0777
:1023C00003D502B004BC9046F0BD2B681738DB077C
:1023D000F7D43868544B9846984704005749584BEF
:1023E0009847A400574BE75000233B767B760024A8
:1023F0007B83BB832522BC543B6214332B603D6836
:102400002800C04780236A461370547001239370DC
:10241000D470F069346A002870D06B4618700223BB
:102420006A465370000CC0B26946474B9847002C6F
:1024300069D06B461C7002236A465370240CE0B2CC
:102440006946414B9847B38AFB80F38A3B81337ED0
:102450008022002B04D13D4B9B789B07DB0FDA01D8
:102460003369B1680B4313432422B25C002A02D0C3
:102470008022D2051343B26A13432C22B25C002A95
:1024800002D08022120513432D22B25C002A02D012
:102490008022120413432E22B25C002A02D0802232
:1024A000D20313432A6813432B6080235B006B60C5
:1024B000FA27BF0033685F437B009846308E244C78
:1024C00060432449244B98470A307843201A4044FB
:1024D00001384146214B984704004020FF2C00D989
:1024E0006FE77368FA21C90059431D4BC8181A4B8E
:1024F00098470138FF280CD9402062E700212800C6
:10250000184B984789E701212800164B984704008B
:102510008FE70004FF231B041840FF2323401843C8
:10252000E86000204DE7C046252D00000004004073
:10253000D52F0000492F0000612B000075290000F5
:10254000612D0000B4030020CD30000000200041C8
:10255000006CDC0200CA9A3BF95C00000D5E0000D2
:10256000FF6BDC02AD2B000003681A7E920707D5D3
:1025700002221A765B8B9B074120DB1718407047BD
:102580005A8B520706D55968C02292020A435A60F4
:102590001820F4E70020F2E730B502680023012498
:1025A0000225117E21420BD1117E294206D1013331
:1025B0009BB201899942F4D8122002E0002000E089
:1025C000002030BD10B5046862688023DB0213432D
:1025D00063606162024B98470123237610BDC046B9
:1025E00099250000F0B5DE4657464E464546E0B513
:1025F00083B00600894605684C882B681B01DB0FF9
:102600009A464B7A002B23D16B68514A13406B607A
:102610004B461B7A002B1FD14B461B885B004A465A
:10262000527A92031343012213436B623000494BE9
:10263000984701906B68464A13406B60002834D07D
:10264000019803B03CBC90469946A246AB46F0BD0B
:10265000897A414B9847D7E74B461B885B004A462F
:10266000527A920313438022120213436B623000AA
:10267000384B984701906B68354A13406B600028CF
:10268000DED13000354B984701900028D8D14B4619
:102690001B881B0A782213435B004A46527A920336
:1026A00001210A4313436B62C0E730002B4B98476C
:1026B00001900028C4D1013CA4B28046284B9B461F
:1026C00015E0012C20D03000264B984743465F1C74
:1026D000BFB22823EB5C4A4652684146535430004F
:1026E0001C4B9847013CA4B2002815D1B8465C4564
:1026F00014D06B8B9B0627D5F37A002BE3D053467F
:10270000002BDED1002CDED16A688023DB0213436C
:102710006B60013CA4B2EAE7B8460190B37A002BA3
:1027200009D130000F4B98472823EA5C4B465B6881
:1027300041465A5484E730000A4B98476A68C023E0
:102740009B0213436B60ECE74123019378E7C0469B
:10275000FFFFFBFF99250000C5250000692500004B
:10276000FFFF00006D230000F0B5DE4657464E46E1
:102770004546E0B583B006000F0005684C88324B33
:1027800098477B7A002B1DD16B68304A13406B60F1
:102790003B7A002B1BD03B885B007A7A9203134371
:1027A0008022120213436B623000294B984701903C
:1027B000002813D0019803B03CBC90469946A2462D
:1027C000AB46F0BDB97A3000224B9847DCE73B8836
:1027D0005B007A7A920313436B62E5E730001E4B8D
:1027E0009847031E0190E5D1A04600242033994666
:1027F000154B9B46164B9A46444515D06B8B4A4663
:1028000013421DD03000D8477B681A5D2823EA5454
:102810003000D047002806D16B8B01345B07EBD525
:102820001E23019300E00190B37A002BC2D0300048
:10283000054B98476A68C0239B0213436B60B9E756
:1028400041230193B6E7C0466D230000FFFFFBFF65
:1028500099250000C52500006925000010B5838B6F
:102860009BB20522002B01D0100010BD83720133F2
:10287000C372024B98470200F6E7C046E525000008
:1028800010B5838B9BB20522002B01D0100010BD28
:1028900001338372C372024B98470200F6E7C046C9
:1028A0006927000001680722CB691A42FCD17047F2
:1028B00070B5040006683268458B838BED1AADB2A3
:1028C000838B013B9BB2838313011DD5C37A002BFD
:1028D00003D0838B9BB2012B10D0A38B9BB2002B18
:1028E00002D1A37A002B1CD12000124B9847236AF7
:1028F0005D192823F35CDBB22B7070BD72688023F6
:10290000DB0213437360E8E7C37A002BE5D0838BC7
:102910009BB2002BE1D172688023DB02134373600A
:10292000DBE72000034B98477268C0239B021343E8
:102930007360D9E7A528000070B5040005686B8BAB
:102940005B0703D51E222523C25470BD468B838BA3
:10295000F61AB6B2838B013B9BB28383044B984734
:10296000236A9E193378DBB22822AB54EDE7C046C8
:10297000A528000070B58000754BC45825682B68E9
:102980001B01DA0F637E267E1E40638B9BB2002BF9
:1029900003D1A38B9BB2002B23D1638B9BB2002B63
:1029A00008D0A38B9BB2002B04D12533E35C052B0D
:1029B00000D16DE0638B9BB2002B24D0A38B9BB224
:1029C000002B20D06B8B9B0600D581E0002A04D021
:1029D000A38B9BB2012B00D17AE041222523E25444
:1029E00011E02B7EDB0733D501232B766B8B9B0706
:1029F00002D541222523E254A38B9BB26383252376
:102A0000E35C052B38D0638B9BB2002B07D0A38BE4
:102A10009BB2002B03D12533E35C052B64D0252327
:102A2000E35C052B13D02523E35C002B0FD003239D
:102A30002B7500236383A3832533E35C412B03D0F1
:102A4000A37A002B00D075E0730700D57BE070BD42
:102A50006B8B5B07D0D518222523E2540023A38378
:102A6000A37A002BC8D020003A4B98476A68C0234D
:102A70009B0213436B60BFE71F33E35C002B03D063
:102A80002000354B9847BEE72000344B9847BAE703
:102A90001F33E35C002B00D08CE703332B7500233E
:102AA000638325330022E254A37A002B07D101234C
:102AB0002B76F307A7D5E36820009847A3E720000B
:102AC000244B98476A68C0239B0213436B60F0E76E
:102AD0002423E35C002B03D12000204B984792E78E
:102AE00020001D4B98478EE71F33E35C012B96D1E6
:102AF0002B7E9B0701D502232B7603232B75002306
:102B0000638325330022E254B30703D52423E35C17
:102B1000012B0BD0F30700D481E72423E35C002BC7
:102B200000D07CE7E3682000984778E7236920001D
:102B3000984774E72000074B98476A68E023DB0258
:102B400013436B6080E76369200098477FE7C046C6
:102B5000B4030020A5280000B12800003929000096
:102B600010B582B004000E4B1B78002B07D0002953
:102B700005D10B4B5B78834210D01D200CE001A9DE
:102B80000C701320074B98471320074B9847044BB2
:102B90005C7001221A70002002B010BD0020FBE71B
:102BA00090010020D52F0000492F0000404B984293
:102BB00031D00AD93F4B98424DD03F4B98425AD022
:102BC0003E4B984237D0002070473D4B98420CD086
:102BD0003C4B9842F7D1012917D000295DD002293A
:102BE00015D0032915D00020EEE7012907D00029D0
:102BF00051D0022905D0032905D00020E4E732484E
:102C0000E2E73248E0E73248DEE73248DCE73248C4
:102C1000DAE73248D8E7012907D000293FD0022956
:102C200005D0032905D00020CEE72D48CCE72D485C
:102C3000CAE72D48C8E7012907D0002931D0022969
:102C400005D0032905D00020BEE72848BCE7284866
:102C5000BAE72848B8E7012907D0002923D002297C
:102C600005D0032905D00020AEE72348ACE7234870
:102C7000AAE72348A8E7012907D0002915D002298F
:102C800005D0032905D000209EE71E489CE71E487A
:102C90009AE71E4898E71E4896E7032094E71D48E8
:102CA00092E71D4890E71D488EE71D488CE7C04617
:102CB0000010004200180042001C004200140042B4
:102CC00000080042000C004203000500030006005B
:102CD000030007000300010003001E0003001F00A3
:102CE0000300090003000A0003000B0003001100A9
:102CF000030012000300130003000D0003000E0088
:102D000003000F0003001700030018000300190060
:102D100003000400030008000300100003000C007F
:102D20000300160030B587B00B4B6A4632CB32C277
:102D300032CB32C2009B83420BD001239A006946FA
:102D40005258824206D00133062BF7D1002007B03B
:102D500030BD0023D8B2FAE7C87F000070470000FA
:102D6000F0B50A4B1B78002B0CD1094F094E0A4DC8
:102D70000024DE515A1914600433182BF9D10122B2
:102D8000024B1A708000024BC150F0BD920100202E
:102D9000940100205D2D0000B403002000B583B035
:102DA00009236A4613700133537001339370013362
:102DB000D3700133137101335371034B98476B4642
:102DC000185603B000BDC046252D000010B5024BBB
:102DD0001B680020984710BD9401002010B5024BDD
:102DE0005B680120984710BD9401002010B5024B8C
:102DF0009B680220984710BD9401002010B5024B3B
:102E0000DB680320984710BD9401002010B5024BE9
:102E10001B690420984710BD9401002010B5024B97
:102E20005B690520984710BD9401002010B5082863
:102E300003D880001B4B1B589F46002030E01A4BE4
:102E400018692DE0194B1B6A9B059B0F1848D84049
:102E500026E0154B586923E0134B1B6800209B07A5
:102E60001ED512491022CB681A42FCD00E4B1B68AB
:102E70005B0701D40F4813E000200F4B98470A4B23
:102E80009B681B041B0C58430AE05023074AD35C81
:102E900000205B0704D5044BD86801E080200002C5
:102EA00010BDC046E07F0000AC01002000080040DB
:102EB00000127A00006CDC02F12F000070B50400F3
:102EC0001A4A53785BB2002BFBDB194B9847194B1E
:102ED0001C70164A53785BB2002BFBDB134E7068F4
:102EE000C004C00E144B98470500124B1C70766846
:102EF000F602F60F114B1C700C4A53785BB2002B94
:102F0000FBDB0A4B9C682402240C0D4B9847002ED7
:102F100007D1012C07D9210028000A4B984705004A
:102F200001E00134E540280070BDC046000C0040BF
:102F3000A91B0000040C00402D2E0000080C0040CE
:102F4000E91B0000F95C000010B50400064B98472F
:102F5000064B1C70064A53888021C9010B435380DD
:102F6000044B984710BDC046A91B0000020C00404E
:102F7000000C0040E91B000010B504000F4B9847FF
:102F80000F4B1C700F4A53881B05180F53880E49AE
:102F90000B40538053880D490B4053801100802211
:102FA000D2014B881342FCD106494A8803020648E5
:102FB000024013434B80064B984710BDA91B0000ED
:102FC000020C0040000C0040FFF0FFFFFFBFFFFFBE
:102FD000E91B000010B50C7824020443024B98470B
:102FE000A4B2024B5C8010BD792F0000000C0040A1
:102FF00010B50400064B9847064B1C70064B5C88C6
:103000002405240F054B98472000054B984710BD19
:10301000A91B0000020C0040000C0040E91B00004E
:10302000BD2E000030B5D378002B35D11378802B1E
:1030300029D01B0680246402234354780225AC4324
:1030400006D19478002C20D18024A402234341602F
:103050005478013C012C1CD90D042D0CA024E4054E
:103060002C431C4384620D0CD02424062C431C43A7
:103070008462D478002C22D15B031CD59378012B79
:103080001ED0416117E00023D7E7C024E4022343A8
:10309000DDE70D4C2340DFE741600C04240CA02346
:1030A000DB05234383620C0CD0231B06234383627E
:1030B000D378002B03D15378013B012B02D930BDCB
:1030C0008161F8E78160FAE7FFFFFBFF10B50A00B6
:1030D000C1090023002904D14309DB0105498C46BD
:1030E00063441F242040012181401800024B98476F
:1030F00010BDC046004400412530000010B5014B12
:10310000984710BD51220000094B98420CD0094B42
:10311000984207D0084A0023904201D01800704717
:10312000023302E0012300E00023DBB2F6E7C046F1
:10313000002000420024004200280042F8B50F00A1
:1031400015001E0004682000134B9847134B1A5CAF
:103150001723BA4201D81800F8BD8000104BC2589E
:103160001723AA42F7D3002E0AD080221203BA40B6
:10317000A3681A42FCD11C37BF003D510023EAE787
:1031800080225200BA40A3681A42FCD11037BF0017
:10319000E41965600023DEE70931000010800000BB
:1031A0001880000010B5040008004F4B984700231A
:1031B000236080004D4A82586260A372E3722373D9
:1031C00063722372E36123626362A3622375637592
:1031D000A375E3752376637623746374A374E37431
:1031E0002C22A3540132A3540132A3540132A3541C
:1031F0000132A3540132A3540132A3540132A35427
:103200000132A3540132A3540132A3540132A35416
:103210000132A3540132A3540132A3540132A35406
:103220000132A3540132A3540132A3540132A354F6
:103230000132A3540132A3540132A3540132A354E6
:103240000132A3540132A3540132A3540132A354D6
:103250000132A3540132A3540132A3540132A354C6
:103260000132A3540132A3540132A3540132A354B6
:103270000132A3540132A3540132A3540132A354A6
:103280000132A3540132A3540132A3540132A35496
:103290004132A354A365A3670132A354E365E367F6
:1032A0000132A35423661A3AA3501B32A354636617
:1032B000173AA3501832A354A366143AA3501532F8
:1032C000A354E366113AA3501232A35423670E3A73
:1032D000A3500F32A35463670B3AA35001210C3261
:1032E000A1540132A35410BD093100001880000020
:1032F000F0B5DE4657464E464546E0B591B00190E2
:103300000C0015000800C34B984703000100C24899
:10331000026A9E00C14FF7593A43026222681C209C
:10332000920706D511B03CBC90469946A246AB46E2
:10333000F0BD226801271740F4D1B9483258172050
:103340002E68B242EED36E68B242EBD3E869824295
:1033500000D2B9E1286A824200D2B7E1686A8242AB
:1033600000D2B5E1A86A824200D2B3E19822944625
:10337000AC4462460892002003E001300132082884
:1033800008D01678002EF8D0A64E765C8642F4DC83
:103390001720C7E70022029280204004844602E002
:1033A0000132042A0ED0A818007C0128F8D19E48CA
:1033B000405C904200DA8FE160469040029E0643F6
:1033C0000296EDE79D32AA5C002A04D08022120109
:1033D0000299114302912A7A511E8A419200069263
:1033E0006A7A012A22D0904AD25C110005923522D5
:1033F000AA5C8A4200D379E12C21695C0F2900D9AB
:1034000074E1287B0A90E87A0B902D208246AA442A
:10341000002004970EAE0796C0263601B1468446BA
:10342000A046280055460993824635E00699114387
:103430000691D8E792024F463A400A4319798B46E3
:1034400003215F4639400A4316435A7952016021ED
:103450000A40324399790902C026B6000E4016434D
:10346000DA791203E021C9010A4016433443039A72
:1034700014432043624607995050042A2AD09A7C6C
:103480000599914200D831E1597A0A3504239B46C7
:10349000DC440F2900D929E10906F0231B05194056
:1034A0002B002E783604FF20000406406878802424
:1034B000002800D1049C987808270397002801D1A0
:1034C00004980390D878834610205F46002FB1D12E
:1034D0000498AFE744465546099B524AD25C914650
:1034E0005146503150464130002700220126B24655
:1034F0000226FF36B34680267602B046A4461C005C
:103500004B460FE00678002E07D0934200D8E7E044
:10351000022E14D056469640374301320131023014
:10352000082A10D00E78002EECD0934200D8D5E0B7
:103530004646964037430678002EE9D1EDE75E46D1
:1035400096403743E9E79946230064466A7E1201B4
:1035500030211140287E07220240114300228020A2
:1035600040020E0002E00132042A0BD0A918097DA6
:103570000029F8D00599914200DCB3E001009140A8
:103580000E43F0E7B24601980200043234300021C5
:1035900002C28242FCD100220198426382639900F8
:1035A000224A88500460A022A95C643A81540DA983
:1035B000AA7A0A701E4AD65C30001E4B984730002B
:1035C0001D4B98474B46002B3CDD2E005836983358
:1035D0009846A84401239946AB464546A046089C18
:1035E00003E001340436AC422AD02378002BF8D013
:1035F0000CAB4A469A7000230CAAD3701300202209
:10360000B21812781A704A465A70307819000B4B6B
:103610009847E6E7093100000004004004800000FC
:10362000188000002480000010800000CC030020DF
:1036300014800000D52F0000492F0000CD3000007D
:1036400044465D460A9B1B030B9A12021343029ADF
:10365000134323600422A3681A42FCD1FF23237181
:103660000422A3681A42FCD16B461B7E63710E9B39
:10367000E3600F9B2361A7611D4AA3681342FCD13D
:103680005346E3631022A3681A42FCD12B6863639C
:10369000184AA3681342FCD16B682364059800287C
:1036A00022DD1C350021144E32008A40A3681A42E4
:1036B000FCD104CD0B0010339B00E3185A6001319C
:1036C0008842F1DC00202DE617202BE6172029E6A2
:1036D000172027E6172025E6172023E6172021E6E6
:1036E00017201FE617201DE600201BE6172019E60D
:1036F00040000200800004000001080010B53C23D7
:10370000C35C014CA04710BD3D310000F0B5C6467A
:1037100000B580000E4BC7583B68DE6ABB6B7A6B06
:1037200013401E4000240B4B984602E00434302C1A
:103730000AD04346E5583542F8D03B195B6838005B
:1037400098473B68DD62F1E704BC9046F0BDC04697
:10375000CC0300202880000010B50020014B9847C2
:1037600010BDC0460D37000010B50120014B984731
:1037700010BDC0460D37000010B50220014B984720
:1037800010BDC0460D370000931C9B001950022A43
:1037900009D0032A0CD0012393401A00037E13435F
:1037A000037600207047037E102213430376F8E768
:1037B000037E202213430376F3E7000070B58000F8
:1037C000194BC45823689D7B227E637E13401D40A5
:1037D000EB070CD4AB0711D423689D7B227E637E5C
:1037E00013401D40EB0610D4AB0615D470BD20006D
:1037F000A3689847012322689373EBE72000E368EE
:103800009847022322689373E6E7200023699847CC
:10381000102322689373E7E72000636998472368C1
:1038200020229A73E2E7C046D803002010B500209A
:10383000014B984710BDC046BD37000010B50120B0
:10384000014B984710BDC046BD37000010B502209F
:10385000014B984710BDC046BD37000030B585B05C
:1038600001AA0B4B32CB32C2019B98420DD0029B76
:10387000984208D00023039A824202D0180005B073
:1038800030BD023302E0012300E00023DBB2F5E7A4
:1038900058800000F0B587B004000D001600080045
:1038A000854B9847070005AB1B221A7001325A70EE
:1038B0009A7003AB802212011A80802252015A8032
:1038C000802292019A800023A360E36023616361F8
:1038D000237663768200794BD4502560B378082B29
:1038E00006D023712B880520DB0705D507B0F0BD76
:1038F0001720FA07FAD5F4E7EB7B1730DB06F5D48F
:103900002B889B07F2D4337C002B79D1337F002B9B
:1039100000D081E06A49086A7A0003ABD35A0343B6
:103920000B62B378082B00D186E001A933780B70C5
:1039300005ABDF5D3800634B98473800624B984712
:103940003189B3880B43B178B27911431943737845
:10395000002B02D080231B0119432268D37B5BB26A
:10396000002BFBDB2980717B4B1E99418900B37BC7
:10397000002B01D0012319432268D37B5BB2002BBB
:10398000FBDBFF232B71002905D02268D37B5BB2C0
:10399000002BFBDB6971B17AF37A002B01D0102385
:1039A0001943337B002B01D0202319432268D37B9A
:1039B0005BB2002BFBDBA9712268D37B5BB2002BCF
:1039C000FBDB2379042B3FD0082B5ED01720002B84
:1039D00000D08BE7D37B5BB2002BFBDB338D2B82DC
:1039E0002268D37B5BB2002BFBDB738D2B832268B9
:1039F000D37B5BB2002BFBDBB38D6B83002075E7C1
:103A000002A901238B700022CA70327E0A704B70AB
:103A1000307D2E4B984779E702A901238B70002255
:103A2000CA702432B21812780A704B701F33F31820
:103A30001878264B98476DE7086A7A1C520003AB4A
:103A4000D35A03430B6270E7D37B5BB2002BFBDBE3
:103A50002823F35C2B742268D37B5BB2002BFBDB47
:103A60002923F35C2B752268D37B5BB2002BFBDB35
:103A70002A23F35C2B762268D37B5BB2002BFBDB23
:103A80002B23F35C6B76002030E7D37B5BB2002BFB
:103A9000FBDBB36A2B612268D37B5BB2002BFBDBC1
:103AA000F36AAB612268D37B5BB2002BFBDB336B29
:103AB000EB6100201AE7C0465D380000D803002003
:103AC00000040040D52F0000492F0000CD30000039
:103AD0000268D37B5BB2002BFBDB0379042B05D0A0
:103AE000082B0BD01720002B04D07047C9B21174DB
:103AF0000020FAE789B211820020F6E71161002068
:103B0000F3E70268D37B5BB2002BFBDB0379042B6A
:103B100005D0082B09D00020002B03D07047107C63
:103B2000C0B2FBE7108A80B2F8E71069F6E710B57B
:103B30000468E37B5BB2002BFBDB0379042B05D02D
:103B4000082B14D01720002B08D010BD17200129F6
:103B5000FBD8D2B261180A760020F6E717200129B7
:103B6000F3D892B20C3149000A530020EDE7172038
:103B70000129EAD8063189000A510020E5E710B58D
:103B80000468E37B5BB2002BFBDB0379042B05D0DD
:103B9000082B11D01720002B07D010BD17200129AA
:103BA000FBD8D2B222740020F7E717200129F4D8FD
:103BB00092B222820020F0E717200129EDD822617D
:103BC0000020EAE710B582B001AB00221A70033280
:103BD0005A70013A9A70013ADA70224B1B7883428C
:103BE0003DD000281AD001AB1A5C1F4B9B5CFF2B09
:103BF00000D1FEE7EFF3108372B6BFF35F8F0024AE
:103C00001A490C70184CA15C0131A154002B05D14C
:103C10000122164B1A70BFF35F8F62B6114B1B78EF
:103C2000002B1AD001AAD25C0F4B9B5C002B00D159
:103C3000FEE7EFF3108372B6BFF35F8F00240B49EA
:103C40000C70094CA15C0139A154002B05D1012253
:103C5000064B1A70BFF35F8F62B6024B187002B04A
:103C600010BDC0461C0200206C030020160100207D
:103C70000F2303405B00C00918180238830018188E
:103C80008000014B18187047CC010020F0B5D646D3
:103C90004F464646C0B589468D796BB2002B26DB70
:103CA00028005E4B984704000F272F40038A984650
:103CB0004B461B889A46837C5B076AD4E36853446F
:103CC0001E00E360A3689E4200D874E0E360A37C1A
:103CD00001229343A3742368002B03D0E1682A00D8
:103CE000002098471CBC90469946A246F0BD28008B
:103CF0004A4B984704000F272F40038A98464B46AB
:103D00005E88C3689C466644C66081688E4225D042
:103D10008D1BADB2424B9D4206D91D004146180095
:103D2000404B98476D1AADB2A27C0023920707D58D
:103D3000414628003C4B984789B24B424B41DBB28D
:103D40005B00A27C02218A431343A3746268921928
:103D50002B0039003548364CA047C3E7837C9B07CE
:103D60000BD4837C0122934383740368002BB9D066
:103D70002A00310000209847B4E7837C0222934355
:103D8000837442689219002339002848284CA047C0
:103D9000A8E74368C268944663441E0041468068B1
:103DA000214B98470A007B1E9B012249591830007D
:103DB000214B984782E74A469288524500D086E7D1
:103DC0009E4200D183E79B1B9DB2154B9D4216D9A5
:103DD0001D0041461800134B98476B1A9BB298453B
:103DE00014D9A37C04221343A3747A1E9201114BAD
:103DF000D218434639000D48104CA04772E741469F
:103E00002800094B98476B1A9BB2E8E76268921941
:103E100039000648094CA04764E7C046713C0000E1
:103E2000FF1F0000D95F0000055E00006404002051
:103E30001D4E0000E4030020817D0000714E000053
:103E400010B50522054B1A70054C80212000054B4A
:103E5000984700212000044B984710BDCA0100205C
:103E600064040020714D0000974D000070B5084CAF
:103E700006212000074DA84704212000A847022161
:103E80002000054B98470220044B984770BDC04660
:103E900064040020B148000091480000C53B0000C8
:103EA00070B5134B9B8C9B061CD41149D022CB6858
:103EB0001340D02BFBD10F4C022120000E4B984712
:103EC000042120000D4DA8470D4A062120000D4B6E
:103ED000984706212000A84703200B4B98470B4B1F
:103EE000984770BD02491022CB681A42FCD0E2E725
:103EF0000008004064040020B14800009148000020
:103F00006D3E00006D480000C53B0000915C000064
:103F100070B582B004001E4B9847802322689372CC
:103F200001AD28001B4B984700266E702900200029
:103F3000194B984719492000194B9847194B0222F1
:103F400000212000184DA847184B00220021200016
:103F5000A847174B012200212000A8470222002178
:103F60002000144DA847002200212000A84701226C
:103F700000212000A84721680B890F4A1A4080239E
:103F8000DB0013430B810D4B1E7002B070BDC046A9
:103F900095160000BD4A0000CD4A0000E40500204F
:103FA000C14E0000F9400000CD480000154400005B
:103FB000FD3F00001D490000FFF3FFFFCA01002084
:103FC00010B50322074B1A70074C08492000084B14
:103FD0009847084B9A68002300212000064CA04710
:103FE00010BDC046CA01002064040020E405002082
:103FF000C14E0000CC0500201D4E000010B589798F
:104000004BB2002B06DB0E4B1B78022B0FD0032B81
:1040100011D010BD0A4B1B78012B05D0042BF8D111
:104020000848094B9847F4E7084B9847F1E7042202
:10403000034B1A70EDE70348034B9847E9E7C04686
:10404000CA01002064040020714D0000C13F00003F
:1040500070B5204B1B88204A9489E41AA4B2002C26
:1040600018D11E4A11885B189BB213801A4AD28855
:104070009A4223D01A4B1B78002B1FD1164B5B6939
:10408000002B23D09847002820D00022114B1A8003
:10409000114B9C89072C19D90022114B1A70082446
:1040A0000C4D2B880C4A9268D218230000210D4831
:1040B0000D4EB0472B88E4182C8070BD04220B4BAA
:1040C0001A700B4907480B4B9847F6E70122044B3F
:1040D0001A70E5E7C6010020CC050020C8010020C9
:1040E000C4010020640400201D4E0000CA0100200D
:1040F000E4050020C14E000010B50C002C4B1B78CD
:10410000002B07D02B4B1B69002B00D098470022B7
:10411000274B1A702388082B02D0274B984710BDD5
:10412000244A264B1978117059785170D8780002BA
:1041300099780918518058790002197909189180E5
:10414000D97909029B795B18D3801D4B98470028C9
:1041500016D0184B1B787F2B15D8164BDB88002BFD
:1041600022D00023174A1380174A13800122104BD4
:104170001A700823114A00211448154CA047CEE7B5
:104180000D4B9847CBE700230E4A13800E4A13804D
:104190000222074B1A700823084A00210B480C4CD6
:1041A000A0470C4B9847BAE70B4B9847B7E7C04678
:1041B000CA010020CC050020413E0000E40500209B
:1041C00039170000C8010020C60100206404002047
:1041D000714E000051400000C13F000010B5024B7D
:1041E0009847024B984710BDF51600009D5C0000F3
:1041F00010B5074C04212000064B984702212000EF
:10420000054B98470120054B9847054B984710BD33
:1042100064040020B148000091480000C53B000044
:10422000855C000010B5040001000A480A4B98475D
:1042300020000A4B9847837CDB070AD5837C012248
:10424000934383740368002B03D0C16822000120CC
:10425000984710BD64040020114D0000713C00001F
:10426000024B1B68188A8004400D704764040020CC
:1042700070B582B0040001AD28000D4B98472000B6
:104280000C4B98472C700023EB700B4E290030002C
:104290000A4B98470F21214000223000084B9847D5
:1042A000002221003000074B984702B070BDC04685
:1042B000BD4A00002542000064040020CD4A0000F1
:1042C000F5480000ED490000F0B583B005000F008F
:1042D000140001AE3000364B98473570082C13D8C7
:1042E000002201AB5A702800324B98470482032108
:1042F0003940012938D0022943D0002303293DD178
:10430000042201ABDA7032E0102C03D8012201AB99
:104310005A70E8E7202C03D8022201AB5A70E2E77A
:10432000402C03D8032201AB5A70DCE7802C03D861
:10433000042201AB5A70D6E780235B009C4203D86D
:10434000052201AB5A70CEE780239B009C4203D824
:10435000062201AB5A70C6E7174A002394420DD8D3
:10436000072201AB5A70BEE7022201ABDA7001A945
:104370001248134B98470023002806D0180003B0BA
:10438000F0BD032201ABDA70F1E70F2129400B4C9D
:104390000C4B002220000C4EB047002229002000C8
:1043A0000A4EB047012229002000B0470123E5E76B
:1043B000BD4A0000713C0000FF03000064040020BF
:1043C000CD4A00008D3C0000CD4800001D49000092
:1043D00010B501000148024B984710BD640400204D
:1043E000474D000010B504000F2303400020022BAE
:1043F00000D910BD21000448044B98472000044B0D
:1044000098470120F5E7C04664040020714D000084
:104410002542000070B5344B1B78012B0AD0022BCB
:104420005FD0324B1B69002B00D0984700222E4BE7
:104430001A7070BD0D882D4B9B892D4A1488621906
:10444000934201DA1D1BADB2284B986800192A006F
:104450002849294B98476419A4B2254B1C80082D84
:104460000AD0224B9C815B69002B02D09847002820
:1044700014D0224B9847DCE71C4BDA88204B1B8872
:104480001B199A42EDDD194B9B89A3420CD00823DE
:10449000184A00211B481C4CA047CAE70522124BB2
:1044A0001A701A4B9847C4E7104B5B69002B0BD06E
:1044B000984700280FD012490D4A0B8810881B1806
:1044C0000B8000231380E2E70522074B1A700020BF
:1044D0000E4B9847ADE70522034B1A700B4B9847DC
:1044E000A7E70B4B9847A4E7CA010020CC050020A2
:1044F000C6010020E4050020817D0000C13F0000CE
:10450000C801002064040020714E0000E543000053
:104510005140000070B504000F2303400020022B1F
:1045200000D970BD2000094B9847050021000848BC
:10453000084B9847AB7C0120DB07F2D5AB7C01220E
:104540009343AB742B6898470120EAE7713C000065
:1045500064040020974D0000F0B585B0050003917C
:10456000029201930F2606400024022E02D9200059
:1045700005B0F0BD624B9847041E00D0B9E028009A
:10458000604B98470700EFF3108172B6BFF35F8F5F
:1045900000225D4B1A70837CDB0708D50029E6D129
:1045A0000132594B1A70BFF35F8F62B6DFE7837C2D
:1045B000012213438374002905D10122524B1A7042
:1045C000BFF35F8F62B6029B7B60019BBB600023E1
:1045D000FB600A9B3B600123039A13405A00BB7C9B
:1045E00002218B43134304229343BB746BB2002B11
:1045F00020DB019B002B6FD09CB2444B9C425AD9CC
:10460000398A1C001800424B9847631A9AB23B8AB9
:104610009A4257D2BA7C04210A43BA74721E92019C
:104620003C49521831003C483C4CA047444244416C
:10463000E4B29CE7019B002B27D09DB2334B9D42F7
:1046400006D9398A1D001800314B98476B1A9DB264
:10465000BB7C9B0707D5398A2800314B984789B224
:104660004C424C41E4B2012020404000BC7C02237B
:104670009C430443BC742B00029A31002648294C09
:10468000A04744424441E4B271E7BB7C9B0705D597
:10469000BB7C02229343BB740025ECE7BB7C012268
:1046A0009343BB740A9B002B25D02A0000210020D5
:1046B000984701245BE7398A2000194B9847631A11
:1046C0009AB2A4E71300029A31001348134CA04792
:1046D00044424441E4B24AE7BB7C01229343BB74A9
:1046E0000A9B002B09D02A000021002098470124B2
:1046F0003DE700243BE7012439E7012437E7C046C2
:10470000D1430000713C000016010020FF1F000093
:10471000D95F0000E403002064040020714E000013
:10472000055E00001D4E0000024B1B6880221043F6
:104730009872704764040020024B1B68987A400608
:10474000400E704764040020014B986099817047C7
:10475000CC05002070B50320164B9847164C2268F4
:10476000138901218B431381144A03312000144E15
:10477000B047144A00212000B047134A012120000D
:10478000B047124A02212000B04704212000104DFA
:10479000A84700212000A84701212000A8470221A6
:1047A0002000A8470B4A06212000B0470621200020
:1047B000A84770BDC53B000064040020F141000023
:1047C0006D480000DD410000113F0000A13E0000E7
:1047D000914800006D3E000070B582B0EFF3108488
:1047E00072B6BFF35F8F0026174B1E7001AD280015
:1047F000164B9847AE70164E2A0016493000164BDD
:1048000098473000154B9847154B9B8C9B0614D44A
:104810001349D022CB681340D02BFBD10120114B80
:104820009847114B9847002C05D10122064B1A706E
:10483000BFF35F8F62B602B070BD09491022CB682A
:104840001A42FCD0EAE7C04616010020C554000019
:104850006404002000500041D5540000F14E0000D7
:1048600000080040C53B00005547000010B50B0094
:104870002E339B001A50AA2252004900835A034C3F
:10488000095B0B438352002010BDC04678800000B6
:104890004900064BCB5A02689383AB214900425A28
:1048A0001A43425202681383002070477880000048
:1048B0004900054BCA5AAB214900435A934343521E
:1048C00003689A82002070477880000010B58C0041
:1048D000A4183434A4000419636040185930FF3020
:1048E000037803498A5C13430370002010BDC0465F
:1048F0008880000010B58B009B1834339B00C318D0
:1049000000245C6040185930FF30034B9A5C0378F8
:1049100093430370002010BD8880000070B50F2302
:104920000B40C4186134FF3425782F4EB65C3543F4
:104930002570002A29D1002B12D103250A24FF3427
:1049400006683555032A09D149B2002944DB0268BB
:104950005B01D3180A33FF3320221A70002070BD88
:104960004CB2002C08DB5C010568AC4664440A3498
:10497000FF3401252570E5E75C010568AC46644419
:104980000A34FF3402252570DCE7012A1AD1002BF6
:1049900005D102680C210A23FF33D154DEE749B266
:1049A000002907DB02685B01D3180A33FF330422B6
:1049B0001A70D3E702685B01D3180A33FF33082269
:1049C0001A70CBE7022ABDD102685B01D3180A3303
:1049D000FF3310221A70C1E702685B01D3180A3353
:1049E000FF3340221A70B9E78880000070B50F23AA
:1049F0000B40C4186134FF342F4DAE5C2578B543AD
:104A00002570002A29D1002B12D1032584246400AB
:104A100006683555032A09D149B2002944DB0268EA
:104A20005B01D3180933FF3320221A70002070BDB8
:104A30004CB2002C08DB5C010568AC4664440934C8
:104A4000FF3401252570E5E75C010568AC46644448
:104A50000934FF3402252570DCE7012A1AD1002B26
:104A600005D102680C210933FF33D154DEE749B286
:104A7000002907DB02685B01D3180933FF330422E6
:104A80001A70D3E702685B01D3180933FF33082299
:104A90001A70CBE7022ABDD102685B01D318093333
:104AA000FF3310221A70C1E702685B01D318093383
:104AB000FF3340221A70B9E788800000002303709A
:104AC000437083700133C37070470000F0B50C78F9
:104AD0000F23234064B2CA78042A70D89200894D0B
:104AE000AA589746026808335B01002199540022B6
:104AF00082E05C0102689446644480225200A55C16
:104B0000E43A6D0778D1E432A65C7025E43A2E428F
:104B100072D15F3DE432A5541A0008325201046894
:104B2000A4182F35657100688218802010718A786A
:104B3000002A1FD05801744A1218546880200006B9
:104B40000443546054692043506107254C785A014E
:104B50006D4B9B1858682C4024076C4E3040204306
:104B6000586049785A692940090732400A435A6116
:104B7000002241E05801644A121850684000400881
:104B800050605069400040085061DEE7002C35DB82
:104B90005D0102689446654480225200AE5CE43AAE
:104BA000760729D180267600AA5D02273A43AA55C6
:104BB0000268180008304001121840205071E20FBE
:104BC0004F785D00AD182D014F4E751968680724A8
:104BD0003C4024074D4E30402043686089780029CE
:104BE00000D088E05B009B181B01474AD3185A6825
:104BF000520052085A6000221000F0BD5D010268A8
:104C00009446654480225200AF5C7026E43A3742F5
:104C1000F2D19036AA5D20273A43AA5502681800BF
:104C200008304001121880201071C8E7002C17DBF3
:104C30005D0102689446654480225200AE5CE43A0D
:104C40007607D9D180267600AA5D03273A43AA5574
:104C50000268180008304001121840205071AEE779
:104C60005D0102689446654480225200AF5C702664
:104C7000E43A3742C0D19036AA5D30273A43AA556C
:104C8000026818000830400112188020107196E761
:104C9000002C17DB5D0102689446654480225200B7
:104CA000AE5CE43A7607A7D180267600AA5D042799
:104CB0003A43AA55026818000830400112184020F3
:104CC00050717CE75D010268944665448022520081
:104CD000AF5C7026E43A374200D08DE79036AA5D8B
:104CE00040273A43AA5502681800083040011218BC
:104CF0008020107163E7696880231B060B436B609B
:104D0000002279E764800000EC050020FFFFFF8FA0
:104D10000F230B4049B200290ADB08335B0102680C
:104D2000D218402151710268D3180122DA717047FC
:104D300008335B010268D218802111710268D31810
:104D40000222DA71F3E70F230B4049B2002907DB97
:104D5000026808335B01D3189879C006C00F70470A
:104D6000026808335B01D31898798006C00FF6E714
:104D70000F230B4049B2002906DB026808335B01B0
:104D8000D31810225A717047026808335B01D31898
:104D900020225A71F7E730B50F230B4049B20029A2
:104DA0001DDB59010268521883246400145DE40677
:104DB00014D5102582246400155502685218082164
:104DC000FF31515C890609D5E43C0821FF31545478
:104DD000026808335B01D31801221A7130BD5901F2
:104DE0000268521883246400145DA406F6D52025B9
:104DF000822464001555026852180821FF31515C65
:104E00004906EBD5C43C0821FF31545402680833ED
:104E10005B01D31802221A71E0E7000030B50C00E4
:104E2000083464010568645D6406640F1C25002C69
:104E300001D1280030BD4C010B4D2D192C002A61E9
:104E40006A690A4D2A40626162699B049B0C920B5D
:104E500092031343636103680831490159188023A1
:104E60004B710025E5E7C046EC050020FF3F00F050
:104E700030B50C00083464010568645D64071C25C6
:104E8000002C01D1280030BD0B4C4D012A51621974
:104E900054689B041B09094D2C40234353605368FD
:104EA0009B0B9B0353600368083149015918402349
:104EB0000B710025E6E7C046EC050020FF3F00F03F
:104EC000094B19605A6809491140802292020A432D
:104ED0005A605A68920B92035A60026840218223FA
:104EE0005B00D15400207047EC050020FF3F00F02C
:104EF0000268137802210B43137002689378022B27
:104F0000FCD07047F0B5DE4657464E464546E0B504
:104F100083B0C04B1F683D682B78DB0914D12E8C01
:104F2000B6B2002E00D0A5E1AE8BB6B2AB235B00CB
:104F3000FB5AAA225200BD5A1D4035400024B64FEC
:104F4000B44B9946984680E1288C80B2B34B984781
:104F500004001F2800D9D6E0030008335B01ED18D8
:104F6000ED79EDB2AB0741D0AD4A01238340116822
:104F700099431160030008335B013A689446634427
:104F80000322DA713B18AE331B78DB072ED5A54B15
:104F900018703A68030008335B019B5C9B079B0F0A
:104FA000012B00D181E042019F4B9B185A681201EE
:104FB000920C90B29B494A805A689204920C8A8063
:104FC0005A689A490A405A60002807D16201964BF4
:104FD0009B185B689B049B0C924A53808D4B18680E
:104FE000A31C1B01C3185B688E4998476B070ED53D
:104FF0008B4A0123A340116899431160854B1B68BC
:105000001B682200083252019B180422DA712B0718
:1050100014D5834A0123A3401168994311607D4B45
:105020001868230008335B01026894466344082231
:10503000DA710319AE331B789B0747D4EB0614D5FE
:10504000774A0123A340116899431160714B186896
:10505000230008335B010268944663441022DA712E
:105060000319AE331B785B073ED4AB0600D4B0E027
:105070006B4A0123A340116899431160654B18687E
:10508000230008335B010268944663442022DA71EE
:105090000319AE331B781B0700D49AE061490C70EA
:1050A00024010419236B984793E042015E4B9B183F
:1050B0005A689204920C5B494A805A681201920C19
:1050C0008A805A68920B92035A6087E755490C70A0
:1050D0006201554B9B18DB891F2213404B70230143
:1050E000C3189B6A9847A9E74E490C7062014E4B62
:1050F0009B185B681B019B0C4B802301C318DB6A68
:1051000000219847B1E7AC8BA4B2630705D504230F
:10511000AB83A133FB5CDB0762D423070BD50022F2
:105120003F4B1A603B4B18680823026893839D33FA
:10513000C35C9B0758D4630608D5364B18684023D8
:10514000026893836533C35CDB0650D4A30608D59D
:10515000304B18682023026893838533C35C1B0798
:1051600048D4E30608D52B4B1868102302689383B4
:105170009533C35C5B0740D423060BD50022284B34
:105180001A60244B18688023026893832533C35C1C
:105190009B0635D4E3050CD50022214B1A601D4B2C
:1051A000186880235B00026893835B3BC35C5B06EB
:1051B00029D4A3050DD50022194B1A60154B186888
:1051C00080239B00026893835C3BFF3BC35C7F2B87
:1051D0001CD803B03CBC90469946A246AB46F0BDF5
:1051E0007B683800984798E783689847A3E7436946
:1051F0009847ABE703699847B3E7C3689847BBE7AD
:1052000083699847C6E7C3699847D2E7036A984716
:10521000DFE7C04620020020788000002160000007
:105220003002002034020020EC050020FF3F00F097
:1052300023002E339B00424612689B589E494246EB
:10524000106898470134072CC3D06300DB5B3342FE
:1052500003D04A461268126893832B42F2D0062C80
:10526000E6D1964B1B891B09802252001340924ABB
:105270001360DDE73C005934FF34002301229446DB
:105280005F329146503A92460D3A9346B8462F0007
:10529000B9E02A003D00474690465B01ED1808231F
:1052A000FF33EB5C5B0616D540220823FF33EA543C
:1052B000883BFF3B42461343814A937160230B4274
:1052C00000D186E7019B1B01FB18E0331B687C497A
:1052D000380098477DE70823FF33EB5C9B06EDD54C
:1052E00020220823FF33EA54754B42469A71E5E7C2
:1052F0003D004746019A130008335B01ED18102367
:10530000EB71BB186133FF331B78DB0600D460E719
:1053100010005201694B9B185B689B049B0C684909
:105320000B800301FB18DC331B684046984750E7AD
:105330002A003D00474690465B01ED180823FF33E5
:10534000EB5C9B071ED502220823FF33EA545C481E
:10535000883BFF3B424613438371019B5A01574BE5
:105360009B1810335B689B049B0C43808B0700D118
:105370002FE7019B0D331B01FB185B685049380078
:10538000984726E70823FF33EB5CDB07EED50122C5
:105390000823FF33EA544A4843468371019B5B016B
:1053A000464AD21853689B049B0C038053681B0128
:1053B0009B0C8380DAE70822FF329A5C52076ED595
:1053C00004200822FF329854019842013B4B9B185D
:1053D0009B7A9B0705D5394B9B189A7A022082430A
:1053E0009A72374B42469A71019B08335B013A68C7
:1053F00094466344DB79DB0751D5EAE60133013497
:10540000082B00D1E5E6DDB2019332001A41614676
:105410001142F3D01A0008325201BA18D279D2B22E
:10542000217A1140207801404846104200D030E7F0
:105430005046104200D05BE75846104200D077E754
:105440000C201042DAD02A003D00474690465B010E
:10545000EB180822FF329A5C1207ACD504380822F8
:10546000FF32985401984201144B9B189B7E9B0776
:1054700005D5124B9B189A7E022082439A76802390
:105480005B42424613430E4A9371019B08335B0112
:105490003A6894466344DB799B0700D599E60C2370
:1054A0000B4200D195E6019B1B01FB18D8331B680A
:1054B0000349380098478CE624020020EC050020C0
:1054C0002802002000220270012343708270C37002
:1054D00070470000F0B5CE46474680B583B0040063
:1054E0000D00160000236E4A13606E4A10602160A2
:1054F0006D49CA6920200243CA6101AF7B70012255
:10550000BA70FB70063399463B7039000838674B18
:10551000984698474B463B7039001920C047B378EE
:105520006A46137069460620614B98470620614B16
:1055300098472B78012213432B70AB78DB07FCD400
:105540005D4AD37803218B4302210B43D370D37878
:105550000C218B4308210B43D370584B1B689B03D2
:10556000DB0E1F2B00D18FE02A8D9B0154490A408E
:1055700013432B85514B1B685B02DB0E1F2B00D1A5
:1055800084E02A8D1F218A4313432B854B4B1B68D4
:105590009B015B0F072B00D17AE02A8D1B03494941
:1055A0000A4013432B8532782978D2017F230B40A0
:1055B00013432B7071782B7801220A40920004214A
:1055C0008B4313432B70404B6B62F378012B61D0FC
:1055D000002B06D1226813890C218B4304210B4335
:1055E00013818022520000213748384B9847231DF1
:1055F00021002431002204C38B42FCD12100A431BC
:1056000000221A605A609A60DA6010338B42F8D137
:105610000023A422A3540132A3542300A633210063
:10562000AE3100221A701A7201339942FAD1230066
:10563000B8332100D431002204C38B42FCD12100B5
:105640005531FF3100221A605A609A60DA601033D7
:105650008B42F8D10023AA225200A3520232A35255
:1056600023005933FF336134FF3400221A701A7259
:105670000133A342FAD18022154B1A60002003B0F7
:105680000CBC90469946F0BD1A3B6DE7023B78E7AB
:10569000043B82E72268138908318B431381A0E71A
:1056A000300200202002002000040040CD30000025
:1056B000D52F0000492F00000050004124608000D9
:1056C0003FF8FFFFFF8FFFFFEC050020937D0000F8
:1056D00000E100E0FEE70000F8B52A4A2A4B9A42B2
:1056E00011D01A00294B9A420DD2294A03339B1A32
:1056F0009B0801339B000022234822498C58845088
:1057000004329A42FAD1234A234B9A420AD2D34313
:1057100021495B1803218B4304339B18002102C2EB
:105720009342FCD11D4AFF211D4B8B439360FD39F1
:1057300090235B001B4AD1501B4AD3780325AB430F
:1057400002242343D370D3780C27BB43082633436A
:10575000D370164B987B30229043202210439873CD
:10576000997BB943314399739A7BAA4322439A7335
:105770000F4A536880210B4353600E4B98470E4BE2
:105780009847FEE7AC8100000000002018010020CF
:1057900004000020180100201C07002000ED00E09C
:1057A000000000000070004100500041004800412E
:1057B00000400041397D0000E95B000010B58CB06D
:1057C0006846144B984701236A4653708022920022
:1057D00069464A80F63AFF3A0A73C0225201CA81EA
:1057E00030220A716A468B740B4C0C4920000C4B1A
:1057F00098472268537E5BB2002BFBDB13780221B3
:105800000B431370044B1A68537E5BB2002BFBDB17
:105810000CB010BD191C0000100700200040004211
:10582000611C000030B52A4B19684B7E5BB2002B1F
:10583000FBDB0B691F229343184308614B7E5BB26D
:10584000002BFBDB4B7E5BB2002BFBDB0B7B0222D6
:1058500013430B734B7E5BB2002BFBDB0120042553
:10586000022401E010420AD10B7EDBB202001A4092
:105870001D4200D022431C42F4D02A43F2E70A7EA4
:10588000D2B201231340500701D5022003439207EF
:1058900001D5042213430020DB0701D4C0B230BD80
:1058A0004B7E5BB2002BFBDB488B80B201230B7677
:1058B0000A7ED2B21340540701D502242343920733
:1058C00001D5042213435B07E8D502230B76E5E7F5
:1058D0001007002030B58DB06846144B98478023E0
:1058E0009B006A4653800023537018331373C02300
:1058F0005B01D3810423D3750D4D0E4C290020008C
:105900000D4B98472223AB702268537E5BB2002B6D
:10591000FBDB137802210B431370064B1A68537E8E
:105920005BB2002BFBDB0DB030BDC046191C000084
:105930000040004210070020611C0000F0B5D64670
:1059400000B588B0284FB8470190284B1B68284CF9
:105950000093191C274B1868A047061C264B1A6891
:10596000151C111C254B1868A047011C244A92469F
:105970000496301C9047061C22490198D047029596
:10598000291CA047204D0596311CA8471F4E0099A1
:10599000B0471F4B069018601E4B1B680393191CE1
:1059A0001D4B1868A047079000990698A047011C56
:1059B0000798A8470499D0470399B0470199A84789
:1059C0001049D0470299A0470599A8470099B047C8
:1059D0008621C905B047114B9847C0B2B84708B0F7
:1059E00004BC9246F0BDC0469D6C00000807002034
:1059F0008568000018070020EC0600200C07002036
:105A0000B563000000F07F4545660000916000002E
:105A1000F8060020FC060020F0060020616000006F
:105A200010B5092807D963280BD9094B98470949AC
:105A3000094B984704E0064B98470849064B98479E
:105A400010BD034B98470649034B9847F8E7C046FB
:105A50009D6C000000007A44B56300000000204106
:105A60000000C842F0B5DE4657464E464546E0B512
:105A700087B03E4B1B6805933D4B1B680493059E06
:105A80000598059B0093059A9146059A0192049901
:105A90000291049C2403240D364B1C80049D2D0D83
:105AA000354B1D80000A0F27B8463840334FBB46A0
:105AB000B8470390FF273E403000314EB047314B8E
:105AC0009A4603999847304B18604846000D414666
:105AD0000840D8470390009B180B3840B047039903
